:100000000C94C2030C94FA030C94FA030C94FA03B4
:100010000C94FA030C94FA030C94FA030C94FA036C
:100020000C94FA030C94FA030C94EB1B0C94A71B8E
:100030000C943E1D0C94FA030C94FA030C94FA03EE
:100040000C94FA030C94FA030C94FA030C94FA033C
:100050000C94FA030C941A1D0C94FA030C94FA03F2
:100060000C94FA030C94FA030C94FA030C94FA031C
:100070000C94FA030C94FA030C94FA030C94FA030C
:100080000C94FA030C94FA030C94FA030C94FA03FC
:100090000C94FA030C94FA030C94FA030C94FA03EC
:1000A0000C94FA030C94FA030C94FA030631FF093A
:1000B00074A1010975150026FF00952075088102BD
:1000C0000976150026FF00952075089102C00501EC
:1000D0000902A10185020901A100050919012908E8
:1000E00015002501950875018102050109300931C6
:1000F0001581257F95027508810609381581257FB0
:10010000950175088106050C0A38021581257F9531
:100110000175088106C0C005010980A10185031988
:10012000012AB700150126B700950175108100C09E
:10013000050C0901A101850419012AA00215012657
:10014000A002950175108100C005010906A1018575
:1001500006050719E029E7150025019508750181B5
:10016000020507190029EF1500250195F075018199
:10017000020508190129059505750191029501757A
:10018000039101C00660FF0961A101096215002603
:10019000FF009520750881020963150026FF009570
:1001A0002075089102C005010906A101050719E0A3
:1001B00029E715002501950875018102950175084B
:1001C00081010507190029FF150026FF0095067516
:1001D0000881000508190129059505750191029509
:1001E0000175039101C00000000000000000000044
:1001F00000000000000000000000000000000000FF
:10020000000000000000000000007E0F00D4FFFF8F
:10021000FFC70000007800000000000000002A2B4B
:1002200028000000000000000000000000000000A6
:100230000029000000002C1E34202122243426270F
:10024000252E362D3738271E1F2021222324252630
:100250003333362E37381F0405060708090A0B0CFE
:100260000D0E0F101112131415161718191A1B1C46
:100270001D2F3130232D350405060708090A0B0C04
:100280000D0E0F101112131415161718191A1B1C26
:100290001D2F3130354C44454255473A206469732F
:1002A00061626C65642E0A0044454255473A2065F8
:1002B0006E61626C65642E0A006164645F6B6579CF
:1002C0005F6269743A2063616E2774206164643AE6
:1002D00020253032580A0064656C5F6B65795F6277
:1002E00069743A2063616E27742064656C3A202536
:1002F0003032580A004F6E6573686F743A2061633C
:10030000746976653A2025640A000A00253032585F
:1003100020006B6579626F6172645F7265706F72E5
:10032000743A20005B735D000A00253031366200AC
:100330003A200025303258000A722F6320303132C3
:10034000333435363738394142434445460A000A8A
:100350000025303258006C65645F7461736B3A201D
:1003600000290A002575002F002575005D2800254D
:10037000640020002564002000256400200025641E
:10038000007C0025303258006D6F7573656B6579A0
:10039000205B62746E7C782079207620685D2872FC
:1003A00065702F61636C293A205B0029003A003B9D
:1003B000003C003D003E003F004000410042004341
:1003C00000440045004C00A800000035001E001F3E
:1003D0000020002100220023002400250026002701
:1003E000002D002E002A00000000002B0014001A2F
:1003F000000800150017001C0018000C0012001364
:10040000002F003000310049004B00390004001675
:1004100000070009000A000B000D000E000F00335A
:1004200000340028002A004D004E00E100E1001DCC
:10043000001B0006001900050011001000360037EF
:10044000003800E500E50052000000E000E300E2B3
:1004500000AA002C00A9002C0000002C000000E6DF
:10046000002152E400500051004F00010001000142
:100470000001000100010001000100010001000174
:1004800000010001000100AE0000000100010001B8
:100490000001000100010001000100010001000154
:1004A0000001000100010000000000010001000146
:1004B0000001000100010001000100010001000134
:1004C000000100010001000100007C0100010001A9
:1004D0000001000100010001000100010001000114
:1004E0000001000100010001000100010001000104
:1004F00000010001000100010001000100010001F4
:1005000000010001000100010000000100010001E4
:1005100000AC000100AB0001000000010000000180
:1005200000010001000100010001000100010001C3
:1005300000010001000100010001000100010001B3
:1005400000010001000100010000000100010001A4
:100550000001000100010001000100010001000193
:100560000001000100010000000000010001000185
:100570000001000100010001000100010001000173
:100580000001000100010001000100010001000163
:100590000001000100010001000100010001000153
:1005A0000001000100010001000100010001000143
:1005B0000001000100010001000100010001000133
:1005C0000001000100010001000000010001000124
:1005D0000001000100010001000000010000000115
:1005E0000001000100010001000100010001000103
:1005F00000010001000100010001000100010001F3
:1006000000010001000100010000000100010001E3
:1006100000010001000100010001000100010001D2
:1006200000010001000100000000000100010001C4
:1006300000010001000100010001000100010001B2
:1006400000010001000100010001000100010001A2
:100650000001000100010001000100010001000192
:100660000001000100010001000100010001000182
:100670000001000100010001000100010001000172
:100680000001000100010001000000010001000163
:100690000001000100010001000000010000000154
:1006A00000010001000100010001005B435D005BEF
:1006B000445D005B535D005B575D005B525D00096C
:1006C000027B00040100A0FA0904000001030101FB
:1006D00000092111010001224000070581030800E3
:1006E00001090401000203000000092111010001B9
:1006F00022220007058203200001070503032000D2
:100700000109040200010300000009211101000198
:1007100022B6000705840320000109040300020338
:1007200000000009211101000122220007058503B4
:10073000200001070505032000011201000200004E
:1007400000086BA0040001000102000116036D0007
:1007500061006D006D006F007400680037003500A7
:10076000780000001A0377007500710075006500BD
:100770002000730074007500640069006F000000C1
:100780000403090411241FBECFEFDAE0DEBFCDBFA2
:1007900004B603FE18C08091A0029091A102A0911E
:1007A000A202B091A3028730904BA740B04B59F4FE
:1007B0001092A0021092A1021092A2021092A30223
:1007C000E0E0F8E3099511E0A0E0B1E0E2ECF7E445
:1007D00002C005900D92AC37B107D9F722E0ACE723
:1007E000B1E001C01D92A03AB207E1F70E94651D79
:1007F0000C948D230C940000FF93EF93E0917C0107
:10080000F0917D01309709F00995EF91FF910895DE
:10081000FC018591803011F0EFDFFBCF0895FF27B9
:10082000E0E230E247FF0CC0419597FF09C0EDE2DE
:100830006095709580959095611D711D811D911D2C
:1008400027FF02C0219530E350E2AA27660F771FE9
:10085000881F991FAA1FA41710F0A41B63955A950F
:10086000A9F7AA3008F0A95FA05DAF93F3956115D1
:1008700071058105910541F7ED3211F4EF93F39580
:10088000F21718F43F93F395FBCF8F91B5DFFA95EC
:10089000E1F70895E991F9918591803021F0853251
:1008A00019F0AADFF9CF089520E0E8945591553268
:1008B000C1F3503311F4689455915A3348F45053AE
:1008C00090F3220F022E220F220F200D250FF4CFBE
:1008D0000EF4219589919991533619F3533729F1E3
:1008E000533559F1BC0188279927E8945C3621F4E7
:1008F0008991999168945591543639F446EF7EF078
:1009000077FF0DC08FEF9FEF0AC055374AE039F0EF
:10091000583540E121F0523642E009F00895FF9346
:10092000EF937DDFEF91FF91B7CFFF93EF93FC0142
:1009300081918030B9F360DFFBCFFF93EF9368DFE5
:10094000F1CFDF93CF93CDB7DEB72596A3DFCF915D
:10095000DF910895E8EDF0E080818E7F8083109232
:10096000E2001092DA001092E100A0EEB0E08C916B
:1009700081608C9380818F77808319BCA7EDB0E074
:100980008C918E7F8C9380818F7E808310926D02FC
:1009900008952091E4003091E50095E6A9012091A9
:1009A000EC00822F817020FF06C08091E80080FF5C
:1009B00006C080E008952091E80022FD1AC08091D1
:1009C0009202882389F0853089F08091EB0085FDC3
:1009D0000FC02091E4003091E50042175307F9F26F
:1009E0009150E1F684E0089582E0089583E008954F
:1009F00081E008958091940287FF13C08091E80000
:100A000082FF06C08091E8008B778093E80004C0E5
:100A1000809192028111F2CF0895809192028823F1
:100A2000D9F38091E80080FFF8CF8091E8008E77BD
:100A3000ECCF982F9093E900242F762F50E0891760
:100A400031F07091EC002091ED005091F00021FD0B
:100A500007C09F5F973071F78093E90081E00895A8
:100A60003091EB003E7F3093EB003091ED003D7F05
:100A70003093ED003091EB0031603093EB007093D8
:100A8000EC002093ED005093F0002091EE0027FD44
:100A9000E0CF80E00895B0E0A0E0E1E5F5E00C945F
:100AA000FD22C8EDD0E088818F7E8883E7EDF0E0FD
:100AB00080818160808384E082BF81E080936D02C9
:100AC00088818E7F888302EE10E0F80110821092F8
:100AD000DA0081EEC82ED12CF601108288818F7742
:100AE000888388818068888388818F7D888319BC0A
:100AF0001092920210929302109291021092900220
:100B000090EEE92EF12CF70180818B7F8083888124
:100B10008160888342E060E080E00E941905F60170
:100B200080818E7F8083F8018081816080838081D5
:100B300088608083F70180818E7F808388818061D7
:100B40008883CDB7DEB7E8E00C941923FC018091CF
:100B50009A0290919B0286179707A0F06115710584
:100B600029F49091E8009E779093E80090E0611559
:100B7000710551F4911108C08091E80082FF34C0E2
:100B800080E00895BC01F2CF809192028823C1F1E8
:100B90008530C1F18091E80083FD30C08091E8008C
:100BA00082FDEACF8091E80080FFE1CF8091F300E1
:100BB0002091F200382F6115710519F028303105A8
:100BC00058F091E02830310509F090E02091E800DC
:100BD0002E772093E800CBCF81918093F100615074
:100BE00071092F5F3F4FE7CF80919202882341F038
:100BF000853041F08091E80083FFBECF81E0089509
:100C000082E0089583E0089580916F0208959C0129
:100C10004FB7F8948091640290916502A0916602AA
:100C2000B09167024FBF821B930B08952FB7F894C2
:100C300060916402709165028091660290916702F2
:100C40002FBF08952FB7F8948091640290916502A8
:100C5000A0916602B09167022FBF0895A3E0B0E0B3
:100C6000E4E3F6E00C9403232091610230916202E8
:100C700028173907A1F09093620280936102E091F6
:100C80005F02F0916002309751F024E029839B834A
:100C90008A830680F781E02DCE010196099523967F
:100CA000E2E00C941F23A3E0B0E0E9E5F6E00C9449
:100CB000032320915D0230915E0228173907A1F0CD
:100CC00090935E0280935D02E0915F02F09160027A
:100CD000309751F023E029839B838A830680F78134
:100CE000E02DCE01019609952396E2E00C941F2396
:100CF000E0915F02F0916002309729F00190F0815D
:100D0000E02D0995089580E008958091500280FDBE
:100D100016C081FD16C082FD16C080914F02882347
:100D2000A1F0883280F428E0829FC001112468E29B
:100D300070E00E94D222862F672B39F0089582E05E
:100D4000089584E0089588E0089581E008958091F1
:100D5000500280FD14C081FD14C082FD16C0809138
:100D60005102882381F08E3180F420E5829FC001FA
:100D700011246EE170E00E94D222862F089584E152
:100D8000089588E2089588E0089580E50895F8942C
:100D9000E82FE295EF70F0E031A1282F2F7081E06D
:100DA00090E001C0880F2A95EAF7982F9095932339
:100DB00091A392A1892B82A37894089590916802BF
:100DC00092FF06C0282F28712830F9F4877F8460AD
:100DD00093FF06C0282F28712831F1F4877E8461A3
:100DE0002091690220FF06C0382F38713830D9F4BD
:100DF000877F816021FF06C0282F28712831D1F418
:100E0000877E816194FD877E0895282F2471243088
:100E1000F9F68B7F8860DCCF282F2471243101F70D
:100E20008B7E8861DDCF382F3171313019F78E7F9D
:100E30008860E0CF282F2171213121F78E7E8861D3
:100E4000E1CFCF93DF93EC0182389105B9F108F03F
:100E500041C08133910509F49FC050F58932910555
:100E600009F48FC08A9709F49EC0C11520E5D20706
:100E700008F0BDC0C11530E4D30708F00AC1C03E78
:100E8000D10508F0A5C0CD3CD10508F000C1C83A95
:100E9000D10508F08FC0C53AD10508F0F0C0C130C7
:100EA000D10539F1209729F1C430D10510F546C09C
:100EB0008533910509F460C0C997B9F6809168023D
:100EC000837009F044C18091690283FF12C0C9E2B6
:100ED000D0E00FC0833E9105A1F178F4803E9105EA
:100EE00009F1823E910509F0C0CF8091680282FD30
:100EF00021C0CE01DF91CF910895863E910561F129
:100F0000873E910571F1843E910509F0AECF809145
:100F1000690281FFEECF80916802C7EED0E084FDC8
:100F20000DC0E7CF8091680280FD33C090916902C7
:100F300090FFDFCFC3EED0E084FFDBCFD0E0C0E096
:100F4000D8CF8091680282FDFFC09091690290FD28
:100F5000FEC084FFCECFF2CF8091680283FDDDCF4B
:100F6000C8CF8091680283FDF5C09091690291FF1E
:100F7000F0CFC4EED0E0BDCF8091680285FFB9CF3D
:100F8000A6CF8091680285FDE8C08091690283FF49
:100F9000B0CFC9E3D0E0ADCF8091680286FFA9CF82
:100FA000CAE2D0E0A6CF8091680286FFA2CFC1E35B
:100FB000D0E09FCFC13CD10508F6C85AD0E0CC0F95
:100FC000DD1FC45FDE4F0990D881C02DD46491CF5E
:100FD000C11540E2D40708F0AAC0C11581E0D807C6
:100FE00008F087CFC83ED10508F483CFA7CFC0361D
:100FF00022E5D20718F5C03432E5D30708F053C014
:10100000C03242E5D40708F047C0C11582E5D807D1
:1010100008F47FC02C2F2695269540E2249F90014E
:1010200011248C2F8370C1E0D0E002C0CC0FDD1FF3
:101030008A95E2F7C22BD32BDD685BCFC03A22E55D
:10104000D20760F4C03832E5D30708F441C0CF714D
:10105000D0E0DC2FCC27C46FD06A4BCFC03C42E538
:10106000D40708F44AC0C03E82E5D80708F066CF2E
:10107000DC2FCC27CC27DF71C06FD06A3ACFC55A9E
:10108000D0E0C75FDE4FC881D0E0D06432CFD065FA
:1010900030CFDF70D06A2DCFCF71D0E0DC2FCC27DE
:1010A000C16FD06A26CF2C2F26952695277080E217
:1010B000289F900111248C2F8370C1E0D0E002C0E2
:1010C000CC0FDD1F8A95E2F7C22BD32BDC6811CF42
:1010D0002C2F26952695277040E2249F90011124FD
:1010E0008C2F8370C1E0D0E002C0CC0FDD1F8A9549
:1010F000E2F7C22BD32BDA68FCCE8C2F8F710E94C3
:10110000DE06C82FD0E0DC2FCC27CC27DF71D062E1
:10111000F0CE8C2F8F710E94DE0635E0D695C795F4
:101120003A95E1F7CF709C2FEC01D069E2CE8D2F7C
:101130008F710E94DE0690E0982F882788279F7184
:101140009C012C2BE901E3CFC2EED0E0D2CEC0EE61
:10115000D0E0CFCEC6EED0E0CCCEC5E3D0E0C9CE55
:1011600080911E02811110921E0208958095909127
:101170001D02982390931D0208958091FA01909189
:10118000C901981301C008958F5F8770FACF963018
:1011900080F5803170F540E1949F90011124820F19
:1011A000932F911D682F677023E0969587952A9558
:1011B000E1F7FC01EE0FFF1FE80FF91FE156FE4FAC
:1011C00050E040E080E0219130E0062E02C03695EC
:1011D00027950A94E2F721703327042E01C0220FCD
:1011E0000A94EAF7822B4F5F5F4F4330510559F75E
:1011F000089580E00895963098F5803188F540E1B3
:10120000949F90011124820F932F911D282F2770F6
:1012100041E001C0440F2A95EAF723E096958795AF
:101220002A95E1F7FC01EE0FFF1FE80FF91FE156C9
:10123000FE4F90E080E070E05191DF0111979B013B
:10124000082E02C0369527950A94E2F72170219561
:101250002527242325272C9301968330910561F7B8
:10126000089580939C02089580919C02982F967017
:10127000963021F488600E9431090895877FFBCF62
:1012800021E030E001C0220F8A95EAF72095809195
:101290009C0282230E94310908959091FB01809560
:1012A00089238093FB01282F277091F4282F082E83
:1012B000000C330B9217130659F09091690292FFBC
:1012C00007C08595859585950E9440091092FB0180
:1012D000089521E030E001C0220F8A95EAF780915D
:1012E0009C02822B0E943109089580932E0208955A
:1012F00081FD02C02E9A08952E980895829590E05F
:101300009C01220F331F220F331F2C7C959587954C
:10131000959587958373282B30E0C901880F991F15
:101320008A7A359527952575822B08959FB7F8946D
:1013300010926B029FBF90919202943009F048C0C6
:101340002091E9002F703091EC00932F917030FDC7
:1013500090E8922B25E02093E9002091EB0020FFFC
:1013600034C02091EE0027FF30C020916A02222372
:1013700021F02091E80025FF28C010926A0226E0A3
:101380003091E80035FF14C08093F1008091E800AF
:1013900085FD27C08091E80080FFFCCF8091E800A8
:1013A0008E778093E8009F709093E90080E0089525
:1013B00030919202343049F43091EB0035FD05C094
:1013C000215041F481E080936A029F709093E9007C
:1013D0008FEF0895EFE9FFE03197F1F700C00000CB
:1013E000CFCF8FB7F89421E020936B028FBFDBCF74
:1013F0000F931F93CF93DF938B01EA019091920299
:10140000943061F58093E9008FEF9091E80081506E
:1014100095FD06C095ED9A95F1F700008111F5CF85
:101420008091E80085FF1AC00E94C904811111C093
:101430008091E80085FD06C08091E8008E7780935A
:10144000E800F2CFF80181918F018093F10021979C
:1014500079F78091E8008E778093E800DF91CF9153
:101460001F910F91089543E050E0BC0184E00E9479
:10147000F809089546E050E0BC0184E00E94F809B4
:101480000895CF93DF93EC0180910801811111C081
:1014900048E050E0BE0181E00E94F80980E2FE01D0
:1014A000A0E7B2E001900D928A95E1F7DF91CF912C
:1014B00008958091680287FF05C040E284E050E013
:1014C000BE01EACF48E081E0FACF81E08093E000FE
:1014D00080E28093D8001092C9008FE19EE40197CA
:1014E000F1F700C0000087E090EBDC018093A002E0
:1014F0009093A102A093A202B093A30288E19CE082
:101500000FB6F894A895809360000FBE909360008A
:10151000FFCFCF93DF93C6E2D3E060E0CE010E941D
:101520004C232196C11584E0D807B9F7DF91CF91FC
:1015300008951F93CF93DF93122F8430E0F4663029
:10154000D0F44031C0F490E2699FE001112450E0F2
:10155000440F551FC40FD51F90EC899FC00DD11D9E
:101560001124632FCE0186960E944C23612FCE0159
:1015700087960E944C23DF91CF911F910895AF92DF
:10158000BF92CF92DF92EF92FF921F93CF93DF93A0
:101590008BEAC82E83E0D82ED0E07601C0E014C0DC
:1015A000F50125913491412F6C2F8D2F0E94990ABE
:1015B00082E0A80EB11C1F5F103191F780E2E80EA7
:1015C000F11CCF5FC63019F0570110E0E9CFDF5FA3
:1015D00080ECC80ED11CD43001F7DF91CF911F9160
:1015E000FF90EF90DF90CF90BF90AF900895CF9392
:1015F000C82F6FEF811163E282E290E00E944C23DA
:101600006FEFC11161E083E290E00E944C236FEF25
:10161000C11163E184E290E00E944C23CF910895D0
:1016200080E00E94F70A60E085E290E00E944C238F
:101630000E94BF0A0E94890A81E00E94F70A089569
:101640000F931F93CF93DF93843030F5663020F5EE
:10165000403110F520E2629F8001112450E0440FD8
:10166000551F040F151F30EC839F000D111D112411
:10167000C80186960E943E23C82FD0E0DC2FCC27DD
:10168000C80187960E943E239E01282BC901DF9145
:10169000CF911F910F91089590E080E0F8CF462FF1
:1016A000763040F4603130F4843020F4672F0E94AB
:1016B000200B089590E080E00895CF92DF92FF9292
:1016C0000F931F93CF93DF936C0100919C02809145
:1016D0002E02082BC7E0D0E010E0FC2EC8010C2E33
:1016E00002C0959587950A94E2F780FD0CC021977A
:1016F000A0F7F12C8F2DDF91CF911F910F91FF90CB
:10170000DF90CF900895B6018C2F0E944F0B0E945E
:101710002107019761F3EECFCF93DF93EC010E9495
:101720005D0BBE010E944F0B0E942107DF91CF91FC
:101730000895FC0183819481892B29F08081918116
:1017400089238F3F51F480E00895843FE1F717C06B
:10175000883EA8F0813FB9F712C0808191810E9434
:101760008C0B92959F70963099F358F4925F9F700E
:10177000923048F7803F19F040F7883E20F781E02B
:1017800008959A5FF4CF82E290E00E943E23833274
:1017900089F483E290E00E943E23813059F484E290
:1017A00090E00E943E2391E0833109F090E0892F80
:1017B0008170089580E0FCCF8091520283FF7EC04B
:1017C00088E893E00E940804809158021F928F934A
:1017D00083E893E09F938F930E94A10481E893E0B4
:1017E0000E94080480915902282F082E000C330B08
:1017F0003F938F938EE793E09F938F930E94A10472
:101800008CE793E00E94080480915A02282F082E4A
:10181000000C330B3F938F9389E793E09F938F9353
:101820000E94A10487E793E00E94080480915B0274
:10183000282F082E000C330B3F938F9384E793E0FF
:101840009F938F930E94A10482E793E00E94080473
:1018500080915C02282F082E000C330B3F938F934E
:101860008FE693E09F938F930E94A1048CE693E010
:101870000E940804809151021F928F9389E693E0A1
:101880009F938F930E94A10487E693E00E9408042F
:10189000809150021F928F9384E693E09F938F93E1
:1018A0000E94A10481E693E00E9408048DB79EB7D0
:1018B0004C960FB6F8949EBF0FBE8DBF0E942206B5
:1018C0009C019091590280915A02982B21F03093FB
:1018D00056022093550290915B0280915C02982BF6
:1018E00021F03093540220935302E0915F02F09173
:1018F0006002309749F082E0809357020480F581BE
:10190000E02D87E592E009950895662309F45DC00E
:101910008D3C41F40E94A706819580935A020E9453
:10192000DC0B08958E3C19F40E94A706F6CF8F3C7D
:1019300031F40E94A706819580935902F0CF803D33
:1019400019F40E94A706F8CF893D29F40E94850664
:1019500080935B02E4CF8A3D21F40E948506819545
:10196000F7CF8B3D31F40E948506819580935C0210
:10197000D6CF8C3D19F40E948506F8CF9FE2980FD0
:10198000983070F4815D990B21E030E001C0220FA6
:101990008A95EAF780915802822B80935802BFCF34
:1019A0008D3D31F480915002816080935002B7CF19
:1019B0008E3D21F4809150028260F7CF8F3D09F077
:1019C000AECF809150028460F0CF409159028D3C9F
:1019D00059F480915A0287FF0DC010925A024111AA
:1019E0000BC01092510208C08E3C81F480915A02C3
:1019F00018169CF3442381F080915B0290915C0265
:101A0000892B09F08CCF10924F0289CF8F3C49F47B
:101A100047FFF0CF1092590280915A028111ECCF0A
:101A2000E0CF803D19F41416ACF3E4CF90915B0243
:101A3000893D29F41916F4F610925B02DBCF8A3D3A
:101A400019F497FFD7CFF8CF90915C028B3D29F422
:101A500097FFD0CF10925C02CDCF8C3D19F41916B0
:101A6000CCF3C8CF9FE2980F983090F4815D990B2A
:101A700021E030E0B90102C0660F771F8A95E2F7D6
:101A8000CB01809590915802892380935802B2CF60
:101A90008D3D31F4809150028E7F80935002AACF09
:101AA0008E3D21F4809150028D7FF7CF8F3D09F05C
:101AB000A1CF809150028B7FF0CF909108019923A4
:101AC00059F19091680297FF27C0E82FE695E695B7
:101AD000E695EE3180F4F0E0E258FE4F282F2770B3
:101AE00081E090E001C0880F2A95EAF78095928105
:101AF0008923828308959091520290FF19C01F920A
:101B00008F9387ED92E09F938F930E94A1040F9093
:101B10000F900F900F900895E0E8F1E091918913F4
:101B200003C0DF0111971C9291E0E638F907B1F785
:101B3000089590910801992349F19091680297FFC7
:101B400025C0E82FE695E695E695EE3170F4F0E0D5
:101B5000E258FE4F877021E030E001C0220F8A95E5
:101B6000EAF78281822B828308959091520290FF3E
:101B70001EC01F928F9389EB92E09F938F930E94D8
:101B8000A1040F900F900F900F900895A0E8B1E07E
:101B9000EFEF90E02D91821751F0EF3F19F42111F2
:101BA00001C0E92F9F5F9630A9F7EF3F09F4089530
:101BB0000E2E000CFF0BE258FE4FD5CF0F931F9354
:101BC000CF93DF9380911D0290911C02892B80930B
:101BD0007E0190911E029923B1F0892B80937E01A2
:101BE00080910801882309F46FC08091680287FF03
:101BF0006BC08EE1E0E8F1E090E0815008F066C053
:101C000091110E94B00840E250E06CEF71E08EE765
:101C100091E00E948023892B09F451C080E2EEE715
:101C2000F1E0ACEFB1E001900D928A95E1F7E0911F
:101C30005F02F0916002309709F441C08091080181
:101C4000882359F08091680287FF07C080917E0148
:101C500080937F0186E080937E010280F381E02DF6
:101C60008EE791E009958091520282FF28C080FFA3
:101C700004C082E193E00E940804D0E0C0E00CE0E0
:101C800013E08091520280FF0EC0FE01E258FE4F29
:101C900080811F928F931F930F930E94A1040F9036
:101CA0000F900F900F902196C830D10551F7809179
:101CB000520280FF04C08AE093E00E940804DF9192
:101CC000CF911F910F91089586E094CF2191222307
:101CD00009F493CF9F5F91CF882321F00E94B6082B
:101CE0000E94DE0D0895882339F090911D02982BF3
:101CF00090931D020E94DE0D0895882309F456C0BA
:101D0000823879F40E94780681FF50C089E30E94EE
:101D1000990D0E94DE0D89E30E945D0D0E94DE0D8B
:101D20000895833859F40E94780680FF3FC083E508
:101D30000E94990D0E94DE0D83E5EECF843859F4A0
:101D40000E94780682FF32C087E40E94990D0E94AB
:101D5000DE0D87E4E1CF9CEF980F913AE8F290E234
:101D6000980F983050F4877091E001C0990F8A95D0
:101D7000EAF7892F0E94B608D1CF9BE5980F9330E0
:101D800028F490E080E00E945306089598E5980FAB
:101D9000993128F490E080E00E942E06089593E3A4
:101DA000980F933118F460E00E94850C0895CF934A
:101DB000C82F8823C9F08238C9F40E94780681FDB3
:101DC00013C089E30E94990D0E94DE0D2FEF87EE6C
:101DD00093E0215080409040E1F700C0000089E38B
:101DE0000E945D0D0E94DE0DCF9108958338A1F40D
:101DF0000E94780680FDF8CF83E50E94990D0E942D
:101E0000DE0D2FEF81EE94E0215080409040E1F70D
:101E100000C0000083E5E4CF8438A1F40E94780676
:101E200082FDE2CF87E40E94990D0E94DE0D2FEF24
:101E300081EE94E0215080409040E1F700C0000026
:101E400087E4CECF8CEF8C0F813A88F58091080122
:101E5000882301F18091680287FF1CC0EC2FE69572
:101E6000E695E695F0E0E258FE4F828190E04C2F37
:101E7000477021E030E002C0220F331F4A95E2F79D
:101E800082239323892B79F08C2F0E945D0D0E9471
:101E9000DE0D09C0E0E8F1E08191C817A9F321E067
:101EA000E638F207C9F78C2F0E94990D9BCF80E28C
:101EB0008C0F883068F4C77021E030E001C0220F39
:101EC000CA95EAF780911D02822B80931D028ACF6A
:101ED000EBE5EC0FE33040F4F0E0E75FFE4F80818C
:101EE00090E00E94530680CFE8E5EC0FE93150F412
:101EF000F0E0EE0FFF1FE45FFE4F808191810E94B2
:101F00002E0672CF83E38C0F833108F06DCF61E032
:101F10008C2F0E94850C68CF1F93CF93DF93182FCF
:101F2000D0E0C0E0893311F4C0E5D0E0812F0E94F9
:101F3000D70E209739F4812F0E947D0EDF91CF912B
:101F40001F9108958FE99FE00197F1F700C000000D
:101F50002197EFCF0F931F93CF93DF93C62FD42FEB
:101F6000022FFC0182818823A9F060939F020E94C6
:101F7000220690939E0280939D02C77081E001C06B
:101F8000880FCA95EAF70E94730EDF91CF911F91D7
:101F90000F91089580919F02681332C080919D0235
:101FA00090919E020E940706883C910548F510E238
:101FB0001D0FCD17B9F080E28C0F883040F4C77048
:101FC00081E001C0880FCA95EAF70E946C0E1830B4
:101FD00048F481E09D2F977001C0880F9A95EAF729
:101FE0000E94730E802F0E948C0F183070F6D770ED
:101FF00081E001C0880FDA95EAF70E946C0EC5CF28
:10200000C77081E001C0880FCA95EAF7F6CFCF9379
:10201000C82F8091690282FB992790F99C17F9F0EB
:10202000C0FB82F980936902609168027091690235
:1020300084E090E00E946A2382E00E944D09809132
:10204000520280FF0CC01F92CF9385EF92E09F93C6
:102050008F930E94A1040F900F900F900F90CF913B
:10206000089510921D0280910801E0E8F1E08823B4
:1020700029F18091680287FF21C08EE1DF011D9266
:102080008A95E9F790E080E00E94530690E080E0B6
:102090000E942E0610921C020E94DE0D86E0E7E5EB
:1020A000F2E0DF011D928A95E9F710925102109239
:1020B0004F02109250020E94DC0B089586E0DECFA2
:1020C000AAE2B0E0E6E6F0E10C94022384E992E0B3
:1020D0002091F100DC012D93CD01B2E08C399B07FA
:1020E000B9F780919502833009F472C0B8F4813059
:1020F00009F449C0823009F4B3C08091E80083FF3D
:1021000091C280919402909195029A3008F08AC20F
:10211000E92FF0E0E157FC4D0C94E6228A3009F4F7
:102120008EC08B3009F471C0893039F780919402E8
:10213000813219F78091980290919902009711F0DD
:102140000297D9F68091E800877F8093E80080911C
:10215000E80082FF38C09091F3008091F20002976E
:1021600031F48091F100813011F0863021F48091BA
:10217000F10080936F028091E8008B778093E800F4
:102180000E94FA04BACF80919402813A09F0B5CF47
:102190008091E800877F8093E80080919802909179
:1021A0009902892B61F460E280E792E070E00E947E
:1021B000A6058091E8008B778093E8009ECF60E0D1
:1021C00090E080E0F3CF809192028111C0CF95CF53
:1021D00080919402813A09F090CF80919802909179
:1021E0009902892B09F089CF8091E800877F80933D
:1021F000E8008091E80080FFFCCF80910801809387
:10220000F1008091E8008E77B9CF809194028132FD
:1022100009F073CF8091980290919902892B09F06F
:102220006CCF8091E800877F8093E8000E94FA04D9
:1022300080919602809308010E9431105ECF8091B8
:102240009402813209F059CF8091E800877F809312
:10225000E8000E94FA048091970280936E024DCFAD
:1022600080919402813A09F048CF8091E800877FFD
:102270008093E8008091E80080FFFCCF80916E029F
:10228000BECF803899F0823809F0CCC18091980295
:102290008F70873008F0C6C18093E9008091EB0011
:1022A00085FB882780F91092E90006C08091900292
:1022B00090919102911182609091E800977F9093A4
:1022C000E8008093F1001092F1008091E8008E7791
:1022D000A5C1882309F493C1823009F0A3C180917C
:1022E0009602811196C1809198028F702FEF280F6E
:1022F000263008F097C18093E9002091EB0020FF81
:1023000088C1933031F48091EB0080628093EB00C0
:1023100080C19091EB0090619093EB0021E030E060
:1023200001C0220F8A95EAF72093EA001092EA0092
:102330008091EB008860EACF811174C11091960200
:102340001F778091E3008078812B8093E300809158
:10235000E800877F8093E8000E94FA048091E800FB
:1023600080FFFCCF8091E30080688093E30082E0EF
:10237000111183E08093920255C18058823008F099
:1023800051C120919602309197022C3DE3E03E0727
:10239000A1F583E08A838AE289834FB7F894DE014E
:1023A000139620E03EE051E2E32FF0E05093570017
:1023B000E49120FF03C0E295EF703F5FEF708E2F36
:1023C00090E0EA30C0F0C7968D939D932F5F243143
:1023D00059F74FBF8091E800877F8093E8006AE259
:1023E00070E0CE0101960E94A6058091E8008B77EF
:1023F0008093E80017C1C096E7CF80919802909132
:102400009902432F55274330510509F44AC078F506
:102410004130510509F47AC08BE790E0EFEBF6E02C
:102420004230510509F0FEC02091E800277F20933B
:10243000E80020919A0230919B028217930708F4DA
:102440009C0140E02115310509F065C0411163C0D0
:102450008091E80082FDC9CF80919202882329F201
:10246000853019F28091E80083FFF2CFBECF413270
:10247000510509F43CC04232510509F0D3C0843003
:10248000910508F0CFC0FC01EE0FFF1FE459FE4F8D
:102490000190F081E02D88599E4FDC018C9190E0F5
:1024A0001AC0332721303105D1F02115310561F0F3
:1024B0002230310509F0B6C0ECE4F7E0E4918E2F4C
:1024C00090E0ECE4F7E007C0E0E8F7E0E4918E2F5D
:1024D00090E0E0E8F7E0009709F4A4C0A5CFE4E6B7
:1024E000F7E0E4918E2F90E0E4E6F7E0F4CF84305B
:1024F000910508F097C0880F991FFC01EC58FE4F1A
:102500000190F081E02D89E090E08ECF82E190E0B3
:10251000EAE3F7E089CF80919202882309F465CF3E
:10252000853009F462CF8091E80083FD5ECF809111
:10253000E80082FD8DCF8091E80080FF83CF9091ED
:10254000F3008091F2002115310519F088309105D2
:1025500050F041E0089709F040E08091E8008E7764
:102560008093E8006FCF44914093F1003196215061
:1025700031090196E8CF803809F054C08091E80015
:10258000877F8093E800809193028093F1009DCE35
:10259000811148C010919602123008F043C080911A
:1025A000E800877F8093E800109393020E94FA046A
:1025B000112311F084E005C08091E30087FDFACF7C
:1025C00081E08093920242E061EC81E00E94190573
:1025D00042E261EC84E00E94190542E261EC82E093
:1025E0000E94190542E260EC83E00E94190542E274
:1025F00061EC85E00E9419058091920213C08091E0
:102600009602813079F481E0933009F080E0809384
:1026100091021092E9008091E800877F8093E800A2
:102620000E94FA048091E80083FF0AC08091E800CC
:10263000877F8093E8008091EB0080628093EB00BD
:10264000AA96E3E00C941E230E9431102FEF84E33E
:102650009CE0215080409040E1F700C0000088E1FC
:102660009CE00FB6F894A895809360000FBE9093FD
:102670006000FFCFA8E0B0E0E0E4F3E10C94F522C5
:102680008C01DC0113968D919C911497892B39F064
:102690008C9111969C9189238F3F09F0E1C4289673
:1026A000E0E10C9411230E945D0BF82E682F8981C4
:1026B0009A810E94FB0869817A818F2D0E944F0BBD
:1026C0007C01F8018281882309F4A8C49701225073
:1026D00037472031310508F0B7C48FEF93E00E94EF
:1026E0003E23811185C0EA94EA9466E2A62E63E057
:1026F000B62EE11047C0FE01339686E0DF011D9241
:102700008A95E9F75AE0452E7501BFEFEB1AFB0AEF
:10271000C5010E943E2389831A82882309F468C078
:10272000813009F078C06501E2E0CE0ED11CC7010E
:102730000E943E238A83882309F45AC09FEF980F92
:10274000933070F5F3E0AF0EB11CC6010E943E233A
:102750008B83882309F44CC01C82DE0111967D0115
:10276000F7012081222381F2213009F094C0918168
:102770008281913009F051C0F2E0EF0EF11C0E940D
:102780008C0F52C0A114F4E0BF0691F1C5010E9464
:102790003E23811101C0EA942FEFA21AB20AA9CFF9
:1027A00056018430D1F642E0E42EF12C56012FEF91
:1027B000A21AB20AC6010E943E23E1E0F0E0EC0F4B
:1027C000FD1FEE0DFF1D8083882391F08C3741F4AF
:1027D000E2E0F0E0EC0FFD1FEE0DFF1D1082BDCF1B
:1027E0003FEFE31AF30A650187E0E816F104F1F61A
:1027F0008091FB01877009F452CFD80112968C9119
:10280000882309F44CCF8091690282FF48CF82E08F
:102810000E944D0944CF5701A0CF923049F422E0E5
:10282000E20EF11C0E94D70EEFEFEE1AFE0A98CFCF
:10283000933031F432E0E30EF11C0E947D0EF4CFB0
:10284000943021F08FEFE81AF80AEECF92E0E90E0B
:10285000F11C30E020E0B7016F5F7F4FD701119688
:102860004C918053990B8A30910550F021503109D9
:10287000D8F2EFE9FFE03197F1F700C00000F6CFA2
:10288000429EF001439EF00D11249C012E0F3F1F2C
:10289000842F7B01E0CFE22FF0E0EA5EFD4F549001
:1028A000822F86958695869590E0FC01EA5FFD4F24
:1028B00064902770712C022E02C0759467940A945C
:1028C000E2F731E063227724FC01EA50FE4F849066
:1028D000912C022E02C0959487940A94E2F7A1E00D
:1028E0008A229924FC01EA51FE4FC490D12C02C0E7
:1028F000D594C7942A95E2F7B1E0CB22DD24611488
:10290000710419F081EE0E94D70E8114910419F020
:1029100086EE0E94D70E852D0E948C0F81149104A3
:1029200019F086EE0E947D0E6114710419F081EE9B
:102930000E947D0EC114D10409F476CF8CE21FCF22
:1029400081E00E9469090E94340952CF81E00E940F
:102950004009F9CF82E0FBCF26E241EE61EEC801EB
:102960000E94AA0F45CF27E245EE65EEF8CF26E29A
:1029700041EE60EEF4CF27E245EE64EEF0CF26E2C2
:1029800041EE62EEECCF27E245EE66EEE8CF28E2BC
:1029900041E0EBCF882309F48BC310929F02C7015B
:1029A0009057839708F06FC384E090E00E9446231D
:1029B0009093690280936802F701E150F047E23298
:1029C000F10520F4E756FC4D0C94E6228091680254
:1029D00081608093680295C08091690288608093CD
:1029E00069028FC0809168028260F3CF8091680293
:1029F0008460EFCF809168028860EBCF809169029C
:102A00008160EDCF809169028260E9CF8091680298
:102A10008061DFCF809168028062DBCF80916802A5
:102A20008064D7CF0E943110809168028068D1CF36
:102A3000809168028C60CDCF809169028360CFCF96
:102A4000809168028E7FC5CF80916902877FC7CF52
:102A5000809168028D7FBDCF809168028B7FB9CF56
:102A600080916802877FB5CF809169028E7FB7CF52
:102A7000809169028D7FB3CF809168028F7EA9CF4C
:102A8000809168028F7DA5CF809168028F7BA1CF56
:102A90000E943110809168028F779BCF80916802ED
:102AA000837F97CF809169028C7F99CF8091680254
:102AB00082FB992790F921E0922790FB82F990FB05
:102AC00083F987CF80916902982F909591708E7FBE
:102AD000892B90FB81F983CF90916802892F8F7B9E
:102AE00096FF806476CF0E94311090916802892F02
:102AF00097FB87F980586DCF61E08EE090E00E94EF
:102B00004C23609168027091690284E090E00E9419
:102B10006A230E9431106CCE60E0EFCF9091680282
:102B2000892F8F7E94FF806154CF90916802892F06
:102B30008E7F90FF81604DCF90916902892F877FB2
:102B400093FF88604CCF85E3AEC285E3BCC2909111
:102B50005202892F8E7F90FF81608093520280FF06
:102B600005C088EA92E00E94080442CE86E992E01D
:102B7000FACF6FEF7FEF90E080E00E946A230E941F
:102B800024138091690282FB882780F991E08927CC
:102B90000E940710F8018281E080F180882309F407
:102BA00046C0C7010E945D0BD82E682FC7010E9446
:102BB000FB08B7018D2D0E944F0B0E9421077C015D
:102BC000882ED8011296DC9012971596BC90B2947C
:102BD0003FE0B3228091FB018770C1F0AD2CDD2076
:102BE000B1F08F2D807F803421F080E28E0D88300F
:102BF00068F08091690282FF09C082E00E944D095D
:102C00008091FB018770AA24A3948111A12C9F2C91
:102C100092942FE09222BBE0B91508F477C0E92D19
:102C2000F0E0E554FC4D0C94E62280E0B1CFC70102
:102C30000E94C708D82EBDCFEF2DEF70CE2E8F2D5E
:102C4000807F19F0C29490EFC922DD20B9F0CC202A
:102C500069F080E28E0D883010F0811009C08091FB
:102C60001D02C82AC0921D020E94DE0D8E2D4CC08E
:102C700080911C02C82AC0921C02F6CF8E2D0E94A1
:102C80007D0ECC2009F442C080E28E0D883010F019
:102C9000811004C08C2D0E94B60806C0C09480919B
:102CA0001C02C822C0921C020E94DE0D2FC0FF2D04
:102CB000FF70CF2E8F2D807F803219F0C29480EF6D
:102CC000C822882089F021E0821609F46EC0DD2038
:102CD00009F478C0BB2009F46EC0F801858180FF3B
:102CE000C5CF8F70858367C02091690222FD36C0F1
:102CF000DD2071F1CC2039F080911D02C82AC092EC
:102D00001D020E94DE0D80E00E94D70EA92DA85062
:102D1000BB0B149720F40E9478060E947809AA2021
:102D200009F4BDCC8091FB0180FDB9CCF801128281
:102D30008595859585950E946909C8010E943A1379
:102D40008091FB018595859585950E944009A7CCCA
:102D500080E00E947D0ECC20C9F29CCFDD2099F04E
:102D600090911E02892F8C29B11003C00E94730E0E
:102D7000CDCF31E0B312FACF22FFC8CF981731F28E
:102D800080931E02C3CFB11006C00E94B0088C2DE4
:102D90000E946C0EBBCF81E0B81609F4B7CF8C2D22
:102DA0000E946C0E0E94B008B1CFDD2031F095E09A
:102DB0009B1508F4ABCF8C2DD9CFA4E0AB1508F44C
:102DC000A5CFE5CFBB2019F3F9E38F1209C02FEF90
:102DD00037EE83E0215030408040E1F700C0000032
:102DE0008E2D0E947D0E92CF8F2D869586958370B5
:102DF00061F0813009F08ACFC7019370D11002C011
:102E000080E090E00E942E0681CFC7019370D11020
:102E100002C080E090E00E94530678CF6D2D8E2D89
:102E20000E94850C73CF8F2D837091F5D1106ECFDA
:102E30004E2D429546954770440F440F8E2D8F704E
:102E4000042E01C0880F0A94EAF72E2D2071E4FEAB
:102E500007C02FE030E001C0220F4A95EAF7209525
:102E60003F2D369536953370323069F050F44091ED
:102E70002E02313029F0822B84230E94750946CF1F
:102E8000842B822BFACF282B80912E028227F5CF1C
:102E90008695DD2011F08F2D8170882309F436CFBF
:102EA0004E2D429546954770440F440F8E2D8F70DE
:102EB000042E01C0880F0A94EAF72E2D2071E4FE3B
:102EC00007C02FE030E001C0220F4A95EAF72095B5
:102ED0003F2D369536953370323069F050F440917D
:102EE0009C02313029F0822B84230E9431090ECFBD
:102EF000842B822BFACF282B80919C028227F5CF3E
:102F00009F2D9F70F92EDD2029F0892F0E946909DD
:102F10008E2D2CCF8E2D0E946C0E8F2D0E9440097D
:102F2000F5CE8E2DA2EF8A16B1F1A81570F0B0EF94
:102F30008B16D1F0E1EF8E1691F0DD2009F45EC022
:102F4000B11094CE8F2D8F712AC0F3EF8F1651F1EF
:102F500024EF8212F2CF8091690282FD2FC08F2D63
:102F60008F71DD20D9F21BC0DD2081F034E03B15EC
:102F700008F4CCCE2F2D2F7181E090E001C0880F96
:102F80002A95EAF790919C028927AFCF85E08B15AF
:102F900008F4BCCEEFCF8F2D8F71D110BFCF0E9420
:102FA0006909B4CE80E0DD2009F49FCF9F2D9F7189
:102FB00081E001C0880F9A95EAF797CFDD2099F05C
:102FC0009F2D9F71F92E892F0E94690980916902B6
:102FD00082FF07C0A8E0FA9EC0011124836080939D
:102FE000FB018F2DDCCF81E00E944D09B1E0BB15C4
:102FF00008F08CCE82E00E944D0988CEBB2059F0AB
:10300000893309F0EDCEEFEFF7EE23E0E150F04029
:103010002040E1F7E3CE8F2D8F7180CFE114F7E7E9
:10302000FF0609F493CC21E0E21627E7F20609F443
:1030300091CCF701E851FC47E730F10508F0AACC44
:10304000E953FC4D0C94E622E11437E7F30609F44A
:1030500077CC91E0E91697E7F90659F782E071CC51
:1030600085E0F801DE01119601900D928A95E1F755
:10307000D80112962C9189819A81211114CB0E943A
:10308000C708F82E18CBB6E1EB16BCE7FB06F1F447
:1030900080911D028A7A91E009F490E090939E015C
:1030A000811151CD89E20E94990D0E94DE0DA0CBC5
:1030B000E6E1EE16ECE7FE0609F06CCD80919E018C
:1030C000811143CD89E20E945D0DEFCFF3E0EF1651
:1030D000FCE7FF0609F44DCDD0F431E0E3163CE700
:1030E000F30609F44CCD08F032CDE1149CE7F90663
:1030F00009F050CD0E943110FFEF24E33CE0F15085
:1031000020403040E1F700C000000E94650AABE5B6
:10311000EA16ACE7FA0609F488CDBCE5EB16BCE785
:10312000FB0609F42ECDEAE5EE16ECE7FE0609F003
:1031300031CD81E02DCD1F93CF93DF938091C801D6
:10314000807F09F049C08091C501882309F444C0FB
:103150008091FA01D091C9016091C3017091C401BD
:10316000A091C601B091C701C62FC72316E0D8179A
:1031700099F190E0109711F0CF3F19F40196877004
:10318000F6CF189F9001199F300D1124F901E653D5
:10319000FE4F41814713F2CF40814613EFCF42816A
:1031A0004111ECCF438154814A1B5B0B483C5105D4
:1031B00028F78091C8018F7080618093C801F90160
:1031C000E153FE4F80818F708061808383EC91E0BA
:1031D0000E943A130E94BD08DF91CF911F9108957C
:1031E000A1E1B0E0E6EFF8E10C94FB228C0185E070
:1031F000F801DE011D9601900D928A95E1F7F80124
:10320000E28083ECA82E81E0B82E6091C601709117
:10321000C7016115710509F426C19091C301409160
:10322000C401892F84238F3F09F41DC1208131817E
:10323000C380D480F090C501F601E61BF70BFF2098
:1032400009F4DCC08091C801582F507FE83CF1059B
:1032500008F09FC051116BC0FE2C431314C0921391
:1032600012C0E11010C08F7080618093C801C50149
:103270000E943A138091C801F80185838F2D6196D1
:10328000EAE00C941723C114D10429F0822F832380
:103290008F3F09F003C180E0F82FF170DF2E80FF2F
:1032A0003CC08091FA014091C90156E0841315C0D9
:1032B0002D873E878D859E850E948C0B292F229518
:1032C0002F702230F0F0243018F59F70F1F0F801E3
:1032D0009581907FD1F4D12C1EC090E0589FF001D1
:1032E000599FF00D1124E653FE4F6181361306C03D
:1032F0006081261303C06281E6120FC001968770B9
:10330000D5CF9F7011F0882331F3805E883018F399
:10331000C8010E943A13FD2CB1CFEE2009F4AECFC4
:103320008091C80181608093C801F12CA7CF43131D
:1033300006C0921304C0F801EE2009F479C0C80158
:103340000E94990B882309F1EE20F9F08091C801C1
:10335000803270F02091C3013091C40138872F83EF
:103360001986DB86CA868C87CE0107960E943A139F
:1033700086E0F801A3ECB1E001900D928A95E1F7A7
:103380000E949B18FF24F39479CFC8010E943A133E
:10339000F9CF51110AC083EC91E00E943A1386E004
:1033A000F50111928A95E9F7C0CF43130FC092132C
:1033B0000DC0E1100BC0F8018583C8010E943A13CB
:1033C00086E0F50111928A95E9F758CFC8010E946D
:1033D000990B8823D1F2EE20C1F28091C80180328E
:1033E00038F22091C3013091C4013A8329831B82B2
:1033F000DD82CC828E83CE010196B8CFE83CF10508
:10340000F8F6FE2CEE2009F243131FC092131DC0E4
:103410008091C80180FD10C0982F907F69F0F8015D
:103420008583903F31F0982F907F905F8F70892B2C
:103430008583C8010E943A1386E0F801A3ECB1E04D
:1034400001900D928A95E1F719CFC8010E94990B5E
:1034500081118ECF8091C80181608093C801C8011D
:103460000E943A130BCFEE2009F48FCFC8010E94BF
:10347000990BF82E882309F488CF86E0F801A3EC95
:10348000B1E001900D928A95E1F78091C30190918E
:10349000C4010E948C0B0E949B18F0CE81E08E2507
:1034A000FBCEA7E1B0E0E7E5FAE10C9402234B8BF9
:1034B0005C8B6D8B7E8B8F8B611110921C021A8A34
:1034C000198A85E0FE017396DE011D9601900D922A
:1034D0008A95E1F786E0FE013D96DE0117960190A0
:1034E0000D928A95E1F7CE0107960E94F018882385
:1034F00059F016E08091FA019091C901891343C0F7
:103500006796E3E00C941E2386E0FE013796DE0109
:10351000119601900D928A95E1F78A859B85892BFA
:1035200041F38F81988589238F3F19F32091C90139
:1035300030E0C9010196877099274091FA01481738
:10354000190671F40E9431101092C9011092FA010B
:1035500086E0E3ECF1E0DF011D928A95E9F7C9CF3F
:1035600096E0929FD001939FB00D1124A653BE4FB9
:10357000FE01319601900D929A95E1F78093C90171
:103580000E94BD08B6CF819FC001112486539E4F73
:103590000E94F018882309F4B3CF8091FA0190E0DB
:1035A0000196877099278093FA01A4CFA1E1B0E03A
:1035B000ECEDFAE10C94F7228E010F5F1F4F8CE0C7
:1035C000F80111928A95E9F79EE3E92E91E0F92E30
:1035D000680166246394712C34E5832E31E0932EC8
:1035E000F70181917F018F3F09F445C0F894E82FDE
:1035F000E295EF70F0E021A18F70A30102C0440FAB
:10360000551F8A95E2F7CA01922F982B91A392A198
:103610008095892382A3789400C0E4E4F1E021E05E
:1036200030E0B12CA12C41914F3F09F467C0A42F89
:10363000A295AF70B0E090968C9190E04F7002C070
:10364000959587954A95E2F780FD58C0C901A82A4B
:10365000B92A220F331F8E169F0629F7F7013197DB
:1036600080818F3F11F00E94C70650EA5A95F1F70A
:10367000F601B182A082F2E0CF0ED11C44E4E41640
:1036800041E0F40609F0ACCF4CE050E0B80182E232
:1036900092E00E948023892BA1F18CE0F801A2E244
:1036A000B2E001900D928A95E1F781E080932102CA
:1036B0000E9422069093200280931F0280911F0295
:1036C000909120020E9407060597F8F04CE050E028
:1036D00062E272E083E492E00E94802310E0892B92
:1036E00051F08CE0E2E2F2E0A3E4B2E001900D924E
:1036F0008A95E1F711E01092210208C090E080E085
:10370000A6CF809121028111D9CF10E080913D0296
:103710008823A9F08695C1F083E08D8785E08E87A8
:103720001F860E9422068160782F998B888B1092C9
:103730003D024D855E856F8589890E94511A812FD2
:103740006196EEE00C94132385E08D87E8CF1F92FD
:103750000F920FB60F9211242F933F934F935F93C5
:103760006F937F938F939F93AF93BF93CF93DF9389
:10377000EF93FF93D091E900DF708091EC00C82FA8
:10378000C17080FDC0E81092E9008091F000877F51
:103790008093F00078940E9460101092E90080916C
:1037A000F00088608093F000CD2BCF70C093E900CB
:1037B000FF91EF91DF91CF91BF91AF919F918F9149
:1037C0007F916F915F914F913F912F910F900FBE1D
:1037D0000F901F9018951F920F920FB60F92112401
:1037E0002F933F934F935F936F937F938F939F9309
:1037F000AF93BF93EF93FF938091E10082FF15C0D9
:103800008091E20082FF11C08091E1008B7F809364
:10381000E10020916C022F5F822F62E30E94C6229A
:10382000992309F4C0C020936C028091DA0080FFD4
:1038300028C08091D80080FF24C08091DA008E7F5C
:103840008093DA008091D90080FFE3C080E189BDD8
:1038500082E189BD09B400FEFDCF81E08093920230
:103860008BEA96E00E94080480916D02811109C0E4
:103870000E94AA040E944B058091E200846080931C
:10388000E2008091E10080FF1BC08091E20080FF98
:1038900017C08091E2008E7F8093E2008091E20069
:1038A00080618093E2008091D80080628093D8008C
:1038B00019BC85E08093920283EB96E00E94080495
:1038C0008091E10084FF2FC08091E20084FF2BC033
:1038D00080E189BD82E189BD89B5982F917080FF13
:1038E000FBCF8091D8008F7D8093D8008091E1003C
:1038F0008F7E8093E1008091E2008F7E8093E200D2
:103900008091E20081608093E2008091930288239D
:1039100009F489C084E08093920287EB96E00E94CC
:103920000804809192028091E10083FF2BC0809176
:10393000E20083FF27C08091E100877F8093E10050
:1039400082E080939202109293028091E1008E7F38
:103950008093E1008091E2008E7F8093E20080916D
:10396000E20080618093E20042E060E080E00E943B
:1039700019058091F00088608093F0008BEB96E051
:103980000E940804FF91EF91BF91AF919F918F9199
:103990007F916F915F914F913F912F910F900FBE4B
:1039A0000F901F90189510926C0280916B028823E3
:1039B00009F43BCF809192028430C1F49091E900E8
:1039C0009F702091EC00822F817020FD80E8892B70
:1039D00095E09093E9009091EB0090FF04C09091E6
:1039E000EE0097FD08C08F708093E90010926B0283
:1039F0001CCF1092F1009091E80095FDFACF9091C4
:103A0000E80090FFF0CF9091E8009E779093E80057
:103A1000EACF19BC109292028FEA96E00E94080445
:103A200010926D022ECF8091E30087FD93E090937A
:103A3000920273CF78941F921FB61F9211248F9316
:103A40009F93AF93BF938091640290916502A09180
:103A50006602B09167020196A11DB11D80936402B8
:103A600090936502A0936602B0936702BF91AF91F5
:103A70009F918F911F901FBE1F9018951F921FB688
:103A80001F9211248F939F93AF93BF9380916302F2
:103A9000811113C08091640290916502A091660229
:103AA000B09167024196A11DB11D8093640290936D
:103AB0006502A0936602B0936702BF91AF919F9198
:103AC0008F911F901FBE1F901895CDB7DEB7AA9794
:103AD0000FB6F894DEBF0FBECDBF85B7806885BF37
:103AE00085B7806885BF84B7877F84BF0FB6F89499
:103AF000A8958091600088618093600010926000BA
:103B00000FBE80E890E00FB6F89480936100909328
:103B100061000FBE86E999E090937D0180937C015E
:103B20000E94AA040E944B058091E2008460809369
:103B3000E2007894809192028823A1F01091E9002C
:103B40001F709091EC00892F817090FD80E8182BF8
:103B50001092E9008091E80083FD0E9460101F70C0
:103B60001093E90082E084BD93E095BD9AEF97BD84
:103B700080936E000E94C30B811102C00E94100B43
:103B800081E08093400222982A9A2198299A8FE80E
:103B900091E00197F1F700C000002091400241E45C
:103BA00052E0FA018E2F841B821708F4BEC00EE388
:103BB00011E084E4E82E81E0F82ED8018D918D018A
:103BC0008F3F11F00E94C706E016F106B1F704E43A
:103BD00011E0B4E5EB2EB1E0FB2EF80181918F01ED
:103BE0008F3F11F00E94C706E016F106B1F78CE096
:103BF000E3E4F2E0DF01282F1D922A95E9F7E2E2E3
:103C0000F2E0DF011D928A95E9F790E080E00E94E2
:103C10004623873E9E4F21F40E94C30B811161C051
:103C200067EE7EEF90E080E00E946A2360E082E031
:103C300090E00E944C2360E083E090E00E944C23DF
:103C400010922E0260E074E184E090E00E946A230A
:103C500060E086E090E00E944C236FEF87E090E008
:103C60000E944C2340E050E0BA0188E090E00E94BE
:103C70005E2360E08DE090E00E944C2340E050E045
:103C8000BA0188E190E00E945E2360E087E190E065
:103C90000E944C2340E050E0BA018CE190E00E9489
:103CA0005E2370E060E080E290E00E946A2340E0E2
:103CB00050E0BA0188E190E00E945E2380E00E941B
:103CC000F70A0E94100B40E050E0BA018FE090E04C
:103CD0000E945E2340E050E0BA0183E190E00E9440
:103CE0005E2382E090E00E943E238093520284E0B3
:103CF00090E00E94462390936902809368020E949C
:103D0000D61AEFE3FCE93197F1F700C000000E94FA
:103D1000D61A8091430280FF14C06FEF7FEF90E0CE
:103D200080E00E946A230E94650A83B182FB882793
:103D300080F9199904C090E0892B819333CF92E0E8
:103D4000FBCF83E090E00E943E230E947509269AF3
:103D50002E9A80E091E09093600280935F0222248B
:103D600023945524539480919202853089F484E2FF
:103D700093E00E94080400E112E1809192028530F4
:103D800009F463C00E9431100E9478060E947809ED
:103D90000E94D61AA1E3AA2EA2E0BA2E03E412E0F2
:103DA000D801F501219131918D919D914DE352E022
:103DB0004E175F0709F487C02817390799F38091D8
:103DC000520281FDA7C0F3E46F2EF2E07F2E412C5A
:103DD000D301ED90FD903D01F501C190D1905F01BF
:103DE000CE14DF0459F1CE24DF24312C88248394AF
:103DF000912CC60188219921892BB1F03EA24FA2B6
:103E000021E0C70188219921892B09F420E028A706
:103E10000E9422068160782F9AA789A74EA15FA1F0
:103E200068A58AA50E94511A3394880C991CF0E168
:103E30003F12DFCFF5013297F182E082439426E012
:103E40004212C6CF0E94160660C080919202843052
:103E500039F180E00E9478091092630228E130E095
:103E600040E40FB6F894A895209360000FBE4093ED
:103E7000600083B7817F846083BF83B7816083BF25
:103E80007894889583B78E7F83BF0FB6F894A895F2
:103E900080916000886180936000109260000FBE86
:103EA00080919102882309F468CF0E94D61AE3E436
:103EB000F2E081919191892B09F03FC352E0EF34F8
:103EC000F507B9F75ACF2817390709F078CF0E94BC
:103ED00022067C0180912F0290913002E816F906AB
:103EE000A1F08FEF89A38AA31BA20E942206816002
:103EF000782F9DA38CA349A15AA16BA18DA10E94EB
:103F0000511AF0923002E0922F02B12CA12C82E0E3
:103F1000982E6DC088E393E00E94080463E4C62EE7
:103F200062E0D62EF12CE12C73E3872E73E0972EFE
:103F3000EAE26E2EE3E07E2EFF92EF929F928F9246
:103F40000E94A10480E393E00E940804D6018C91B2
:103F500011963C90B2E0CB0ED11C0E947E09482EF7
:103F6000832D0E947E094F928F937F926F920E94C1
:103F7000A10488E293E00E940804EFEFEE1AFE0A23
:103F80000FB6F894DEBF0FBECDBF36E0E316F104E6
:103F900099F619CFCB2CD12C83B182FB882780F9DD
:103FA000199956C190E0982BF601EF5BFD4F808187
:103FB000282F23709217D1F0880F880F892B8083C8
:103FC000E82FEF70F0E0E85AFE4FA601415C5D4F2C
:103FD0007A019081DA012C91920F9C9391113AC150
:103FE0008370833009F482C180E0A82AB394809161
:103FF0004002B81678F2A1100E94160686E0E7E5A6
:10400000F2E0DE01119601900D928A95E1F710928F
:10401000590210925A0210925B0210925C028B813C
:104020009C81892B09F44AC08091550290915602D7
:104030000E9407069C0190915102992309F4A1C2A4
:1040400025313105D8F19F3F19F09F5F90935102C0
:10405000FB80FF2059F00E94A7069FEF1F140CF46D
:1040600091E0899F802D112480935902FC80FF20CC
:1040700059F00E94A7069FEF1F140CF491E0899F4E
:10408000802D112480935A02309159023323B1F0CC
:1040900020915A02222391F045EB3403C0011124F0
:1040A000992309F425C19093590255EB25039001FA
:1040B0001124332309F41FC130935A028D819E814C
:1040C000892B09F44AC080915302909154020E94B6
:1040D00007069C0190914F02992309F44DC22135A6
:1040E0003105D8F19F3F19F09F5F90934F02FD80FB
:1040F000FF2059F00E9485069FEF1F140CF491E0F9
:10410000899F802D112480935B02FE80FF2059F04F
:104110000E9485069FEF1F140CF491E0899F802D6B
:10412000112480935C0230915B023323B1F0209123
:104130005C02222391F045EB3403C0011124992342
:1041400009F4DCC090935B0255EB25039001112428
:10415000332309F4D6C030935C0246E050E0BE0140
:104160006F5F7F4F87E592E00E948023892B61F487
:104170008091590290915A02892B90915B02892B70
:1041800090915C02892B11F00E94DC0B86E0FE010D
:104190003196A7E5B2E001900D928A95E1F70E9471
:1041A0007806F82E80914202F81649F1F092420208
:1041B0000E9416068091520282FF1EC080FF1CC022
:1041C00086E593E00E9408048091520280FF14C0AB
:1041D0001F92FF9281E593E09F938F930E94A10429
:1041E000809152020F900F900F900F9080FF04C0AB
:1041F0008FE493E00E9408048F2D0E94780980913B
:104200009202843009F0AFCD83E08093E900809181
:10421000E80082FFA8CD8091E80090E085FF06C00D
:104220000E94C904882309F46FC091E08091E800DE
:104230008B778093E800992309F495CDE981E150CB
:10424000E33108F08AC0F0E0E253FC4D0C94E62222
:1042500092E0A9CE19160CF049C0F601E25CFD4FC0
:1042600080818F5F8083F601EE0FFF1FEA5AFE4FB9
:10427000808191819A8389835B820E94220681607A
:10428000782F9D838C83F601E35CFD4F90824981FA
:104290005A816B818D810E94511A81E0F7019081D2
:1042A00097FF21C0F601E25CFD4F80818150808341
:1042B000F601EE0FFF1FEC5AFE4F808191819A8329
:1042C00089835B820E9422068160782F9D838C8384
:1042D000F601E35CFD4F208249815A816B818D811B
:1042E0000E94511A81E0D7011C927FCE80E0D6CF88
:1042F00050925902DACE50925A02E0CE50925B02AE
:1043000023CF50925C0229CF90E2C92ED12CCE014E
:1043100001967C018091E80085FD0AC08091E8004B
:104320008B778093E8000E94C904882399F37DCF9E
:104330008091F100D7018D937D01B1E0CB1AD108B6
:1043400049F773CF1A828BE08B831BC08A8182303E
:1043500009F409C128F4813061F08FEF898311C01D
:104360008330C1F08430C9F71B821C821D821E82FB
:1043700008C00E9416060E94EC226B837C838D830A
:104380009E8340E250E0BE016F5F7F4F82E00E945B
:10439000F809E9CCFE013196D8018C9111969C91D7
:1043A0000E5F1F4F928383833296B2E00F341B0758
:1043B00099F7E7CF8A81823019F0853011F3CDCF9C
:1043C0006B817C818D819E810E94EC2285E290E050
:1043D0000E944C23D6CF4C816B818A810E94200B96
:1043E0009827892798279E838D83CBCF2D813E8167
:1043F0003227232732274C816B818A810E94990AB8
:10440000C0CF0E94BF0ABDCF80E18A83BACF1A8293
:104410008AED9ACF0A811B81102701271027FE0100
:1044200031966F01EC809F012E0D311D7901C8017D
:104430008A5D9C4FCE14DF0409F4A3CF0A3D110519
:1044400058F40E943E23D60114968C930F5F1F4FA1
:10445000FFEFCF1ADF0AEBCFF6011482F7CF0A8104
:104460001B811027012710279E012F5F3F4F6901F5
:10447000EC80E00EF12EF11CC8018A5D9C4FE01625
:10448000F10609F47ECF0A3D110528F4D6011496F1
:104490006C910E944C23BFEFCB1ADB0A0F5F1F4FBA
:1044A000EBCF0E94890A6DCF84E0AFCF0A811B81D8
:1044B000102701271027FE0131966F01EC809F0124
:1044C0002E0D311D7901C8018696EC14FD0409F406
:1044D00058CF011533E0130758F40E943E23D6014C
:1044E00014968C930F5F1F4FFFEFCF1ADF0AEBCFAD
:1044F000F6011482F7CF0A811B81102701271027AC
:104500009E012F5F3F4F6901EC80E00EF12EF11C00
:10451000C8018696E016F10609F433CF011533E0A1
:10452000130728F4D60114966C910E944C23BFEF18
:10453000CB1ADB0A0F5F1F4FEBCF09BD19BD09B4C2
:1045400000FEFDCF8091D8008F7D8093D8008091B0
:10455000E00082608093E0008091E00081FDFCCF6C
:104560000E9431100ACC85E290E00E943E231B821B
:104570001C821D828E8305CF2B30310508F0B4CD0F
:10458000ECCD2B30310508F060CD98CD991B79E04A
:1045900004C0991F961708F0961B881F7A95C9F7D3
:1045A0008095089597FB072E16F4009407D077FDA9
:1045B00009D00E942A2307FC05D03EF490958195EE
:1045C0009F4F0895709561957F4F0895EE0FFF1FDF
:1045D0000590F491E02D099469279627692778279B
:1045E0008727782708952F923F924F925F926F927C
:1045F0007F928F929F92AF92BF92CF92DF92EF9273
:10460000FF920F931F93CF93DF93CDB7DEB7CA1BF3
:10461000DB0B0FB6F894DEBF0FBECDBF09942A881E
:10462000398848885F846E847D848C849B84AA84C6
:10463000B984C884DF80EE80FD800C811B81AA8153
:10464000B981CE0FD11D0FB6F894DEBF0FBECDBF1E
:10465000ED010895AA1BBB1B51E107C0AA1FBB1F98
:10466000A617B70710F0A61BB70B881F991F5A95FE
:10467000A9F780959095BC01CD010895F999FECFD9
:1046800092BD81BDF89A992780B50895A8E1B0E060
:1046900042E050E00C947223262FF999FECF92BD90
:1046A00081BDF89A019700B4021639F01FBA20BDF7
:1046B0000FB6F894FA9AF99A0FBE08950396272F29
:1046C0000E944D230E944C23252F0E944D23242F0E
:1046D0000C944D230196272F0E944D230C944C23BC
:1046E000DC01CB01FC01F999FECF06C0F2BDE1BDB2
:1046F000F89A319600B40D9241505040B8F70895A1
:10470000FB01DC0104C08D910190801921F441501E
:104710005040C8F7881B990B0895F894FFCF4111BA
:1047200069111213691112139C11BD111213BB12DE
:10473000C812201595152815F214F6142C15FA1424
:1047400030153C1506158E150A1540150E15441525
:104750006C1512154815731518154E155615FE14BF
:104760003415021538151C15521562157C158C155B
:10477000EC1424159C151C161C1657165716F41607
:104780000E17861686161317801791179117B714F0
:10479000BB14AC14B314BF14C314C714A221A621B4
:1047A000DA21EB21F6210122AD21AD21AD21AD2190
:1047B000AD21042207220A222F22512254225622FE
:0247C0007B225A
:1047C2000406410A3A0A330A01818283E200E900BF
:1047D200EA00B500B600B700CD008301CC008A0123
:1047E20092019401210223022402250226022702B9
:1047F2002A02B300B4006F0070009F01CB01306742
:1048020092F7919093959496973435C6F0F1F4F51A
:10481200F66637330505030500FF0100010000FFBE
:10482200FF0000010001FF004022B622A601840120
:0C483200CE00AC00D106EA060A072307FE
:00000001FF
