:100000000C94F0030C9428040C9428040C942804F9
:100010000C9428040C9428040C9428040C942804B0
:100020000C9428040C9428040C94A1180C945D18CA
:100030000C94AF220C9428040C9428040C942804EB
:100040000C9428040C9428040C9428040C94280480
:100050000C9428040C947A190C9428040C94280409
:100060000C9428040C9428040C9428040C94280460
:100070000C9428040C9428040C9428040C94280450
:100080000C9428040C9428040C9428040C94280440
:100090000C9428040C9428040C9428040C94280430
:1000A0000C9428040C9428040C942804050109805D
:1000B000A101850319012AB700150126B700950192
:1000C00075108100C0050C0901A101850419012AE0
:1000D000A002150126A002950175108100C005013E
:1000E0000906A1018506050719E029E71500250184
:1000F0009508750181020507190029EF15002501F2
:1001000095F075018102050819012905950575010C
:100110009102950175039101C00660FF0961A1017B
:100120000962150026FF00952075088102096315F4
:100130000026FF00952075089102C005010906A15F
:1001400001050719E029E7150025019508750181CA
:10015000029501750881010507190029FF15002680
:10016000FF00950675088100050819012905950508
:1001700075019102950175039101C0000000000016
:10018000000000000000000000000000000000006F
:100190000000000000000000000000000000007EE1
:1001A0000F00D4FFFFFFC700000078000000000030
:1001B0000000002A2B2800000000000000000000C2
:1001C00000000000000029000000002C1E34202147
:1001D0002224342627252E362D3738271E1F20218E
:1001E00022232425263333362E37381F04050607ED
:1001F00008090A0B0C0D0E0F101112131415161707
:1002000018191A1B1C1D2F3130232D350405060724
:1002100008090A0B0C0D0E0F1011121314151617E6
:1002200018191A1B1C1D2F3130354C00010101011A
:1002300001010101010202020202020202020303A1
:100240000303030303030404040404040405050571
:100250000505060606060607070707070808080833
:10026000090909090A0A0A0B0B0B0C0C0C0D0D0DE0
:100270000E0E0E0F0F0F1010111111121213131476
:1002800014151516161717181819191A1A1B1B1CEE
:100290001D1D1E1E1F202021222223242425262648
:1002A000272829292A2B2C2D2D2E2F30313232337D
:1002B0003435363738393A3B3C3D3E3F4041424386
:1002C0004445464748494A4C4D4E4F50515354556A
:1002D0005658595A5B5D5E5F616264656668696B1A
:1002E0006C6D6F7072737577787A7B7D7E80828398
:1002F0008587888A8C8E8F91939596989A9C9EA0DC
:10030000A2A3A5A7A9ABADAFB1B3B5B7BABCBEC0E8
:10031000C2C4C6C9CBCDCFD1D4D6D8DBDDDFE2E4B1
:10032000E7E9EBEEF0F3F5F8FAFDFF00200010002E
:1003300022021200230313002404140025051500D3
:100340002606160027071700280818002909190093
:100350002A0A1A002B0B1B002C0C1C002D0D1D0053
:100360002E0E1E002F0F1F00503040005131410053
:100370005232420053334300543444005535450053
:100380005636460057374700583848005939490013
:100390005A3A4A005B3B4B005C3C4C005D3D4D00D3
:1003A0005F3F4F0080607000816171008262720067
:1003B00083637300846474008565750086667600C7
:1003C0008767770088687800896979008A6A7A0087
:1003D0008B6B7B008C6C7C008D6D7D008F6F7F0044
:1003E000B090A000B191A100B292A200B393A3007B
:1003F000B494A400B595A500B696A600B797A7003B
:10040000B898A800B999A900BA9AAA00BB9BAB00FA
:10041000BD9DAD00BF9FAF0120001001220212015F
:1004200023031301240414012505150126061601D2
:100430002707170128081801290919012A0A1A0192
:100440002B0B1B012D0D1D012E0E1E0150304001E6
:100450005131410152324201563646015A3A4A015F
:100460005B3B4B015C3C4C015D3D4D015E3E4E01F2
:100470005F3F4F29000000BE00BD000000000028C3
:10048000782778AC00AE00AB00A800AA00A9004C09
:100490000035001E001F0020002100220023002440
:1004A000002500260027002D002E002A004B002BDF
:1004B0000014001A000800150017001C0018000C9A
:1004C00000120013002F00300031004E00390004EC
:1004D000001600070009000A000B000D000E000FB7
:1004E0000033003400520028004A00E10000001DE3
:1004F000001B00060019000500110010003600372F
:100500000038005100E500A800E000E200E3000030
:1005100000000000002C00000000000000E70021A7
:1005200052E40050004F00010000003A003B003C44
:10053000003D003E003F00400041004200430044B7
:10054000004500010001000100010001000100015F
:100550000001000100010001000100010001000193
:1005600000010020782178277823782578297801E0
:100570000001000100010001000100010001000173
:1005800000010022782878247826782A7801000152
:100590000001000100010001000100010001000153
:1005A00000000001000100010001000100137001C2
:1005B000000100010001000100010020780100019C
:1005C0000001000000000000000100000000000029
:1005D0000001000100010001000100290000003AB3
:1005E000003B003C003D003E003F00400041004217
:1005F000004300440045004C0035001E001F002051
:100600000021002200230024002500260027002DC1
:10061000002E002A004B002B0014001A00080015C1
:100620000017001C0018000C00120013002F0030EF
:100630000031004E00390004001600070009000ACE
:10064000000B000D000E000F003300340052002894
:10065000004A00E10000001D001B00060019000513
:1006600000110010003600370038005100E500A8E6
:1006700000E000E300E2000000000000002C0000A9
:100680000000000000E6002352E40050004F00018B
:10069000000000BE00BD000100010028782778ACF2
:1006A00000AE00AB00A800AA00A9000100010001F3
:1006B0000001000100010001000100010001000132
:1006C00000010001000100010001002078217827CD
:1006D00078237825782978010001000100010001C4
:1006E00000010001000100010001002278287824A7
:1006F0007826782A7801000100010001000100013C
:1007000000010001000100010000000100010001E2
:10071000000100010013700100010001000100014F
:10072000000100207801000100010000000000002D
:1007300000010000000000000001000100010001B4
:10074000000100A900AA0027782878A900AA00279C
:1007500078287809025B00030100A0FA0904000070
:1007600001030101000921110100012240000705D8
:1007700081030800010904010002030000000921AF
:100780001101000122220007058203200001070554
:1007900003032000010904020001030000000921F5
:1007A00011010001226D00070584032000011201E0
:1007B00000020000000834340101000101020001C0
:1007C000060351003100000012034B006500790060
:1007D0006300680072006F006E00000004030904EB
:1007E00011241FBECFEFDAE0DEBFCDBF04B603FE9B
:1007F00018C08091DC059091DD05A091DE05B091D7
:10080000DF058730904BA740B04B59F41092DC05C0
:100810001092DD051092DE051092DF05E0E0F8E3AE
:10082000099525E0A6EEB2E001C01D92AC3DB207ED
:10083000E1F712E0A0E0B1E0EEE2F5E502C00590DC
:100840000D92A63EB107D9F70E94D6220C941C2A1D
:100850000C940000E8EDF0E080818E7F80831092A0
:10086000E2001092DA001092E100A0EEB0E08C916C
:1008700081608C9380818F77808319BCA7EDB0E075
:100880008C918E7F8C9380818F7E808310929F05C8
:1008900008952091E4003091E50095E6A9012091AA
:1008A000EC00822F817020FF06C08091E80080FF5D
:1008B00006C080E008952091E80022FD1AC08091D2
:1008C000C405882389F0853089F08091EB0085FD8F
:1008D0000FC02091E4003091E50042175307F9F270
:1008E0009150E1F684E0089582E0089583E0089550
:1008F00081E008958091C60587FF13C08091E800CC
:1009000082FF06C08091E8008B778093E80004C0E6
:100910008091C4058111F2CF08958091C405882388
:10092000D9F38091E80080FFF8CF8091E8008E77BE
:10093000ECCF982F9093E900242F762F50E0891761
:1009400031F07091EC002091ED005091F00021FD0C
:1009500007C09F5F973071F78093E90081E00895A9
:100960003091EB003E7F3093EB003091ED003D7F06
:100970003093ED003091EB0031603093EB007093D9
:10098000EC002093ED005093F0002091EE0027FD45
:10099000E0CF80E00895B0E0A0E0E1EDF4E00C9459
:1009A000A728C8EDD0E088818F7E8883E7EDF0E04E
:1009B00080818160808384E082BF81E080939F0595
:1009C00088818E7F888302EE10E0F80110821092F9
:1009D000DA0081EEC82ED12CF601108288818F7743
:1009E000888388818068888388818F7D888319BC0B
:1009F0001092C4051092C5051092C3051092C2054D
:100A000090EEE92EF12CF70180818B7F8083888125
:100A10008160888342E060E080E00E949904F601F2
:100A200080818E7F8083F8018081816080838081D6
:100A300088608083F70180818E7F808388818061D8
:100A40008883CDB7DEB7E8E00C94C328FC01809121
:100A5000CC059091CD0586179707A0F0611571051B
:100A600029F49091E8009E779093E80090E061155A
:100A7000710551F4911108C08091E80082FF34C0E3
:100A800080E00895BC01F2CF8091C4058823C1F1B4
:100A90008530C1F18091E80083FD30C08091E8008D
:100AA00082FDEACF8091E80080FFE1CF8091F300E2
:100AB0002091F200382F6115710519F028303105A9
:100AC00058F091E02830310509F090E02091E800DD
:100AD0002E772093E800CBCF81918093F100615075
:100AE00071092F5F3F4FE7CF8091C405882341F004
:100AF000853041F08091E80083FFBECF81E008950A
:100B000082E0089583E0089508958091A1050895F5
:100B10002FB7F8946091990570919A0580919B0583
:100B200090919C052FBF0895209111012223C9F0B7
:100B300020919D0527FF15C0E62FE695E695E695E1
:100B4000EE31D8F4E80FF92FF11D677021E030E0A5
:100B500001C0220F6A95EAF720958281282322831B
:100B60000895FC01329608962191621303C0DF01BB
:100B700011971C92E817F907B9F708952091110110
:100B80002223C1F020919D0527FF14C0E62FE69592
:100B9000E695E695EE31F8F4E80FF92FF11D677050
:100BA00021E030E001C0220F6A95EAF78281822BB2
:100BB00082830895FC0132962FEF30E04191641753
:100BC00051F02F3F19F4411101C0232F3F5F363000
:100BD000A9F72F3F09F40895820F911D27FD9A95DB
:100BE000FC0162830895A3E0B0E0E9EFF5E00C9426
:100BF000AD28209196053091970528173907A1F067
:100C00009093970580939605E0919405F091950552
:100C1000309751F024E029839B838A830680F781F3
:100C2000E02DCE01019609952396E2E00C94C928A7
:100C3000A3E0B0E0EEE1F6E00C94AD28209192053F
:100C40003091930528173907A1F09093930580936D
:100C50009205E0919405F0919505309751F023E0CD
:100C600029839B838A830680F781E02DCE0101963C
:100C700009952396E2E00C94C928E0919405F0913F
:100C80009505309729F00190F081E02D09950895A0
:100C900080E00895FA01811101C0FB0109950895D2
:100CA000E2EDF5E0248130E1231B08F420E0248309
:100CB0008091C90381608093C9030895E2EDF5E056
:100CC000248130E1230F08F42FEF24838091C9039E
:100CD00081608093C90308959091D205937059F073
:100CE0008093D3056093D4054093D5058091C903C3
:100CF000822B8093C9030895E2EDF5E0438120E162
:100D0000421B08F440E0818121E0628190E00E9472
:100D10006C060895E2EDF5E0438120E1420F08F40E
:100D20004FEF818121E0628190E00E946C0608957E
:100D3000E2EDF5E0628120E1621B08F460E0818170
:100D400021E0438190E00E946C060895E2EDF5E019
:100D5000628120E1620F08F46FEF818121E043811D
:100D600090E00E946C060895E2EDF5E0818121E0BB
:100D7000438162818850990B0E946C060895E2EDD0
:100D8000F5E0818190E021E04381628108960E9434
:100D90006C0608959091D205937061F081110BC09B
:100DA00094609093D205109210018091C903862B14
:100DB0008093C9030895803110F09C63F2CF880FAF
:100DC000880F982BEECF8091D2058695869581501D
:100DD00009F48FE061E00E94CA0608958091D2056F
:100DE000869586958F5F803108F081E061E00E94F2
:100DF000CA0608950F931F93522F10E0F801EE0FCB
:100E0000FF1FE051FE4FA081A052BB0B9D0152037A
:100E1000F001539FF00D1124000F111FD801A151B3
:100E2000BE4F0C910057110B40039001419F300DB4
:100E300011242E0F3F1F37FF02C0215C3F4F96E069
:100E4000359527959A95E1F7620F1F910F910895B7
:100E50000F931F93522F10E0F801EE0FFF1FE05188
:100E6000FE4FA081A052BB0B9D015203F001539F86
:100E7000F00D1124000F111FD801A151BE4F0C918C
:100E80000057110B40039001419F300D11242E0F8C
:100E90003F1F37FF02C021583F4F220F232F221F31
:100EA000330B620F1F910F910895EF920F93972FBD
:100EB00023E0029FB0011124759567956E0D792F7F
:100EC0000F91EF900895322F50E0FA01EE0FFF1FBF
:100ED000E051FE4F9081905297FD9195440F551F20
:100EE000FA01E151FE4F2081231B330B290F311DE5
:100EF00097FD3A95620F0895E42FF0E0EE0FFF1F83
:100F0000E051FE4F6081621B0895E42FF0E0EE0F88
:100F1000FF1FE151FE4F6081621B0895622F08950B
:100F20000E94F71008950E94BD100895FC019B01D6
:100F3000009729F480E077FF2BC080E80895AC018A
:100F400097FF04C044275527481B590BB901640F6C
:100F5000751F37FD10C0241B350BC901A5E0880F94
:100F6000991FAA95E1F70E94D42880E2861BF7FF1B
:100F70000FC081950895CB0165E0880F991F6A9590
:100F8000E1F7BA01621B730B0E94D42880E6EECF12
:100F90000895EF920F93CF93DF93D72FC82FC901F6
:100FA0000E19BA010E949607602F681B7D2F8C2FA7
:100FB000DF91CF910F91EF9008950F93CF93DF932F
:100FC000D72FC82FC901BA010E949607682F600F5A
:100FD0007D2F8C2FDF91CF910F910895EF920F937A
:100FE0001F93CF93DF93D62FC72F182FC9010E1948
:100FF000010FBA010E949607081B202F219F212D67
:101000001124822F6D2F7C2FDF91CF911F910F9193
:10101000EF900895E82F86FDE0952E2F2F7086FD26
:101020002F5FE695E695E695E670F0E0E258FE4F14
:101030009181929F902D212D112492959F70229540
:10104000207F922B2081920F87FD919580E8890F58
:10105000089540910C0150910D0125E038E0429F28
:10106000C001439F900D529F900D1124875E994CB3
:1010700090930D0180930C01890F0895AC0182308B
:10108000910508F408959FEF413E8EE1580740F422
:101090009A0195E0369527959A95E1F798E0920F99
:1010A00061E0E62FE90FFF27FF1F9F013595279588
:1010B000822F229FF001239FF00DF00D11244E1777
:1010C0005F0738F49FEF920F961758F78FEF860F50
:1010D00008952F3FE9F361E0620FF6CF0F93CF93AE
:1010E000DF93D72FC82F47FD419588E390E0841BFD
:1010F000910947FD9395889FB001899F700D700DF0
:101100001124229FC001239F900D900D1124860F62
:10111000971F0E943E08982F990F890F682F600F24
:101120007D2F8C2FDF91CF910F91089530E020E03B
:10113000869F212D969F200D311D1124C9010895F0
:10114000AF92BF92CF92DF92FF920F931F93CF93F4
:10115000DF93362F472FE82FF0E0E55DFD4F71114B
:101160000FC0E4918E2F2E2F6E2F722FDF91CF9113
:101170001F910F91FF90DF90CF90BF90AF90089597
:10118000C72FD0E02491F22E022F10E056E0659F89
:10119000C0011124EFEFF0E0BF010E948928832FE6
:1011A00090E0880F991F35E5369FD001379FB00D2D
:1011B00011248A1B9B0B982F990F980F6F01CC1A43
:1011C000DD0AC09ED001C19EB00DD09EB00D11248D
:1011D0008B2F499FA0011124452F55276F01C41A59
:1011E000D50AC09EA001C19E500DD09E500D112465
:1011F0005F01A91AB108AC9E6001AD9ED00CBC9EE7
:10120000D00C1124CD2CDD24EC19FD09E09FE00168
:10121000E19FD00DF09FD00D1124ED2F62307105AC
:10122000A1F050F46115710509F49ECF613071058C
:1012300081F0EB2F852F98CF6430710569F080F035
:101240006630710509F490CFF4CFE22F2B2F8D2F4C
:101250008BCFE22F252F88CFEB2F822F2D2F84CFFE
:101260002B2F8F2DE52F80CFB0E0A0E0EAE3F9E04F
:101270000C94A4286C01C091120181E1C89FC02D7B
:10128000112411E11C0FB12E133510F032E5B32EED
:101290006091D605669566958091CE059091CF05B3
:1012A0000E949608F82E80E48F0D0E940A0890E8AC
:1012B000A92EA80E8F2D0E940A0820E8922E980EC3
:1012C000D0E0CB1548F081E0123508F080E0CDB7D2
:1012D000DEB7EBE00C94C028FE01ED56FD4F808197
:1012E000909113018923A1F06091D3057091D405E9
:1012F0008091D505EF2C0C2F292D4A2DF60109954B
:101300000E94A008462F282F672FCE010E94930726
:101310002196D7CFB0E0A0E0E0E9F9E00C94A22854
:101320005C01C091120181E1C89FC02D112411E11F
:101330001C0FF12E133510F032E5F32E6091D60517
:1013400066958091CE059091CF050E949608782EE3
:10135000D0E0CF1548F081E0123508F080E0CDB73D
:10136000DEB7EDE00C94BE28FE01ED56FD4F808106
:10137000909113018923C9F1CE01880F991F8B56D3
:101380009E4FFC01E65AFF4F2081422F4057550BDC
:101390006A01855A9F4FFC018081282F2052330B10
:1013A0004901449F9001459F300D300D1124889CC8
:1013B000C001899C900D900D1124820F931F0E94F3
:1013C0003E08082F6091D3057091D4058091D50512
:1013D000E72C9401A601F50109950E94A008462F6B
:1013E000282F672FCE010E9493072196B2CFB0E03D
:1013F000A0E0EDEFF9E00C94A7287C01C091120168
:1014000081E1C89FC02D112411E11C0FD12E13358D
:1014100010F032E5D32E6091D60566958091CE0509
:101420009091CF050E949608C82ED0E0CD1548F0C7
:1014300081E0123508F080E0CDB7DEB7E8E00C942B
:10144000C328FE01ED56FD4F808190911301892341
:1014500011F1CE01880F991F8B569E4FFC01E55A62
:10146000FF4F20812052330B865A9F4FFC01408151
:101470004057550B6091D3057091D4058091D505E7
:101480000C2DF70109950E94A008462F282F672FE1
:10149000CE010E9493072196C9CFB0E0A0E0E3E51A
:1014A000FAE00C94A8287C01C091120181E1C89F48
:1014B000C02D112411E11C0F012F133508F002E596
:1014C0006091D6056695669521E0620F08F46FEF8E
:1014D0008091CE059091CF050E949608D82ED0E03D
:1014E000C01748F081E0123508F080E0CDB7DEB7D4
:1014F000E7E00C94C428FE01ED56FD4F80819091E9
:101500001301892391F06091D3057091D4058091E6
:10151000D5052D2D4C2FF70109950E94A008462FC7
:10152000282F672FCE010E9493072196D9CF80E004
:101530000895F894E82FE295EF70F0E031A1282F9C
:101540002F7081E090E001C0880F2A95EAF7982F6C
:101550009095932391A392A1892B82A378940895C7
:1015600090919D0592FF06C0282F28712830F9F42C
:10157000877F846093FF06C0282F28712831F1F4FB
:10158000877E846120919E0520FF06C0382F387128
:101590003830D9F4877F816021FF06C0282F287159
:1015A0002831D1F4877E816194FD877E0895282FAC
:1015B00024712430F9F68B7F8860DCCF282F2471CA
:1015C000243101F78B7E8861DDCF382F31713130C6
:1015D00019F78E7F8860E0CF282F2171213121F704
:1015E0008E7E8861E1CFCF93DF93EC018238910545
:1015F000B9F108F041C08133910509F49FC050F55D
:101600008932910509F48FC08A9709F49EC0C115EB
:1016100020E5D20708F0BDC0C11530E4D30708F0BB
:101620000AC1C03ED10508F0A5C0CD3CD10508F0E7
:1016300000C1C83AD10508F08FC0C53AD10508F0FD
:10164000F0C0C130D10539F1209729F1C430D1055E
:1016500010F546C08533910509F460C0C997B9F605
:1016600080919D05837009F044C180919E0583FFA0
:1016700012C0C9E2D0E00FC0833E9105A1F178F419
:10168000803E910509F1823E910509F0C0CF80911D
:101690009D0582FD21C0CE01DF91CF910895863E48
:1016A000910561F1873E910571F1843E910509F044
:1016B000AECF80919E0581FFEECF80919D05C7EE54
:1016C000D0E084FD0DC0E7CF80919D0580FD33C043
:1016D00090919E0590FFDFCFC3EED0E084FFDBCF7B
:1016E000D0E0C0E0D8CF80919D0582FDFFC09091F1
:1016F0009E0590FDFEC084FFCECFF2CF80919D0568
:1017000083FDDDCFC8CF80919D0583FDF5C090910D
:101710009E0591FFF0CFC4EED0E0BDCF80919D0536
:1017200085FFB9CFA6CF80919D0585FDE8C080914A
:101730009E0583FFB0CFC9E3D0E0ADCF80919D057A
:1017400086FFA9CFCAE2D0E0A6CF80919D0586FF93
:10175000A2CFC1E3D0E09FCFC13CD10508F6C85A63
:10176000D0E0CC0FDD1FC55EDE4F0990D881C02DC3
:10177000D46491CFC11540E2D40708F0AAC0C115C6
:1017800081E0D80708F087CFC83ED10508F483CFA1
:10179000A7CFC03622E5D20718F5C03432E5D3070B
:1017A00008F053C0C03242E5D40708F047C0C11565
:1017B00082E5D80708F47FC02C2F2695269540E2B5
:1017C000249F900111248C2F8370C1E0D0E002C0CF
:1017D000CC0FDD1F8A95E2F7C22BD32BDD685BCFE0
:1017E000C03A22E5D20760F4C03832E5D30708F4E6
:1017F00041C0CF71D0E0DC2FCC27C46FD06A4BCF73
:10180000C03C42E5D40708F44AC0C03E82E5D80790
:1018100008F066CFDC2FCC27CC27DF71C06FD06AF1
:101820003ACFC55AD0E0C85EDE4FC881D0E0D06460
:1018300032CFD06530CFDF70D06A2DCFCF71D0E0FE
:10184000DC2FCC27C16FD06A26CF2C2F269526956A
:10185000277080E2289F900111248C2F8370C1E0B3
:10186000D0E002C0CC0FDD1F8A95E2F7C22BD32B4C
:10187000DC6811CF2C2F26952695277040E2249FF7
:10188000900111248C2F8370C1E0D0E002C0CC0FF6
:10189000DD1F8A95E2F7C22BD32BDA68FCCE8C2FA2
:1018A0008F710E94B00AC82FD0E0DC2FCC27CC2744
:1018B000DF71D062F0CE8C2F8F710E94B00A35E0BC
:1018C000D695C7953A95E1F7CF709C2FEC01D0697A
:1018D000E2CE8D2F8F710E94B00A90E0982F88275A
:1018E00088279F719C012C2BE901E3CFC2EED0E049
:1018F000D2CEC0EED0E0CFCEC6EED0E0CCCEC5E3A7
:10190000D0E0C9CE80918B03811110928B03089592
:10191000809590918A03982390938A0308958091EB
:10192000670390913603981301C008958F5F877005
:10193000FACFA82FA77023E0969587952A95E1F70F
:10194000FC01EE0FFF1FE80FF91FE60FF71F50E035
:1019500040E080E0219130E00A2E02C036952795C4
:101960000A94E2F721703327042E01C0220F0A9453
:10197000EAF7822B4F5F5F4F4330510559F70895C7
:10198000292F963068F48F3090F490E06CE073E08B
:101990003FE0239F800D911D11240E94990C089512
:1019A0002C5F223020F469E073E090E0F6CF80E015
:1019B0000895262F277091E001C0990F2A95EAF724
:1019C00023E0769567952A95E1F7FB01EE0FFF1F5F
:1019D000E60FF71FE40FF51F50E040E0682F70E0BE
:1019E0008191DF0111979B01042E02C03695279546
:1019F0000A94E2F7217021952827292328272C9380
:101A00004F5F5F4F4330510559F70895282F862FB8
:101A1000963070F42F3058F4622F70E02FE0929FD0
:101A2000600D711D11244CE053E00E94D90C089503
:101A30009C5F9230E0F7622F70E049E053E0F5CF11
:101A40008093DB0508958091DB05982F9670963082
:101A500021F488600E94200D0895877FFBCF21E04C
:101A600030E001C0220F8A95EAF720958091DB05CE
:101A700082230E94200D0895909168038095892308
:101A800080936803282F277091F4282F082E000CCC
:101A9000330B9217130659F090919E0592FF07C0E1
:101AA0008595859585950E942F0D10926803089560
:101AB00021E030E001C0220F8A95EAF78091DB0532
:101AC000822B0E94200D089580938C0308950F931C
:101AD0001F93CF93DF938B01EA019091C40594305B
:101AE00061F58093E9008FEF9091E800815095FDBA
:101AF00006C095ED9A95F1F700008111F5CF809120
:101B0000E80085FF1AC00E944904811111C080912C
:101B1000E80085FD06C08091E8008E778093E8009C
:101B2000F2CFF80181918F018093F100219779F72D
:101B30008091E8008E778093E800DF91CF911F912C
:101B40000F91089543E050E0BC0184E00E94670DCE
:101B50000895CF93DF93EC0180911101811111C0A1
:101B600048E050E0BE0181E00E94670D80E2FE0186
:101B7000A2EAB5E001900D928A95E1F7DF91CF914D
:101B8000089580919D0587FF05C040E284E050E004
:101B9000BE01EACF48E081E0FACF81E08093E00027
:101BA00080E28093D8001092C9008FE19EE40197F3
:101BB000F1F700C0000087E090EBDC018093DC05CA
:101BC0009093DD05A093DE05B093DF0588E19CE0EE
:101BD0000FB6F894A895809360000FBE90936000B4
:101BE000FFCFCF93DF93C6E0D3E060E0CE010E9449
:101BF00095292196C11584E0D807B9F7DF91CF91D7
:101C000008950F931F93CF93DF93142F022F8430E7
:101C1000F0F461111CC094E0899FE0011124CA50C6
:101C2000DD4F82E090E0442311F090E080E0632FEC
:101C30008C0F9D1F0E94952983E090E0112311F0E5
:101C400081E090E0602F8C0F9D1F0E949529DF910D
:101C5000CF911F910F9108951F93CF93DF93122F70
:101C60008430E0F46630D0F44F30C0F4C42FD0E0BC
:101C7000CC0FDD1F9EE1699FC00DD11D112494EB97
:101C8000899FC00DD11D1124632FCE0186960E941D
:101C90009529612FCE0187960E949529DF91CF91DA
:101CA0001F910895B0E0A0E0E8E5FEE00C94A228C2
:101CB00083E4C82E87E0D82E95E4A92E97E0B92EAC
:101CC00023E7E22E24E0F22EC0E08701D0E014C02A
:101CD000F40125913491472D6D2F8C2F0E942C0EED
:101CE00082E0880E911C73948FE07812F1CF025E2F
:101CF0001F4FDF5FD63019F04801712CE9CFF60194
:101D00002591349141E060E08C2F0E94010EF50195
:101D10002591349140E060E08C2F0E94010E84E018
:101D2000C80ED11CCF5F84E0A80EB11C84EBE80E76
:101D3000F11CC43009F0C9CFCDB7DEB7EDE00C948B
:101D4000BE28CF93C82F6FEF811163E282E290E04B
:101D50000E9495296FEFC11161E083E290E00E943B
:101D600095296FEFC11163E184E290E00E9495290B
:101D7000CF91089580E00E94A10E60E085E290E09E
:101D80000E9495290E94520E0E94F10D81E00E944E
:101D9000A10E0895FF920F931F93CF93DF93F42E1C
:101DA000843040F5611126C024E0829F8001112417
:101DB0000A501D4F82E090E0442311F090E080E053
:101DC000800F911F0E947729C82FD0E0DC2FCC27ED
:101DD00083E090E0FF2011F081E090E0800F911F00
:101DE0000E9477299E01282BC901CDB7DEB7E5E017
:101DF0000C94C62890E080E0F8CF0F931F93CF9308
:101E0000DF93843030F5663020F54F3010F5C42F65
:101E1000D0E0CC0FDD1F2EE1629FC00DD11D11243B
:101E200034EB839FC00DD11D1124CE0186960E94F4
:101E30007729082F10E0102F0027CE0187960E94E7
:101E400077299801282BC901DF91CF911F910F911C
:101E5000089590E080E0F8CF462F672F763038F471
:101E60004F3060F4843050F40E94FD0E08957D3FA1
:101E700041F4411103C041E0843048F090E080E03B
:101E800008957C3FD9F74111F9CF8430B8F760E06D
:101E90000E94CA0E0895CF92DF92FF920F931F9374
:101EA000CF93DF936C010091DB0580918C03082BAD
:101EB000C7E0D0E010E0FC2EC8010C2E02C09595C2
:101EC00087950A94E2F780FD0CC02197A0F7F12CCA
:101ED0008F2DDF91CF911F910F91FF90DF90CF90C9
:101EE0000895B6018C2F0E942C0F0E94F30A0197CF
:101EF00061F3EECFCF93DF93EC010E944B0FBE0155
:101F00000E942C0F0E94F30ADF91CF910895FC01EB
:101F100083819481892B29F08081918189238F3F4E
:101F200051F480E00895843FE1F717C0883EA8F09F
:101F3000813FB9F712C0808191810E947A0F9295FA
:101F40009F70963099F358F4925F9F70923048F7E3
:101F5000803F19F040F7883E20F781E008959A5FAE
:101F6000F4CF82E290E00E947729833289F483E201
:101F700090E00E947729813059F484E290E00E9439
:101F8000772991E0833109F090E0892F81700895DD
:101F900080E0FCCF6093CA034093CB0324E630E09B
:101FA00042E050E06AEC73E0880F0E94682821E06C
:101FB000892B09F020E0822F0895CF93DF93C82F5B
:101FC00045EC6EEF0E94CA0F40E06DEF8C2F0E942F
:101FD000CA0FD0E040E06D2F8C2F0E94CA0FDF5F48
:101FE000D831C1F745EC6EEF8C2F0E94CA0F41E04B
:101FF0006DEF8C2F0E94CA0FD0E040E06D2F8C2F28
:102000000E94CA0FDF5FD03CC1F745EC6EEF8C2F0A
:102010000E94CA0F43E06DEF8C2F0E94CA0F40E070
:102020006FE08C2F0E94CA0F40E060E18C2F0E946D
:10203000CA0F4FEF61E08C2F0E94CA0F41E060E0B1
:102040008C2F0E94CA0F8FE39CE90197F1F700C023
:102050000000DF91CF910895EF92FF920F931F93AD
:10206000CF93DF93E82EC62F062F10E000571A4FAC
:10207000F80180818823D1F045EC6EEF8E2D0E940F
:10208000CA0F40E06DEF8E2D0E94CA0FF8E1CF9F7E
:10209000E0011124C05ADA4FF12C49916F2D8E2D99
:1020A0000E94CA0FF39488E1F812F7CFF80110826A
:1020B000CDB7DEB7E6E00C94C528AF92BF92CF92C1
:1020C000DF92FF920F931F93CF93DF93F82EC62FCB
:1020D000C62ED12CC601825A9A4F5C01FC01808128
:1020E000882381F145EC6EEF8F2D0E94CA0F41E0ED
:1020F0006DEF8F2D0E94CA0FF0ECCF9FE0011124ED
:10210000C252DC4FFF0C10E000E00093CA03DE0176
:10211000A00FB11FEBECF3E08D91819383E0EB3DD9
:10212000F807D1F724E630E041E150E06AEC73E0D3
:102130008F2D0E946828892B89F4005F1F4F003C77
:10214000110519F7F5011082DF91CF911F910F91C1
:10215000FF90DF90CF90BF90AF900895F601E057C9
:10216000FA4F81E08083EECF60E080E50E945D1051
:1021700061E08FE50E945D100895A4E0B0E0E3EC1B
:10218000F0E10C94AA28F62E042F122F8235910527
:1021900050F5880F991F880F991FBC01655D7C4F12
:1021A00044E050E0CE0101960E945129898183705C
:1021B000AA81E82FF0E020EC829FC0011124825216
:1021C0009C4FA80FB92FB11DFC92AB81A80FB92F5E
:1021D000B11D0C932C81820F911DDC011C93E25ADE
:1021E000FA4F81E080832496E5E00C94C628FF92A4
:1021F0000F931F93CF93DF93182F062FF42ED0E069
:10220000C0E02F2D402F612FCE010E94BD102196DE
:10221000C235D105B1F7CDB7DEB7E5E00C94C628DD
:10222000A4E0B0E0E6E1F1E10C94A7280E94C82701
:1022300080E50E94DD0F8FE50E94DD0F0BE213E0C9
:1022400088E1C82EEE24E394F12CDD24D39444E0FD
:1022500050E0B801CE0101960E9451296A815B814C
:102260004C818981837090E0E62FE695E695E695AE
:10227000C89E9001C99E300D1124205A3A4FE20F9A
:10228000F32FF11D6770D70101C0AA0F6A95EAF715
:1022900060816A2B6083E52FE695E695E695E20F6F
:1022A000F32FF11D5770B70101C0660F5A95EAF779
:1022B0005081562B5083E42FE695E695E695E20F84
:1022C000F32FF11D4770970102C0220F331F4A956B
:1022D000E2F7A9012081242B208380579A4FFC012B
:1022E000D0820C5F1F4FF4E003371F0709F0AFCF18
:1022F00060E080E50E942C1061E08FE50E942C10C8
:102300002496E8E00C94C3281F93CF93DF93EC014D
:10231000FC01ED56FD4F80816823B1F00E944129F8
:10232000182F0E9441298F77782F20E8720F08F428
:102330007FEF612F8091D5050E94A008462F282F9E
:10234000672FCE010E949307DF91CF911F910895CF
:10235000B0E0A0E0EEEAF1E10C94A728182F8091FC
:102360000F01811323C09091D205937020910E012B
:1023700030E081E09217130609F480E081708093C9
:1023800014018091D70590911301981739F080932B
:10239000130140E060E080E00E949007103160F49B
:1023A000E12FF0E0E25EF54D0C94E82881E0E6CF05
:1023B00080911401811102C0C0E085C040E060E05E
:1023C00080E00E949007F8CFC091120181E1C89F80
:1023D000C02D112401E10C0FF02E033510F092E511
:1023E000F92E6091D3057091D4058091D5050E9496
:1023F000A008E62ED72EC82ED0E0CF1528F0C1E0D9
:10240000023508F460C0D8CFFE01ED56FD4F808143
:1024100090911301892331F02C2D4E2D6D2DCE017D
:102420000E9493072196E9CFC091120181E1C89FD4
:10243000C02D112401E10C0FF02E033510F082E5C0
:10244000F82EE090D305D091D405D090D5056091B9
:10245000D6056695669566958091CE059091CF05D7
:102460000E9496080E940A08805887FD8195880F6F
:10247000382F2D2D329F312D1124832F6E2D7D2F3E
:102480000E94A008E62ED72EC82ED0E0CF1508F067
:10249000B6CFFE01ED56FD4F808190911301892347
:1024A00031F02C2D4E2D6D2DCE010E9493072196DB
:1024B000EDCF8EEE97E00E948A0904C08EE897E087
:1024C0000E944D0AC82F809112018F5F80931201E4
:1024D000C1110CC082E08093100180911401811120
:1024E00005C0111103C083E080931001CDB7DEB7A2
:1024F000E8E00C94C32885E897E0E2CF8CE797E00A
:10250000DFCF83E697E0DCCF85E597E0D4CF8EE69A
:1025100098E00E94F709D6CF8DED97E0FACF89ECCD
:1025200097E0C9CF88E297E00E943409CBCF8AEFC9
:1025300096E0FACFC0911401C1111EC06091D6057A
:1025400020E1620F08F46FEF8091CE059091CF05E6
:102550000E94960865E070E00E948928892B09F0A6
:102560002BCF0E94412962E570E00E94D42860913F
:1025700013010E948411A7CFC091120181E1C89F6D
:10258000C02D112401E10C0F802F033508F082E5E6
:10259000D0E0E82EF12CCE15DF050CF030CF6091A5
:1025A0001301CE010E9484112196F5CF8091120172
:1025B00001E1809F000D11244091CE055091CF057F
:1025C0006091D0057091D1058091C0039091C103B5
:1025D000A091C203B091C30384179507A607B7075C
:1025E00008F00DCF0E942908F82E0E94290892E5D4
:1025F000891BF0F7890FC82FD0E0FE01ED56FD4F83
:10260000809113019081892309F4F9CE20E040E004
:1026100060E0F1FC13C00E942908F82E0E942908EE
:10262000782F76952FE7720F08F47FEF6F2D80914A
:10263000D5050E94A008462F282F672FCE010E94A3
:1026400093072091D60530E1230F08F42FEF60E1C6
:10265000822F90E00E949608BC0184EF91E00E94D6
:1026600089288091CE059091CF05A091D005B09199
:10267000D105860F971FA11DB11D8093C0039093B4
:10268000C103A093C203B093C303B9CE46E050E0A8
:102690006CE170E082ED95E00E9485291092C903FB
:1026A00008950E9488056093C4037093C5038093C6
:1026B000C6039093C7032091C80330E0211108C0DE
:1026C0002091D205322F337019F0322F369536957E
:1026D000209110012130A9F0222329F02230A9F005
:1026E0002330F1F00895109212016093CE0570939B
:1026F000CF058093D0059093D10581E080931001A0
:102700000895832F0E94A811089530930F0180919E
:10271000D205837080930E010E94B41083E0EECF47
:102720008091C90381110E9446134091CE055091BA
:10273000CF056091D0057091D1052FB7F8948091A5
:10274000990590919A05A0919B05B0919C052FBF8A
:10275000841B950BA60BB70B4097A105B10510F094
:10276000109210010895E2EDF5E085E180838091FB
:10277000150190911601A091170181839283A38383
:102780008FE784838FEF85830E944613089590918D
:102790009E0592FB222720F9281779F080FB92F9F9
:1027A00090939E0560919D0570919E0584E090E058
:1027B0000E94B32982E00E943C0D089590E080E0E1
:1027C0000E947F29873E9E4F19F40E94B10F089501
:1027D00080E0089580918A0390918903892B8093EA
:1027E000E80290918B039923A1F0892B8093E80252
:1027F000809111018823E1F180919D0587FF38C008
:102800008EE1EAEEF2E090E08150A0F591110E9495
:10281000820C40E250E069E673E088EE92E00E94AC
:102820005A29892B21F180E2E8EEF2E0A9E6B3E033
:1028300001900D928A95E1F7E0919405F09195054C
:102840003097A9F080911101882359F080919D055E
:1028500087FF07C08091E8028093E90286E08093B9
:10286000E8020280F381E02D88EE92E00995089558
:1028700086E0C7CF2191222339F29F5FC5CF109206
:102880008A0380911101EAEEF2E08823B1F0809191
:102890009D0587FF12C08EE1DF011D928A95E9F741
:1028A00090E080E00E94180690E080E00E94F3052E
:1028B000109289030E94EA13089586E0EDCFAAE200
:1028C000B0E0E5E6F4E10C94AC2886EC95E02091CC
:1028D000F100DC012D93CD01B5E08E3C9B07B9F7EB
:1028E0008091C705833009F472C0B8F4813009F4CF
:1028F00049C0823009F4B3C08091E80083FF8BC2E5
:102900008091C6059091C7059A3008F084C2E92FDE
:10291000F0E0E25DF54D0C94E8288A3009F48EC0B1
:102920008B3009F471C0893039F78091C605813246
:1029300019F78091CA059091CB05009711F0029785
:10294000D9F68091E800877F8093E8008091E800C5
:1029500082FF38C09091F3008091F200029731F429
:102960008091F100813011F0863021F48091F100E6
:102970008093A1058091E8008B778093E8000E9406
:102980007A04BACF8091C605813A09F0B5CF80911B
:10299000E800877F8093E8008091CA059091CB057D
:1029A000892B61F460E282EA95E070E00E942605DE
:1029B0008091E8008B778093E8009ECF60E090E004
:1029C00080E0F3CF8091C4058111C0CF95CF809175
:1029D000C605813A09F090CF8091CA059091CB0548
:1029E000892B09F089CF8091E800877F8093E800E8
:1029F0008091E80080FFFCCF809111018093F1006D
:102A00008091E8008E77B9CF8091C605813209F0B8
:102A100073CF8091CA059091CB05892B09F06CCFBB
:102A20008091E800877F8093E8000E947A0480917B
:102A3000C805809311010E943F145ECF8091C605A6
:102A4000813209F059CF8091E800877F8093E800B8
:102A50000E947A048091C9058093A0054DCF809192
:102A6000C605813A09F048CF8091E800877F8093BE
:102A7000E8008091E80080FFFCCF8091A005BECFE8
:102A8000803899F0823809F0C6C18091CA058F70EC
:102A9000873008F0C0C18093E9008091EB0085FB8E
:102AA000882780F91092E90006C08091C2059091B4
:102AB000C305911182609091E800977F9093E800A0
:102AC0008093F1001092F1008091E8008E779FC111
:102AD000882309F48DC1823009F09DC18091C80519
:102AE000811190C18091CA058F702FEF280F263079
:102AF00008F091C18093E9002091EB0020FF82C192
:102B0000933031F48091EB0080628093EB007AC1C6
:102B10009091EB0090619093EB0021E030E001C0D8
:102B2000220F8A95EAF72093EA001092EA0080913A
:102B3000EB008860EACF81116EC11091C8051F7744
:102B40008091E3008078812B8093E3008091E800FE
:102B5000877F8093E8000E947A048091E80080FFDC
:102B6000FCCF8091E30080688093E30082E0111144
:102B700083E08093C4054FC18058823008F04BC178
:102B80002091C8053091C9052C3DE3E03E07A1F531
:102B900083E08A838AE289834FB7F894DE01139633
:102BA00020E03EE051E2E32FF0E050935700E49143
:102BB00020FF03C0E295EF703F5FEF708E2F90E033
:102BC000EA30C0F0C7968D939D932F5F243159F75B
:102BD0004FBF8091E800877F8093E8006AE270E051
:102BE000CE0101960E9426058091E8008B778093A4
:102BF000E80011C1C096E7CF8091CA059091CB053E
:102C0000432F55274330510509F44AC078F5413028
:102C1000510509F47AC08BE590E0E3E5F7E0423036
:102C2000510509F0F8C02091E800277F2093E800C3
:102C30002091CC053091CD058217930708F49C01B3
:102C400040E02115310509F065C0411163C0809154
:102C5000E80082FDC9CF8091C405882329F2853020
:102C600019F28091E80083FFF2CFBECF41325105C7
:102C700009F43CC04232510509F0CDC083309105C2
:102C800008F0C9C0FC01EE0FFF1FE757FE4F01908F
:102C9000F081E02D8A579E4FDC018C9190E01AC0A4
:102CA000332721303105D1F02115310561F0223073
:102CB000310509F0B0C0E0ECF7E0E4918E2F90E030
:102CC000E0ECF7E007C0ECEDF7E0E4918E2F90E048
:102CD000ECEDF7E0009709F49EC0A5CFE8ECF7E033
:102CE000E4918E2F90E0E8ECF7E0F4CF833091058B
:102CF00008F091C0880F991FFC01E157FE4F019029
:102D0000F081E02D89E090E08ECF82E190E0EEEA64
:102D1000F7E089CF8091C405882309F465CF853019
:102D200009F462CF8091E80083FD5ECF8091E800D6
:102D300082FD8DCF8091E80080FF83CF9091F300DA
:102D40008091F2002115310519F08830910550F07D
:102D500041E0089709F040E08091E8008E77809389
:102D6000E8006FCF44914093F10031962150310932
:102D70000196E8CF803809F04EC08091E800877F47
:102D80008093E8008091C5058093F1009DCE81116C
:102D900042C01091C8051230F0F58091E800877F9D
:102DA0008093E8001093C5050E947A04112311F066
:102DB00084E005C08091E30087FDFACF81E0809335
:102DC000C40542E061EC81E00E94990442E261ECBA
:102DD00084E00E94990442E261EC82E00E9499043E
:102DE00042E260EC83E00E9499048091C40513C024
:102DF0008091C805813079F481E0933009F080E05A
:102E00008093C3051092E9008091E800877F80934A
:102E1000E8000E947A048091E80083FF0AC0809154
:102E2000E800877F8093E8008091EB0080628093C8
:102E3000EB00AA96E3E00C94C8280E943F142FEF01
:102E400084E39CE0215080409040E1F700C0000006
:102E500088E19CE00FB6F894A895809360000FBEBF
:102E600090936000FFCF882321F00E94880C0E947D
:102E7000EA130895882339F090918A03982B909350
:102E80008A030E94EA130895882351F19CEF980F5A
:102E9000913A40F4682F88EE92E00E9494050E94D7
:102EA000EA13089590E2980F983050F4877091E0FB
:102EB00001C0990F8A95EAF7892F0E94880CEFCFFD
:102EC0009BE5980F933028F490E080E00E9418066C
:102ED0000895885A893120F490E080E00E94F3053B
:102EE0000895CF93C82F8823D9F18CEF8C0F813AA6
:102EF000C8F580911101882311F180919D0587FF0C
:102F00001EC0EC2FE695E695E695F0E0E851FD4F02
:102F1000828190E04C2F477021E030E002C0220F08
:102F2000331F4A95E2F782239323892B91F06C2F6C
:102F300088EE92E00E9494050E94EA130AC0EAEE2D
:102F4000F2E080EF92E02191C21789F38E179F077C
:102F5000D1F76C2F88EE92E00E94BE050E94EA1322
:102F6000CF91089580E28C0F883068F4C77021E01B
:102F700030E001C0220FCA95EAF780918A03822BC4
:102F800080938A03EBCFEBE5EC0FE33040F4F0E005
:102F9000E85EFE4F808190E00E941806E1CFC85A9B
:102FA000C931F0F6EC2FF0E0EE0FFF1FE55EFE4FAB
:102FB000808191810E94F305D3CF1F93CF93DF933C
:102FC000182FD0E0C0E0893311F4C0E5D0E0812FA4
:102FD0000E947117209739F4812F0E944417DF91C6
:102FE000CF911F9108958FE99FE00197F1F700C0FD
:102FF00000002197EFCF67EE7EEF90E080E00E9427
:10300000B32960E082E090E00E94952960E083E0CF
:1030100090E00E94952910928C0360E074E184E0B6
:1030200090E00E94B32960E086E090E00E9495293C
:103030006FEF87E090E00E94952940E050E0BA01F0
:1030400088E090E00E94A72960E08DE090E00E9477
:10305000952940E050E0BA0188E190E00E94A7295C
:1030600060E087E190E00E94952940E050E0BA01DD
:103070008CE190E00E94A72970E060E080E290E09F
:103080000E94B32940E050E0BA0188E190E00E943C
:10309000A72980E00E94A10E0E94BA0E40E050E0F5
:1030A000BA018FE090E00E94A72940E050E0BA0109
:1030B00083E190E00E94A72908951F920F920FB616
:1030C0000F9211242F933F934F935F936F937F93AE
:1030D0008F939F93AF93BF93CF93DF93EF93FF9320
:1030E000D091E900DF708091EC00C82FC17080FDA5
:1030F000C0E81092E9008091F000877F8093F00093
:1031000078940E945F141092E9008091F00088602A
:103110008093F000CD2BCF70C093E900FF91EF9129
:10312000DF91CF91BF91AF919F918F917F916F91DF
:103130005F914F913F912F910F900FBE0F901F9075
:1031400018951F920F920FB60F9211242F933F9351
:103150004F935F936F937F938F939F93AF93BF939F
:10316000EF93FF938091E10082FF09C08091E2001C
:1031700082FF05C08091E1008B7F8093E100809108
:10318000DA0080FF24C08091D80080FF20C08091A9
:10319000DA008E7F8093DA008091D90080FF9DC095
:1031A00080E189BD82E189BD09B400FEFDCF81E0E7
:1031B0008093C40580919F05811109C00E942A0453
:1031C0000E94CB048091E20084608093E2008091B1
:1031D000E10080FF17C08091E20080FF13C0809162
:1031E000E2008E7F8093E2008091E2008061809314
:1031F000E2008091D80080628093D80019BC85E0FD
:103200008093C4058091E10084FF2BC08091E2008F
:1032100084FF27C080E189BD82E189BD89B5982FEF
:10322000917080FFFBCF8091D8008F7D8093D80074
:103230008091E1008F7E8093E1008091E2008F7E9B
:103240008093E2008091E20081608093E2008091AF
:10325000C505882309F447C084E08093C4058091A4
:10326000C4058091E10083FF27C08091E20083FFC5
:1032700023C08091E100877F8093E10082E080930A
:10328000C4051092C5058091E1008E7F8093E10016
:103290008091E2008E7F8093E2008091E200806165
:1032A0008093E20042E060E080E00E949904809117
:1032B000F00088608093F000FF91EF91BF91AF9193
:1032C0009F918F917F916F915F914F913F912F913E
:1032D0000F900FBE0F901F90189519BC1092C40547
:1032E00010929F0574CF8091E30087FD93E0909347
:1032F000C405B5CF78941F921FB61F9211248F93E7
:103300009F93AF93BF938091990590919A05A09157
:103310009B05B0919C050196A11DB11D8093990557
:1033200090939A05A0939B05B0939C05BF91AF9194
:103330009F918F911F901FBE1F9018959C014FB7B2
:10334000F8948091990590919A05A0919B05B09170
:103350009C054FBF821B930B08952FB7F894809163
:10336000990590919A05A0919B05B0919C052FBF5E
:1033700008950F931F93CF93DF93C62FD42F022F5F
:10338000FC0182818823A9F06093DA050E94AD19BF
:103390009093D9058093D805C77081E001C0880F4C
:1033A000CA95EAF70E943A17DF91CF911F910F91CA
:1033B00008958091DA05681332C08091D805909104
:1033C000D9050E949E19883C910548F510E21D0F11
:1033D000CD17B9F080E28C0F883040F4C77081E0DF
:1033E00001C0880FCA95EAF70E943317183048F4D5
:1033F00081E09D2F977001C0880F9A95EAF70E948F
:103400003A17802F0E94DD17183070F6D77081E0D0
:1034100001C0880FDA95EAF70E943317C5CFC7704D
:1034200081E001C0880FCA95EAF7F6CFA8E0B0E0C6
:10343000ECE1FAE10C949F288C01DC0113968D914C
:103440009C911497892B39F08C9111969C9189232A
:103450008F3F09F021C52896E0E10C94BB280E941B
:103460004B0FF82E682F89819A810E94060D698181
:103470007A818F2D0E942C0F7C01F8018281882394
:1034800009F4E8C49701225037472031310508F08C
:10349000F7C48FEF93E00E947729811185C0EA94E9
:1034A000EA9466E0A62E63E0B62EE11047C0FE0166
:1034B000339686E0DF011D928A95E9F75AE0452EA2
:1034C0007501BFEFEB1AFB0AC5010E9477298983BA
:1034D0001A82882309F468C0813009F078C0650138
:1034E000E2E0CE0ED11CC7010E9477298A8388238F
:1034F00009F45AC09FEF980F933070F5F3E0AF0EC8
:10350000B11CC6010E9477298B83882309F44CC023
:103510001C82DE0111967D01F7012081222381F2B8
:10352000213009F094C091818281913009F051C01D
:10353000F2E0EF0EF11C0E94DD1752C0A114F4E07E
:10354000BF0691F1C5010E947729811101C0EA945B
:103550002FEFA21AB20AA9CF56018430D1F642E069
:10356000E42EF12C56012FEFA21AB20AC6010E94D6
:103570007729E1E0F0E0EC0FFD1FEE0DFF1D8083E9
:10358000882391F08C3741F4E2E0F0E0EC0FFD1F6E
:10359000EE0DFF1D1082BDCF3FEFE31AF30A650168
:1035A00087E0E816F104F1F680916803877009F46A
:1035B00052CFD80112968C91882309F44CCF809178
:1035C0009E0582FF48CF82E00E943C0D44CF570108
:1035D000A0CF923049F422E0E20EF11C0E94711754
:1035E000EFEFEE1AFE0A98CF933031F432E0E30E9B
:1035F000F11C0E944417F4CF943021F08FEFE81AA9
:10360000F80AEECF92E0E90EF11C30E020E0B701BD
:103610006F5F7F4FD70111964C918053990B8A3081
:10362000910550F021503109D8F2EFE9FFE03197D0
:10363000F1F700C00000F6CF429EF001439EF00D6E
:1036400011249C012E0F3F1F842F7B01E0CFE22F1E
:10365000F0E0E555FE4F5490822F8695869586952D
:1036600090E0FC01E556FE4F64902770712C022E0D
:1036700002C0759467940A94E2F731E063227724DC
:10368000FC01E557FE4F8490912C022E02C09594C8
:1036900087940A94E2F7A1E08A229924FC01E55874
:1036A000FE4FC490D12C02C0D594C7942A95E2F75E
:1036B000B1E0CB22DD246114710419F081EE0E9487
:1036C00071178114910419F086EE0E947117852DEF
:1036D0000E94DD178114910419F086EE0E944417B0
:1036E0006114710419F081EE0E944417C114D104D1
:1036F00009F476CF8CE21FCF81E00E94580D0E9422
:10370000230D52CF81E00E942F0DF9CF82E0FBCF35
:1037100026E241EE61EEC8010E94B91945CF27E2C9
:1037200045EE65EEF8CF26E241EE60EEF4CF27E2FB
:1037300045EE64EEF0CF26E241EE62EEECCF27E2FA
:1037400045EE66EEE8CF28E241E0EBCF882309F4AE
:10375000CDC31092DA05C7019057839708F0AFC325
:1037600084E090E00E947F2990939E0580939D05C0
:10377000F701E150F047E232F10520F4E85CF54D45
:103780000C94E82880919D05816080939D0595C0EB
:1037900080919E05886080939E058FC080919D05D5
:1037A0008260F3CF80919D058460EFCF80919D056D
:1037B0008860EBCF80919E058160EDCF80919E0562
:1037C0008260E9CF80919D058061DFCF80919D056A
:1037D0008062DBCF80919D058064D7CF0E943F142B
:1037E00080919D058068D1CF80919D058C60CDCF63
:1037F00080919E058360CFCF80919D058E7FC5CF40
:1038000080919E05877FC7CF80919D058D7FBDCF1D
:1038100080919D058B7FB9CF80919D05877FB5CF26
:1038200080919E058E7FB7CF80919E058D7FB3CF0F
:1038300080919D058F7EA9CF80919D058F7DA5CF1D
:1038400080919D058F7BA1CF0E943F1480919D05A3
:103850008F779BCF80919D05837F97CF80919E0529
:103860008C7F99CF80919D0582FB992790F921E06B
:10387000922790FB82F990FB83F987CF80919E0578
:10388000982F909591708E7F892B90FB81F983CF33
:1038900090919D05892F8F7B96FF806476CF0E9443
:1038A0003F1490919D05892F97FB87F980586DCF24
:1038B00061E08EE090E00E94952960919D057091F5
:1038C0009E0584E090E00E94B3290E943F146CCED4
:1038D00060E0EFCF90919D05892F8F7E94FF8061EE
:1038E00054CF90919D05892F8E7F90FF81604DCFA1
:1038F00090919E05892F877F93FF88604CCF8091A0
:10390000D20591E089278093D20510921001809111
:10391000C90381608093C90347CE43EE56E06EEE43
:1039200076E00E944A0640CE4EEE56E063EE76E028
:10393000F8CF44EB56E06FEB76E0F3CF4FEB56E079
:1039400064EB76E0EECF48E956E066EA76E0E9CF50
:1039500046EA56E068E976E0E4CF4CE756E06AE8EC
:1039600076E0DFCF4AE856E06CE776E0DACF40E574
:1039700056E06EE576E0D5CF4EE556E060E576E0C0
:10398000D0CF61E081E00E94CA060ECE61E082E005
:10399000FACF61E085E0F7CF61E08AE0F4CF0E94E2
:1039A0003F14FFEF24E33CE0F15020403040E1F7CA
:1039B00000C000000E94CD0D6FEF7FEF90E080E02F
:1039C0000E94B3290E941D1780919E0582FB8827C3
:1039D00080F991E089270E94C713F8018281E08075
:1039E000F180882309F446C0C7010E944B0FD82EEE
:1039F000682FC7010E94060DB7018D2D0E942C0F64
:103A00000E94F30A7C01882ED8011296AC9012977E
:103A100015969C9092943FE0932280916803877062
:103A2000C1F0CA2CAA20B1F08F2D807F803421F004
:103A300080E28E0D883068F080919E0582FF09C07B
:103A400082E00E943C0D809168038770CC24C3946F
:103A50008111C12CBF2CB2942FE0B222BBE0BB1568
:103A600008F477C0EB2DF0E0E65AF54D0C94E82809
:103A700080E0B1CFC7010E94C00CD82EBDCFEF2D82
:103A8000EF70DE2E8F2D807F19F0D29490EFD92227
:103A9000AA20B9F0DD2069F080E28E0D883010F0A8
:103AA000811009C080918A03D82AD0928A030E948B
:103AB000EA138E2D4CC080918903D82AD0928903B5
:103AC000F6CF8E2D0E944417DD2009F442C080E21B
:103AD0008E0D883010F0811004C08D2D0E94880C4E
:103AE00006C0D09480918903D822D09289030E9485
:103AF000EA132FC0FF2DFF70DF2E8F2D807F8032C5
:103B000019F0D29480EFD822882089F021E0821623
:103B100009F46CC0AA2009F476C0992009F46CC09D
:103B2000F801858180FFC5CF8F70858365C02091A6
:103B30009E0522FD34C0AA2061F1DD2039F080917C
:103B40008A03D82AD0928A030E94EA1380E00E9456
:103B50007117AB2DA850BB0B149710F40E943D06B3
:103B6000CC2009F478CC8091680380FD74CCF801F6
:103B700012828595859585950E94580DC8010E94F1
:103B8000161A809168038595859585950E942F0D5D
:103B900062CC80E00E944417DD20D9F29ECFAA209B
:103BA00099F090918B038D2D892B911003C00E9469
:103BB0003A17CFCF31E09312FACF22FFCACF89173D
:103BC00041F280938B03C5CF911006C00E94820CF6
:103BD0008D2D0E943317BDCF81E0981609F4B9CF1F
:103BE0008D2D0E9433170E94820CB3CFAA2031F092
:103BF00095E0991508F4ADCF8D2DD9CFA4E0A91586
:103C000008F4A7CFE5CF992019F3F9E38F1209C083
:103C10002FEF37EE83E0215030408040E1F700C0C5
:103C200000008E2D0E94441794CF8F2D8695869587
:103C3000837061F0813009F08CCFC7019370A110BF
:103C400002C080E090E00E94F30583CFC70193702B
:103C5000A11002C080E090E00E9418067ACF8F2D5C
:103C6000837091F5A11075CF4E2D42954695477002
:103C7000440F440F8E2D8F70042E01C0880F0A94BC
:103C8000EAF72E2D2071E4FE07C02FE030E001C0DE
:103C9000220F4A95EAF720953F2D369536953370D9
:103CA000323069F050F440918C03313029F0822B8E
:103CB00084230E94640D4DCF842B822BFACF282BB6
:103CC00080918C038227F5CF8695AA2011F08F2D45
:103CD0008170882309F43DCF4E2D4295469547705B
:103CE000440F440F8E2D8F70042E01C0880F0A944C
:103CF000EAF72E2D2071E4FE07C02FE030E001C06E
:103D0000220F4A95EAF720953F2D36953695337068
:103D1000323069F050F44091DB05313029F0822BCC
:103D200084230E94200D15CF842B822BFACF282BC1
:103D30008091DB058227F5CF9F2D9F70F92EAA2059
:103D400029F0892F0E94580D8E2D31CF8E2D0E9483
:103D500033178F2D0E942F0DFCCE8E2DA2EF8A16C9
:103D6000B1F1A81570F0B0EF8B16D1F0E1EF8E161F
:103D700091F0AA2009F45EC091109BCE8F2D8F7117
:103D80002AC0F3EF8F1651F124EF8212F2CF809107
:103D90009E0582FD2FC08F2D8F71AA20D9F21BC0E6
:103DA000AA2081F034E0391508F4D3CE2F2D2F71DD
:103DB00081E090E001C0880F2A95EAF79091DB0539
:103DC0008927AFCF85E0891508F4C3CEEFCF8F2DBB
:103DD0008F71A110BFCF0E94580DBBCE80E0AA20EA
:103DE00009F49FCF9F2D9F7181E001C0880F9A95A4
:103DF000EAF797CFAA2099F09F2D9F71F92E892F6E
:103E00000E94580D80919E0582FF07C0A8E0FA9E8F
:103E1000C00111248360809368038F2DDCCF81E083
:103E20000E943C0DB1E0B91508F093CE82E00E94EB
:103E30003C0D8FCE992059F0893309F0F2CEEFEF87
:103E4000F7EE23E0E150F0402040E1F7E8CE8F2D7F
:103E50008F7180CFE114F7E7FF0609F453CC21E01E
:103E6000E21627E7F20609F451CCF701E851FC47C6
:103E7000E730F10508F06ACCEA59F54D0C94E828D2
:103E8000E11437E7F30609F437CC91E0E91697E738
:103E9000F90659F782E031CC85E0F801DE01119690
:103EA00001900D928A95E1F7D80112962C918981A3
:103EB0009A812111D4CA0E94C00CF82ED8CAB6E14A
:103EC000EB16BCE7FB0609F580918A038A7A91E03C
:103ED00009F490E09093080369E2811165E388EEAC
:103EE00092E00E94BE050E94EA135ECBE6E1EE1668
:103EF000ECE7FE0689F58091080369E2811165E32C
:103F000088EE92E00E949405EECFF3E0EF16FCE716
:103F1000FF0609F451CD60F4E1143CE7F30609F41F
:103F20003ECD81E0E8168CE7F80609F44BCD55CD7F
:103F30009BE5E9169CE7F90609F49ACDACE5EA168B
:103F4000ACE7FA0609F440CDBAE5EB16BCE7FB0690
:103F500009F043CD81E03FCD80918A038272F70161
:103F6000E052F847E531F10508F037CDE359F54D5A
:103F70000C94E8281F93CF93DF9380913503807FC3
:103F800009F049C080913203882309F444C080912C
:103F90006703D09136036091300370913103A09193
:103FA0003303B0913403C62FC72316E0D81799F115
:103FB00090E0109711F0CF3F19F401968770F6CF7B
:103FC000189F9001199F300D1124F901E95CFC4FF5
:103FD00041814713F2CF40814613EFCF4281411117
:103FE000ECCF438154814A1B5B0B483C510528F7B9
:103FF000809135038F70806180933503F901E45C13
:10400000FC4F80818F708061808380E393E00E9409
:10401000161A0E948F0CDF91CF911F910895A1E194
:10402000B0E0E5E1F0E20C94A5288C0185E0F80110
:10403000DE011D9601900D928A95E1F7F801E2806C
:1040400080E3A82E83E0B82E60913303709134038F
:104050006115710509F426C1909130034091310337
:10406000892F84238F3F09F41DC120813181C380B2
:10407000D480F0903203F601E61BF70BFF2009F421
:10408000DCC080913503582F507FE83CF10508F0E3
:104090009FC051116BC0FE2C431314C0921312C069
:1040A000E11010C08F70806180933503C5010E94BC
:1040B000161A80913503F80185838F2D6196EAE009
:1040C0000C94C128C114D10429F0822F83238F3F7F
:1040D00009F003C180E0F82FF170DF2E80FF3CC0B3
:1040E000809167034091360356E0841315C02D87F5
:1040F0003E878D859E850E947A0F292F22952F70ED
:104100002230F0F0243018F59F70F1F0F80195811D
:10411000907FD1F4D12C1EC090E0589FF001599FA0
:10412000F00D1124E95CFC4F6181361306C06081FB
:10413000261303C06281E6120FC001968770D5CFA7
:104140009F7011F0882331F3805E883018F3C80126
:104150000E94161AFD2CB1CFEE2009F4AECF80914B
:104160003503816080933503F12CA7CF431306C03C
:10417000921304C0F801EE2009F479C0C8010E942E
:10418000870F882309F1EE20F9F080913503803202
:1041900070F0209130033091310338872F831986D6
:1041A000DB86CA868C87CE0107960E94161A86E0A7
:1041B000F801A0E3B3E001900D928A95E1F70E9427
:1041C000BA1FFF24F39479CFC8010E94161AF9CFC1
:1041D00051110AC080E393E00E94161A86E0F501AF
:1041E00011928A95E9F7C0CF43130FC092130DC007
:1041F000E1100BC0F8018583C8010E94161A86E001
:10420000F50111928A95E9F758CFC8010E94870FEE
:104210008823D1F2EE20C1F280913503803238F24A
:1042200020913003309131033A8329831B82DD8250
:10423000CC828E83CE010196B8CFE83CF105F8F62A
:10424000FE2CEE2009F243131FC092131DC0809173
:10425000350380FD10C0982F907F69F0F8018583A9
:10426000903F31F0982F907F905F8F70892B8583DE
:10427000C8010E94161A86E0F801A0E3B3E001909D
:104280000D928A95E1F719CFC8010E94870F81111D
:104290008ECF80913503816080933503C8010E94E1
:1042A000161A0BCFEE2009F48FCFC8010E94870F9A
:1042B000F82E882309F488CF86E0F801A0E3B3E064
:1042C00001900D928A95E1F780913003909131032E
:1042D0000E947A0F0E94BA1FF0CE81E08E25FBCE9D
:1042E000A7E1B0E0E6E7F1E20C94AC284B8B5C8BE5
:1042F0006D8B7E8B8F8B6111109289031A8A198ABC
:1043000085E0FE017396DE011D9601900D928A955F
:10431000E1F786E0FE013D96DE01179601900D92D1
:104320008A95E1F7CE0107960E940F20882359F065
:1043300016E08091670390913603891343C0679616
:10434000E3E00C94C82886E0FE013796DE01119662
:1043500001900D928A95E1F78A859B85892B41F31F
:104360008F81988589238F3F19F32091360330E0A0
:10437000C90101968770992740916703481719066C
:1043800071F40E943F14109236031092670386E086
:10439000E0E3F3E0DF011D928A95E9F7C9CF96E0EB
:1043A000929FD001939FB00D1124A95CBC4FFE01D8
:1043B000319601900D929A95E1F7809336030E9411
:1043C0008F0CB6CF819FC0011124895C9C4F0E9445
:1043D0000F20882309F4B3CF8091670390E0019602
:1043E0008770992780936703A4CFACE0B0E0EBEF30
:1043F000F1E20C94A1288E010F5F1F4F8CE0D801D1
:104400001D928A95E9F72DE4E22E21E0F22ECC24CC
:10441000C394D12C88248394912C52E6A52E51E08C
:10442000B52EF70181917F018F3F09F449C0F894BF
:10443000E82FE295EF70F0E021A18F70A40102C097
:10444000440F551F8A95E2F7CA01922F982B91A32A
:1044500092A18095892382A3789400C09CE5692E5F
:1044600091E0792EF801A60140955095D3016D9108
:104470003D01808191816F3F09F463C0262F229511
:104480002F7030E0D90190962C9130E06F7002C00F
:10449000359527956A95E2F720FD53C08C299D2913
:1044A000918380833296A614B70401F7F701319700
:1044B00080818F3F11F00E94990AB0EABA95F1F716
:1044C000CC0CDD1CECE5EE16E1E0FE0609F0A9CF10
:1044D0004CE050E0B8018FE993E00E945A29892B03
:1044E00099F18CE0F801AFE9B3E001900D928A9563
:1044F000E1F781E080938F030E94AD1990938E03C2
:1045000080938D0380918D0390918E030E949E195C
:104510000597F0F04CE050E06FE973E084EB93E036
:104520000E945A29892BC9F08CE0EFE9F3E0A4EB53
:10453000B3E001900D928A95E1F781E010928F032C
:1045400008C084239523ACCF80918F038111DACFEB
:1045500080E02C96EEE00C94BD2880E0EFCF1F9217
:104560001FB61F9211248F939F93AF93BF93809197
:104570009805811113C08091990590919A05A09199
:104580009B05B0919C054196A11DB11D8093990595
:1045900090939A05A0939B05B0939C05BF91AF9112
:1045A0009F918F911F901FBE1F901895CDB7DEB7BA
:1045B000C054D1090FB6F894DEBF0FBECDBF85B78A
:1045C000806885BF85B7806885BF84B7877F84BFD3
:1045D0000FB6F894A8958091600088618093600080
:1045E000109260000FBE80E890E00FB6F8948093C0
:1045F0006100909361000FBE87E99AE09093E70213
:104600008093E6020E942A040E94CB048091E2007B
:1046100084608093E20078948091C4058823A1F09F
:104620001091E9001F709091EC00892F817090FD2E
:1046300080E8182B1092E9008091E80083FD0E9429
:104640005F141F701093E90082E084BD93E095BD74
:104650009AEF97BD80936E000E94B10F811102C046
:104660000E94BA0E81E08093B1036E98769A2798E3
:104670002F9A8FE891E00197F1F700C00000409178
:10468000B10362EB73E0FB018E2F861B841708F4E5
:1046900052C00DE411E0D8018D918D018F3F11F0D2
:1046A0000E94990AB1E00C351B07A9F70CE511E04F
:1046B000F80181918F018F3F11F00E94990AF1E07A
:1046C00002361F07A9F78CE0E4EBF3E0DF01282FA7
:1046D0001D922A95E9F7EFE9F3E0DF011D928A9533
:1046E000E9F70E94DE13811102C00E94FB1782E0ED
:1046F00090E00E9477298093920384E090E00E94EA
:104700007F2990939E0580939D050E94F521EFE3FC
:10471000FCE93197F1F700C000000E94F52180917B
:10472000B40380FF19C06FEF7FEF90E080E00E943C
:10473000B3290E94CD0D8CB186FB882780F923B167
:1047400030E0220F232F221F330B90E0232B09F0A0
:1047500092E0892B819398CF83E090E00E947729A3
:104760000E94640D0E9410110E94DE13811104C08A
:104770000E94FB170E94B31381E08093C90346E0B7
:1047800050E06CE170E082ED95E00E9467291092A4
:10479000C9038091D2058C7F11F40E94B3138091DC
:1047A0009D05806880939D0560919D0570919E0593
:1047B00084E090E00E94B3291092AE031092AD0302
:1047C00084E091E090939505809394058091C405D1
:1047D00013E0F12E00E112E1853009F4CAC00E9415
:1047E000F521A3E9CA2EA3E0DA2EB4EB6B2EB3E0D9
:1047F0007B2E82E791E021969FAF8EAF21976FE9E4
:1048000073E07C01A301F60121913191DA018D91D0
:104810009D91AD01D7010D911D917D0180239123C3
:104820006E177F0709F4B1C02817390769F3E2E76B
:10483000AE2EE1E0BE2EF4EB8F2EF3E09F2E312C56
:10484000F401019111914F01D5018D919D915D016F
:1048500008231923F601419051906F01401651062B
:1048600059F140265126212CEE24E394F12CC2016B
:104870008E219F21892BB1F02AAE3BAE21E0C801E9
:104880008E219F21892B09F420E02CAF0E94AD19C5
:104890008160782F9EAF8DAF4AAD5BAD6CAD8EADB4
:1048A0000E9470212394EE0CFF1CFFE02F12DFCF3B
:1048B000F601329711830083339426E03212C0CF81
:1048C0000E94880584C08091C405843009F43AC0F0
:1048D0000E9451138091C80381110DC00E94A8113C
:1048E00010920F018091D205837080930E010E9477
:1048F000B410F0921001F1E0F093C8031092980503
:1049000088E190E0A0E40FB6F894A8958093600049
:104910000FBEA093600083B7817F846083BF83B79D
:10492000816083BF7894889583B78E7F83BF0FB6ED
:10493000F894A8958091600088618093600010923F
:1049400060000FBE8091C305882399F00E94F52175
:10495000E4EBF3E0A2E7B1E0819191912D913D91DB
:1049600082239323892B09F0F4C223E0E03CF20771
:1049700099F78091C405853009F4A5CF0E943F14B2
:104980000E943D061092C8032ACF2817390709F064
:104990004ECF0E94AD198C018091900390919103AC
:1049A00008171907A1F08FEF8DAB8EAB1FAA0E94DD
:1049B000AD198160782F99AF88AF4DA95EA96FA915
:1049C00089AD0E9470211093910300939003809110
:1049D000AD039091AE03843FA1E09A0708F464C050
:1049E0002091B4033091B50390E081E0A9014270B9
:1049F000552721FF80E08093AC032091AB0328135F
:104A000002C0992351F081E0452B09F084E00E9417
:104A1000640D8091AC038093AB030E945113B12CC1
:104A2000A12C34E0C32ED12C4DEF942E5CEF852EBB
:104A30008091B103B81608F445C0A1100E94880502
:104A40000E943D069091B303891721F08093B30330
:104A50000E9488058091C405843009F0B7CE83E0B8
:104A60008093E9008091E80082FFB0CE8091E80059
:104A700090E085FF06C00E944904882309F4AFC076
:104A800091E08091E8008B778093E800992309F406
:104A90009DCE8981EFEFE80FE53108F0C9C0F0E065
:104AA000EE57F54D0C94E82801969093AE03809351
:104AB000AD030A9709F0B1CF20919F033091A00375
:104AC00091E093CF0B2D10E0ECB1E6FBEE27E0F97F
:104AD00083B190E0880F892F881F990B892B09F0EB
:104AE0007CC080E08E2BD801AE54BC4FEC919E2F41
:104AF0009370891709F46FC0EE0FEE0FE82BEC935B
:104B0000EF70F0E0EE59FE4FC80180559C4F7C01DC
:104B10008081D7019C91890F8C9320E0843034F1FF
:104B2000F801E155FC4F80818F5F80830E94AD19B1
:104B3000BBA68CA6B1E0BDA78160782F9FA78EA7EA
:104B40004B2D5CEF61E08FA50E9470210E94AD1992
:104B5000B8AA89AA1AAA8160782F9CAB8BAB4B2D7F
:104B60005CEF60E08CA90E94702121E0F701808158
:104B70008D3F34F5F801E155FC4F808181508083F1
:104B80000E94AD19B9A29AA2F1E0FBA38160782F2F
:104B90009DA38CA34B2D5DEF61E08DA10E94702140
:104BA0000E94AD19BEA29FA218A68160782F9AA775
:104BB00089A74B2D5DEF60E08AA50E94702121E05E
:104BC000D7018C91082E000C990BB6010E94D428B5
:104BD000F7018083A22AB3942BCF82E083CF80E2B7
:104BE000E82EF12C8E010F5F1F4F8091E80085FDAC
:104BF0000AC08091E8008B778093E8000E94490406
:104C0000882399F33DCF8091F100D8018D938D01D8
:104C1000B1E0EB1AF10849F733CF1A828BE08B83AE
:104C20001BC08A81823009F4AAC128F4813061F066
:104C30008FEF898311C08330C1F08430C9F71B82A4
:104C40001C821D821E8208C00E9488050E94EE28D8
:104C50006B837C838D839E8340E250E0BE016F5F57
:104C60007F4F82E00E94670DB1CDFE013196D301E6
:104C70008D919D913D012196AEADBFAD21972D91B6
:104C80003D912196BFAFAEAF2197822393239283AC
:104C900083833296B0EC6B16B3E07B0641F7DCCF32
:104CA0008A81823059F0853019F68091D205E1E091
:104CB0008E278093D20510921001CECF6B817C811C
:104CC0008D819E810E94EE2885E290E00E949529C8
:104CD000C3CF4C816B818A810E94FD0E9827892762
:104CE00098279E838D83B8CF2D813E81322723273D
:104CF00032274C816B818A810E942C0EADCF0E949D
:104D0000520EAACF9A81933009F092CF883009F4DD
:104D100041C0893009F46BC08B818230E9F088F49E
:104D2000813009F099CF4C812FEF429F412D112402
:104D30008091D30520E06091D40590E00E946C063C
:104D40008BCF833019F1843009F086CF8C8120E03D
:104D50004091D5056D81F1CF8C819091D205292F9D
:104D60002370811107C011F0109210019C7F909365
:104D7000D20572CF211102C0109210019C7F916068
:104D80009093D20560E00E94CA0666CF8C81809322
:104D9000D60562CF8B818230E1F078F4813009F062
:104DA0005BCF8091D505FFEF8F9FC00111246FEF7E
:104DB00070E00E9489286C834FCF8330A9F0843043
:104DC00009F04ACF8091D3058C838091D4058D83DF
:104DD00043CF8091D205982F937086958695911137
:104DE00001C080E08C8338CF8091D605FBCF0E9434
:104DF000461332CF80E18A832FCF1A828AEF0FCFFA
:104E0000EA80FB80FE24EF24FE248E010F5F1F4FFB
:104E1000CC80C00ED12ED11CC7018A5F9C4F0C15CF
:104E20001D0509F419CF2AEFE216F10458F40E9487
:104E30007729D80114968C93FFEFEF1AFF0A0F5FC2
:104E40001F4FEACFF8011482F7CF0A811B81102788
:104E500001271027CE0101966C01EC80E00EF12EA7
:104E6000F11CC8018A5F9C4F0E151F0509F4F4CE92
:104E70000A3F110528F4D60114966C910E949529D9
:104E8000BFEFCB1ADB0A0F5F1F4FEBCF0E94F10D74
:104E9000E3CE84E0B0CFEA80FB80FE24EF24FE2442
:104EA0008E010F5F1F4FCC80C00ED12ED11CC701C9
:104EB0008696C016D10609F4CFCEE0EDEE16E2E0FC
:104EC000FE0658F40E947729D80114968C93FFEFC0
:104ED000EF1AFF0A0F5F1F4FEACFF8011482F7CFD6
:104EE0000A811B81102701271027CE0101966C0132
:104EF000EC80E00EF12EF11CC8018696E016F1065A
:104F000009F4AACE003DA2E01A0720F4F60164815C
:104F10000E949529FFEFCF1ADF0A0F5F1F4FECCFDA
:104F200041E08C81811101C040E06B818A810E9447
:104F3000CA0ED4CE2D813E8132272327322741E06D
:104F40008C81811101C040E06B818A810E94010E39
:104F500083CE09BD19BD09B400FEFDCF8091D800F4
:104F60008F7D8093D8008091E00082608093E00084
:104F70008091E00081FDFCCF0E943F14FACC85E2D5
:104F800090E00E9477291B821C821D828E8364CE52
:104F90001092B9008CE08093B8000895B0E0A0E0D2
:104FA000E4EDF7E20C94A428B82EEB010E94AD19B1
:104FB0006C01EE24E394F12CC431D10560F025E0BE
:104FC000E22EF12CCF3FDC0731F0CE0164E170E03E
:104FD0000E9489287B0184EAA82E94E8992E1092D9
:104FE000BC00A092BC000E94AD198C018091BC0055
:104FF00087FF0DC08091B900887F8830F9F08091DB
:10500000B900887F8031D1F00FEF1FEF08C0C801D1
:105010000E949E19E816F90648F70EEF1FEFCF3FE2
:10502000DC07E9F2C6010E949E19C817D907B8F635
:10503000C801CDB7DEB7EBE00C94C028B092BB003E
:105040009092BC000E94AD198C018091BC0087FF3A
:105050000AC08091B900887F883111F08034A1F6B0
:1050600010E000E0E5CFC8010E949E19E816F9069D
:1050700060F7D3CF0F931F93CF93DF93EB01809310
:10508000BB0084E88093BC000E94AD198C01809124
:10509000BC0087FF11C02091B900287F81E090E01B
:1050A000283211F490E080E0919581959109DF918B
:1050B000CF911F910F910895CF3FDC0741F3C801B5
:1050C0000E949E19C817D90710F78EEF9FEFEFCFF8
:1050D000B0E0A0E0EEE6F8E20C94A7286B018A01AC
:1050E0007901B9010E94CE27E6010C0D1D1DC017E4
:1050F000D10711F097FF08C024E92093BC00CDB779
:10510000DEB7E8E00C94C328B70189910E943A28E1
:10511000EECFAA1BBB1B51E107C0AA1FBB1FA617DE
:10512000B70710F0A61BB70B881F991F5A95A9F750
:1051300080959095BC01CD0108952F923F924F929A
:105140005F926F927F928F929F92AF92BF92CF9217
:10515000DF92EF92FF920F931F93CF93DF93CDB720
:10516000DEB7CA1BDB0B0FB6F894DEBF0FBECDBF98
:1051700009942A88398848885F846E847D848C8469
:105180009B84AA84B984C884DF80EE80FD800C8172
:105190001B81AA81B981CE0FD11D0FB6F894DEBF55
:1051A0000FBECDBFED01089597FB072E16F40094B6
:1051B00007D077FD09D00E94892807FC05D03EF46E
:1051C000909581959F4F0895709561957F4F0895B3
:1051D000EE0FFF1F0590F491E02D099469279627A3
:1051E000692778278727782708958F929F92AF9213
:1051F000BF92CF92DF92EF92FF92CF93DF93EC01B9
:10520000688179818A819B8161157105810591058C
:1052100021F464E279ED8BE597E02DE133EF41E095
:1052200050E00E94B92949015A019B01AC01A7EA4B
:10523000B1E40E94D8296B017C01ACEEB4EFA5016A
:1052400094010E94E629DC01CB018C0D9D1DAE1D51
:10525000BF1DB7FF03C00197A109B0488883998398
:10526000AA83BB839F77DF91CF91FF90EF90DF9070
:10527000CF90BF90AF909F908F9008950E94F52897
:10528000089580E091E00E94F5280895B0E0A0E044
:105290008093000190930101A0930201B093030158
:1052A0000895FB01DC0102C005900D924150504071
:1052B000D8F70895FB01DC0104C08D91019080199D
:1052C00021F441505040C8F7881B990B0895DC0128
:1052D000CB01FC01F999FECF06C0F2BDE1BDF89A01
:1052E000319600B40D9241505040B8F70895F999A5
:1052F000FECF92BD81BDF89A992780B50895A8E1A7
:10530000B0E042E050E00C946929DC01A40FB51F25
:105310004150504048F0CB01840F951F2E910E94C0
:10532000962941505040D0F70895262FF999FECF85
:1053300092BD81BDF89A019700B4021639F01FBAE8
:1053400020BD0FB6F894FA9AF99A0FBE0895039605
:10535000272F0E9496290E949529252F0E94962981
:10536000242F0C9496290196272F0E9496290C949D
:105370009529052E97FB1EF400940E94D02957FD15
:1053800007D00E94EB2907FC03D04EF40C94D029DF
:1053900050954095309521953F4F4F4F5F4F089561
:1053A00090958095709561957F4F8F4F9F4F089591
:1053B0000E940D2AA59F900DB49F900DA49F800D73
:1053C000911D11240895B7FF0C94D8290E94D82963
:1053D000821B930B0895A1E21A2EAA1BBB1BFD0191
:1053E0000DC0AA1FBB1FEE1FFF1FA217B307E407C4
:1053F000F50720F0A21BB30BE40BF50B661F771F1C
:10540000881F991F1A9469F76095709580959095FB
:105410009B01AC01BD01CF010895A29FB001B39FD4
:10542000C001A39F700D811D1124911DB29F700DAD
:10543000811D1124911D0895F894FFCFD811E41116
:10544000141259125E127B127E128112841287127C
:105450008C128F12921297129A12D612401568155A
:105460000B1768150B179B15BC150B17BA16C7162B
:10547000FC1B711C041CCE1BD21B081CD61B0C1C55
:10548000181CE21B6A1CE61B1C1CEA1B201C481C87
:10549000EE1B241C4F1CF41B2A1C321CDA1B101C94
:1054A000DE1B141CF81B2E1C3E1C581C681CC81B41
:1054B000001C781C3F1D3F1D7A1D7A1D151EA91D5D
:1054C000A91DA91D2F1E9C1EAD1EAD1E931B971B53
:1054D000881B8F1B9B1B9F1BA31B7F1C8D1C941C5D
:1054E000991C9E1CA31CA81CAD1CB21CB71CBC1C88
:1054F000C11CC61CC91CCC1CD41AD41AD41AD41A68
:10550000D41AD41A0D2611265026692674267F2611
:1055100082268226822618261826FA26FD260027AD
:0E5520002527462749274B27702790279A27D3
:10552E00010000008505A90D8405A20D3905FFFFB8
:10553E00030100FF0000FFFF818283E200E900EA21
:10554E0000B500B600B700CD008301CC008A0192F1
:10555E000194012102230224022502260227022A97
:10556E0002B300B4006F0070009F01CB01959496BA
:10557E00973435366667F7F6F5F4F1F093923332D9
:10558E00313000FF0100010000FFFF0000010001AB
:10559E00FF00FD7FFF7FFF7FFF7FFF7FFF7F0031DB
:1055AE0031295A1B750A40226D3B011901AC006569
:1055BE00077E079E0700FF01020304050607080980
:1055CE000A0B0C0E0F101112131415161718191AA8
:1055DE001B1C1D1E1F202122232425262728292A95
:1055EE002B2C2D2E2F303132333435363738473978
:1055FE003A3BFF3C3D3E3F40414243444550460D01
:10560E0048494AFFFFFF4BFFFFFF4C4D4E4F5100E5
:10561E00001200210030003E0051005F006E007D40
:10562E00008F009E00AD00BB00CE00E000000F0F0B
:10563E000F1D0F2C0F3B0F490F580F670F760F845E
:10564E000F930FA20FB00FC60FE00F041A161A25F4
:10565E001A331A421A511A5F1A6E1A7D1A8C1A9A36
:10566E001AA91AB81ACA1AE01A06261A26282637AE
:10567E0026462654266326722681268F269E26AD22
:10568E0026C426E0260931213130313E314D315CC0
:10569E00316A31793188319731A531B931D134023E
:1056AE003D143D273D5E3D933DA23DB03DC340D1EF
:1056BE0040E040010101010101010101010101016F
:1056CE000101010404040404040404040404040198
:1056DE000101040404040404040404040404040185
:1056EE000104040404040404040404040101010478
:1056FE00040404040404040404010101010104016E
:06570E0001010101010090
:00000001FF
