:100000000C94F0030C9428040C9428040C942804F9
:100010000C9428040C9428040C9428040C942804B0
:100020000C9428040C9428040C94A1180C945D18CA
:100030000C9417230C9428040C9428040C94280482
:100040000C9428040C9428040C9428040C94280480
:100050000C9428040C947A190C9428040C94280409
:100060000C9428040C9428040C9428040C94280460
:100070000C9428040C9428040C9428040C94280450
:100080000C9428040C9428040C9428040C94280440
:100090000C9428040C9428040C9428040C94280430
:1000A0000C9428040C9428040C942804050109805D
:1000B000A101850319012AB700150126B700950192
:1000C00075108100C0050C0901A101850419012AE0
:1000D000A002150126A002950175108100C005013E
:1000E0000906A1018506050719E029E71500250184
:1000F0009508750181020507190029EF15002501F2
:1001000095F075018102050819012905950575010C
:100110009102950175039101C00660FF0961A1017B
:100120000962150026FF00952075088102096315F4
:100130000026FF00952075089102C005010906A15F
:1001400001050719E029E7150025019508750181CA
:10015000029501750881010507190029FF15002680
:10016000FF00950675088100050819012905950508
:1001700075019102950175039101C0000000000016
:10018000000000000000000000000000000000006F
:100190000000000000000000000000000000007EE1
:1001A0000F00D4FFFFFFC700000078000000000030
:1001B0000000002A2B2800000000000000000000C2
:1001C00000000000000029000000002C1E34202147
:1001D0002224342627252E362D3738271E1F20218E
:1001E00022232425263333362E37381F04050607ED
:1001F00008090A0B0C0D0E0F101112131415161707
:1002000018191A1B1C1D2F3130232D350405060724
:1002100008090A0B0C0D0E0F1011121314151617E6
:1002200018191A1B1C1D2F3130354C00010101011A
:1002300001010101010202020202020202020303A1
:100240000303030303030404040404040405050571
:100250000505060606060607070707070808080833
:10026000090909090A0A0A0B0B0B0C0C0C0D0D0DE0
:100270000E0E0E0F0F0F1010111111121213131476
:1002800014151516161717181819191A1A1B1B1CEE
:100290001D1D1E1E1F202021222223242425262648
:1002A000272829292A2B2C2D2D2E2F30313232337D
:1002B0003435363738393A3B3C3D3E3F4041424386
:1002C0004445464748494A4C4D4E4F50515354556A
:1002D0005658595A5B5D5E5F616264656668696B1A
:1002E0006C6D6F7072737577787A7B7D7E80828398
:1002F0008587888A8C8E8F91939596989A9C9EA0DC
:10030000A2A3A5A7A9ABADAFB1B3B5B7BABCBEC0E8
:10031000C2C4C6C9CBCDCFD1D4D6D8DBDDDFE2E4B1
:10032000E7E9EBEEF0F3F5F8FAFDFF00200010002E
:1003300022021200230313002404140025051500D3
:100340002606160027071700280818002909190093
:100350002A0A1A002B0B1B002C0C1C002D0D1D0053
:100360002E0E1E002F0F1F00503040005131410053
:100370005232420053334300543444005535450053
:100380005636460057374700583848005939490013
:100390005A3A4A005B3B4B005C3C4C005D3D4D00D3
:1003A0005F3F4F0080607000816171008262720067
:1003B00083637300846474008565750086667600C7
:1003C0008767770088687800896979008A6A7A0087
:1003D0008B6B7B008C6C7C008D6D7D008F6F7F0044
:1003E000B090A000B191A100B292A200B393A3007B
:1003F000B494A400B595A500B696A600B797A7003B
:10040000B898A800B999A900BA9AAA00BB9BAB00FA
:10041000BD9DAD00BF9FAF0120001001220212015F
:1004200023031301240414012505150126061601D2
:100430002707170128081801290919012A0A1A0192
:100440002B0B1B012D0D1D012E0E1E0150304001E6
:100450005131410152324201563646015A3A4A015F
:100460005B3B4B015C3C4C015D3D4D015E3E4E01F2
:100470005F3F4F29000000BE00BD00007F017F28C4
:10048000782778AC00AE00AB00A800AA00A9004C09
:100490000035001E001F0020002100220023002440
:1004A000002500260027002D002E002A004B002BDF
:1004B0000014001A000800150017001C0018000C9A
:1004C00000120013002F00300031004E00390004EC
:1004D000001600070009000A000B000D000E000FB7
:1004E0000033003400520028004A00E10000001DE3
:1004F000001B00060019000500110010003600372F
:100500000038005100E500A800E000027F047F00F1
:1005100000000000002C00000000000000057F210A
:1005200052E40050004F00010000003A003B003C44
:10053000003D003E003F00400041004200430044B7
:10054000004500010001000100010001000100015F
:100550000001000100010001000100010001000193
:1005600000010020782178277823782578297801E0
:100570000001000100010001000100010001000173
:1005800000010022782878247826782A7801000152
:100590000001000100010001000100010001000153
:1005A00000000001000100010001000100137001C2
:1005B000000100010001000100010020780100019C
:1005C0000001000000000000000100000000000029
:1005D0000001000100010001000100290000003AB3
:1005E000003B003C003D003E003F00400041004217
:1005F000004300440045004C0035001E001F002051
:100600000021002200230024002500260027002DC1
:10061000002E002A004B002B0014001A00080015C1
:100620000017001C0018000C00120013002F0030EF
:100630000031004E00390004001600070009000ACE
:10064000000B000D000E000F003300340052002894
:10065000004A00E10000001D001B00060019000513
:1006600000110010003600370038005100E500A8E6
:1006700000E000E300E2000000000000002C0000A9
:100680000000000000E6002352E40050004F00018B
:10069000000000BE00BD00077F087F28782778ACE7
:1006A00000AE00AB00A800AA00A9000100010001F3
:1006B0000001000100010001000100010001000132
:1006C00000010001000100010001002078217827CD
:1006D00078237825782978010001000100010001C4
:1006E00000010001000100010001002278287824A7
:1006F0007826782A7801000100010001000100013C
:1007000000010001000100010000000100010001E2
:10071000000100010013700100010001000100014F
:10072000000100207801000100010000000000002D
:1007300000010000000000000001000100010001B4
:10074000000100A900AA0027782878A900AA00279C
:1007500078287809025B00030100A0FA0904000070
:1007600001030101000921110100012240000705D8
:1007700081030800010904010002030000000921AF
:100780001101000122220007058203200001070554
:1007900003032000010904020001030000000921F5
:1007A00011010001226D00070584032000011201E0
:1007B00000020000000834340101000101020001C0
:1007C000060351003100000012034B006500790060
:1007D0006300680072006F006E00000004030904EB
:1007E00011241FBECFEFDAE0DEBFCDBF04B603FE9B
:1007F00018C08091F1059091F205A091F305B09198
:10080000F4058730904BA740B04B59F41092F10596
:100810001092F2051092F3051092F405E0E0F8E36F
:10082000099525E0AAEFB2E001C01D92A13FB207F1
:10083000E1F712E0A0E0B1E0E4E1F6E502C00590E6
:100840000D92AA3FB107D9F70E943E230C94842A47
:100850000C940000E8EDF0E080818E7F80831092A0
:10086000E2001092DA001092E100A0EEB0E08C916C
:1008700081608C9380818F77808319BCA7EDB0E075
:100880008C918E7F8C9380818F7E80831092B405B3
:1008900008952091E4003091E50095E6A9012091AA
:1008A000EC00822F817020FF06C08091E80080FF5D
:1008B00006C080E008952091E80022FD1AC08091D2
:1008C000D905882389F0853089F08091EB0085FD7A
:1008D0000FC02091E4003091E50042175307F9F270
:1008E0009150E1F684E0089582E0089583E0089550
:1008F00081E008958091DB0587FF13C08091E800B7
:1009000082FF06C08091E8008B778093E80004C0E6
:100910008091D9058111F2CF08958091D90588235E
:10092000D9F38091E80080FFF8CF8091E8008E77BE
:10093000ECCF982F9093E900242F762F50E0891761
:1009400031F07091EC002091ED005091F00021FD0C
:1009500007C09F5F973071F78093E90081E00895A9
:100960003091EB003E7F3093EB003091ED003D7F06
:100970003093ED003091EB0031603093EB007093D9
:10098000EC002093ED005093F0002091EE0027FD45
:10099000E0CF80E00895B0E0A0E0E1EDF4E00C9459
:1009A0000F29C8EDD0E088818F7E8883E7EDF0E0E5
:1009B00080818160808384E082BF81E08093B40580
:1009C00088818E7F888302EE10E0F80110821092F9
:1009D000DA0081EEC82ED12CF601108288818F7743
:1009E000888388818068888388818F7D888319BC0B
:1009F0001092D9051092DA051092D8051092D705F9
:100A000090EEE92EF12CF70180818B7F8083888125
:100A10008160888342E060E080E00E949904F601F2
:100A200080818E7F8083F8018081816080838081D6
:100A300088608083F70180818E7F808388818061D8
:100A40008883CDB7DEB7E8E00C942B29FC018091B8
:100A5000E1059091E20586179707A0F061157105F1
:100A600029F49091E8009E779093E80090E061155A
:100A7000710551F4911108C08091E80082FF34C0E3
:100A800080E00895BC01F2CF8091D9058823C1F19F
:100A90008530C1F18091E80083FD30C08091E8008D
:100AA00082FDEACF8091E80080FFE1CF8091F300E2
:100AB0002091F200382F6115710519F028303105A9
:100AC00058F091E02830310509F090E02091E800DD
:100AD0002E772093E800CBCF81918093F100615075
:100AE00071092F5F3F4FE7CF8091D905882341F0EF
:100AF000853041F08091E80083FFBECF81E008950A
:100B000082E0089583E0089508958091B6050895E0
:100B10002FB7F8946091AE057091AF058091B00544
:100B20009091B1052FBF0895209111012223C9F0A2
:100B30002091B20527FF15C0E62FE695E695E695CC
:100B4000EE31D8F4E80FF92FF11D677021E030E0A5
:100B500001C0220F6A95EAF720958281282322831B
:100B60000895FC01329608962191621303C0DF01BB
:100B700011971C92E817F907B9F708952091110110
:100B80002223C1F02091B20527FF14C0E62FE6957D
:100B9000E695E695EE31F8F4E80FF92FF11D677050
:100BA00021E030E001C0220F6A95EAF78281822BB2
:100BB00082830895FC0132962FEF30E04191641753
:100BC00051F02F3F19F4411101C0232F3F5F363000
:100BD000A9F72F3F09F40895820F911D27FD9A95DB
:100BE000FC0162830895A3E0B0E0E9EFF5E00C9426
:100BF00015292091AB053091AC0528173907A1F0D4
:100C00009093AC058093AB05E091A905F091AA05FE
:100C1000309751F024E029839B838A830680F781F3
:100C2000E02DCE01019609952396E2E00C9431293E
:100C3000A3E0B0E0EEE1F6E00C9415292091A705C1
:100C40003091A80528173907A1F09093A805809343
:100C5000A705E091A905F091AA05309751F023E08E
:100C600029839B838A830680F781E02DCE0101963C
:100C700009952396E2E00C943129E091A905F091C1
:100C8000AA05309729F00190F081E02D099508958B
:100C900080E00895FA01811101C0FB0109950895D2
:100CA000E7EEF5E0248130E1231B08F420E0248303
:100CB0008091DE0381608093DE030895E7EEF5E026
:100CC000248130E1230F08F42FEF24838091DE0389
:100CD00081608093DE0308959091E705937059F049
:100CE0008093E8056093E9054093EA058091DE036F
:100CF000822B8093DE030895E7EEF5E0438120E147
:100D0000421B08F440E0818121E0628190E00E9472
:100D10006C060895E7EEF5E0438120E1420F08F408
:100D20004FEF818121E0628190E00E946C0608957E
:100D3000E7EEF5E0628120E1621B08F460E081816A
:100D400021E0438190E00E946C060895E7EEF5E013
:100D5000628120E1620F08F46FEF818121E043811D
:100D600090E00E946C060895E7EEF5E0818121E0B5
:100D7000438162818850990B0E946C060895E7EECA
:100D8000F5E0818190E021E04381628108960E9434
:100D90006C0608959091E705937061F081110BC086
:100DA00094609093E705109210018091DE03862BEA
:100DB0008093DE030895803110F09C63F2CF880F9A
:100DC000880F982BEECF8091E70586958695815008
:100DD00009F48FE061E00E94CA0608958091E7055A
:100DE000869586958F5F803108F081E061E00E94F2
:100DF000CA0608950F931F93522F10E0F801EE0FCB
:100E0000FF1FEC5FFD4FA081A052BB0B9D01520361
:100E1000F001539FF00D1124000F111FD801AD5F99
:100E2000BD4F0C910057110B40039001419F300DB5
:100E300011242E0F3F1F37FF02C0215C3F4F96E069
:100E4000359527959A95E1F7620F1F910F910895B7
:100E50000F931F93522F10E0F801EE0FFF1FEC5F6E
:100E6000FD4FA081A052BB0B9D015203F001539F87
:100E7000F00D1124000F111FD801AD5FBD4F0C9173
:100E80000057110B40039001419F300D11242E0F8C
:100E90003F1F37FF02C021583F4F220F232F221F31
:100EA000330B620F1F910F910895EF920F93972FBD
:100EB00023E0029FB0011124759567956E0D792F7F
:100EC0000F91EF900895322F50E0FA01EE0FFF1FBF
:100ED000EC5FFD4F9081905297FD9195440F551F07
:100EE000FA01ED5FFD4F2081231B330B290F311DCC
:100EF00097FD3A95620F0895E42FF0E0EE0FFF1F83
:100F0000EC5FFD4F6081621B0895E42FF0E0EE0F6F
:100F1000FF1FED5FFD4F6081621B0895622F0895F2
:100F20000E94F71008950E94BD100895FC019B01D6
:100F3000009729F480E077FF2BC080E80895AC018A
:100F400097FF04C044275527481B590BB901640F6C
:100F5000751F37FD10C0241B350BC901A5E0880F94
:100F6000991FAA95E1F70E943C2980E2861BF7FFB2
:100F70000FC081950895CB0165E0880F991F6A9590
:100F8000E1F7BA01621B730B0E943C2980E6EECFA9
:100F90000895EF920F93CF93DF93D72FC82FC901F6
:100FA0000E19BA010E949607602F681B7D2F8C2FA7
:100FB000DF91CF910F91EF9008950F93CF93DF932F
:100FC000D72FC82FC901BA010E949607682F600F5A
:100FD0007D2F8C2FDF91CF910F910895EF920F937A
:100FE0001F93CF93DF93D62FC72F182FC9010E1948
:100FF000010FBA010E949607081B202F219F212D67
:101000001124822F6D2F7C2FDF91CF911F910F9193
:10101000EF900895E82F86FDE0952E2F2F7086FD26
:101020002F5FE695E695E695E670F0E0EE56FE4F0A
:101030009181929F902D212D112492959F70229540
:10104000207F922B2081920F87FD919580E8890F58
:10105000089540910C0150910D0125E038E0429F28
:10106000C001439F900D529F900D1124875E994CB3
:1010700090930D0180930C01890F0895AC0182308B
:10108000910508F408959FEF413E8EE1580740F422
:101090009A0195E0369527959A95E1F798E0920F99
:1010A00061E0E62FE90FFF27FF1F9F013595279588
:1010B000822F229FF001239FF00DF00D11244E1777
:1010C0005F0738F49FEF920F961758F78FEF860F50
:1010D00008952F3FE9F361E0620FF6CF0F93CF93AE
:1010E000DF93D72FC82F47FD419588E390E0841BFD
:1010F000910947FD9395889FB001899F700D700DF0
:101100001124229FC001239F900D900D1124860F62
:10111000971F0E943E08982F990F890F682F600F24
:101120007D2F8C2FDF91CF910F91089530E020E03B
:10113000869F212D969F200D311D1124C9010895F0
:10114000AF92BF92CF92DF92FF920F931F93CF93F4
:10115000DF93362F472FE82FF0E0E55DFD4F71114B
:101160000FC0E4918E2F2E2F6E2F722FDF91CF9113
:101170001F910F91FF90DF90CF90BF90AF90089597
:10118000C72FD0E02491F22E022F10E056E0659F89
:10119000C0011124EFEFF0E0BF010E94F128832F7E
:1011A00090E0880F991F35E5369FD001379FB00D2D
:1011B00011248A1B9B0B982F990F980F6F01CC1A43
:1011C000DD0AC09ED001C19EB00DD09EB00D11248D
:1011D0008B2F499FA0011124452F55276F01C41A59
:1011E000D50AC09EA001C19E500DD09E500D112465
:1011F0005F01A91AB108AC9E6001AD9ED00CBC9EE7
:10120000D00C1124CD2CDD24EC19FD09E09FE00168
:10121000E19FD00DF09FD00D1124ED2F62307105AC
:10122000A1F050F46115710509F49ECF613071058C
:1012300081F0EB2F852F98CF6430710569F080F035
:101240006630710509F490CFF4CFE22F2B2F8D2F4C
:101250008BCFE22F252F88CFEB2F822F2D2F84CFFE
:101260002B2F8F2DE52F80CFB0E0A0E0EAE3F9E04F
:101270000C940C296C01C091120181E1C89FC02D12
:10128000112411E11C0FB12E133510F032E5B32EED
:101290006091EB05669566958091E3059091E40574
:1012A0000E949608F82E80E48F0D0E940A0890E8AC
:1012B000A92EA80E8F2D0E940A0820E8922E980EC3
:1012C000D0E0CB1548F081E0123508F080E0CDB7D2
:1012D000DEB7EBE00C942829FE01E955FD4F808133
:1012E000909113018923A1F06091E8057091E905BF
:1012F0008091EA05EF2C0C2F292D4A2DF601099536
:101300000E94A008462F282F672FCE010E94930726
:101310002196D7CFB0E0A0E0E0E9F9E00C940A29EB
:101320005C01C091120181E1C89FC02D112411E11F
:101330001C0FF12E133510F032E5F32E6091EB0502
:1013400066958091E3059091E4050E949608782EB9
:10135000D0E0CF1548F081E0123508F080E0CDB73D
:10136000DEB7EDE00C942629FE01E955FD4F8081A2
:10137000909113018923C9F1CE01880F991F8755D8
:101380009E4FFC01E65AFF4F2081422F4057550BDC
:101390006A01855A9F4FFC018081282F2052330B10
:1013A0004901449F9001459F300D300D1124889CC8
:1013B000C001899C900D900D1124820F931F0E94F3
:1013C0003E08082F6091E8057091E9058091EA05D3
:1013D000E72C9401A601F50109950E94A008462F6B
:1013E000282F672FCE010E9493072196B2CFB0E03D
:1013F000A0E0EDEFF9E00C940F297C01C0911201FF
:1014000081E1C89FC02D112411E11C0FD12E13358D
:1014100010F032E5D32E6091EB0566958091E305DF
:101420009091E4050E949608C82ED0E0CD1548F0B2
:1014300081E0123508F080E0CDB7DEB7E8E00C942B
:101440002B29FE01E955FD4F8081909113018923DD
:1014500011F1CE01880F991F87559E4FFC01E55A67
:10146000FF4F20812052330B865A9F4FFC01408151
:101470004057550B6091E8057091E9058091EA05A8
:101480000C2DF70109950E94A008462F282F672FE1
:10149000CE010E9493072196C9CFB0E0A0E0E3E51A
:1014A000FAE00C9410297C01C091120181E1C89FDF
:1014B000C02D112411E11C0F012F133508F002E596
:1014C0006091EB056695669521E0620F08F46FEF79
:1014D0008091E3059091E4050E949608D82ED0E013
:1014E000C01748F081E0123508F080E0CDB7DEB7D4
:1014F000E7E00C942C29FE01E955FD4F8081909185
:101500001301892391F06091E8057091E9058091BC
:10151000EA052D2D4C2FF70109950E94A008462FB2
:10152000282F672FCE010E9493072196D9CF80E004
:101530000895F894E82FE295EF70F0E031A1282F9C
:101540002F7081E090E001C0880F2A95EAF7982F6C
:101550009095932391A392A1892B82A378940895C7
:101560009091B20592FF06C0282F28712830F9F417
:10157000877F846093FF06C0282F28712831F1F4FB
:10158000877E84612091B30520FF06C0382F387113
:101590003830D9F4877F816021FF06C0282F287159
:1015A0002831D1F4877E816194FD877E0895282FAC
:1015B00024712430F9F68B7F8860DCCF282F2471CA
:1015C000243101F78B7E8861DDCF382F31713130C6
:1015D00019F78E7F8860E0CF282F2171213121F704
:1015E0008E7E8861E1CFCF93DF93EC018238910545
:1015F000B9F108F041C08133910509F49FC050F55D
:101600008932910509F48FC08A9709F49EC0C115EB
:1016100020E5D20708F0BDC0C11530E4D30708F0BB
:101620000AC1C03ED10508F0A5C0CD3CD10508F0E7
:1016300000C1C83AD10508F08FC0C53AD10508F0FD
:10164000F0C0C130D10539F1209729F1C430D1055E
:1016500010F546C08533910509F460C0C997B9F605
:101660008091B205837009F044C18091B30583FF76
:1016700012C0C9E2D0E00FC0833E9105A1F178F419
:10168000803E910509F1823E910509F0C0CF80911D
:10169000B20582FD21C0CE01DF91CF910895863E33
:1016A000910561F1873E910571F1843E910509F044
:1016B000AECF8091B30581FFEECF8091B205C7EE2A
:1016C000D0E084FD0DC0E7CF8091B20580FD33C02E
:1016D0009091B30590FFDFCFC3EED0E084FFDBCF66
:1016E000D0E0C0E0D8CF8091B20582FDFFC09091DC
:1016F000B30590FDFEC084FFCECFF2CF8091B2053E
:1017000083FDDDCFC8CF8091B20583FDF5C09091F8
:10171000B30591FFF0CFC4EED0E0BDCF8091B2050C
:1017200085FFB9CFA6CF8091B20585FDE8C0809135
:10173000B30583FFB0CFC9E3D0E0ADCF8091B20550
:1017400086FFA9CFCAE2D0E0A6CF8091B20586FF7E
:10175000A2CFC1E3D0E09FCFC13CD10508F6C85A63
:10176000D0E0CC0FDD1FC15DDE4F0990D881C02DC8
:10177000D46491CFC11540E2D40708F0AAC0C115C6
:1017800081E0D80708F087CFC83ED10508F483CFA1
:10179000A7CFC03622E5D20718F5C03432E5D3070B
:1017A00008F053C0C03242E5D40708F047C0C11565
:1017B00082E5D80708F47FC02C2F2695269540E2B5
:1017C000249F900111248C2F8370C1E0D0E002C0CF
:1017D000CC0FDD1F8A95E2F7C22BD32BDD685BCFE0
:1017E000C03A22E5D20760F4C03832E5D30708F4E6
:1017F00041C0CF71D0E0DC2FCC27C46FD06A4BCF73
:10180000C03C42E5D40708F44AC0C03E82E5D80790
:1018100008F066CFDC2FCC27CC27DF71C06FD06AF1
:101820003ACFC55AD0E0C45DDE4FC881D0E0D06465
:1018300032CFD06530CFDF70D06A2DCFCF71D0E0FE
:10184000DC2FCC27C16FD06A26CF2C2F269526956A
:10185000277080E2289F900111248C2F8370C1E0B3
:10186000D0E002C0CC0FDD1F8A95E2F7C22BD32B4C
:10187000DC6811CF2C2F26952695277040E2249FF7
:10188000900111248C2F8370C1E0D0E002C0CC0FF6
:10189000DD1F8A95E2F7C22BD32BDA68FCCE8C2FA2
:1018A0008F710E94B00AC82FD0E0DC2FCC27CC2744
:1018B000DF71D062F0CE8C2F8F710E94B00A35E0BC
:1018C000D695C7953A95E1F7CF709C2FEC01D0697A
:1018D000E2CE8D2F8F710E94B00A90E0982F88275A
:1018E00088279F719C012C2BE901E3CFC2EED0E049
:1018F000D2CEC0EED0E0CFCEC6EED0E0CCCEC5E3A7
:10190000D0E0C9CE8091A00381111092A003089568
:10191000809590919F03982390939F0308958091C1
:101920007C0390914B03981301C008958F5F8770DB
:10193000FACFA82FA77023E0969587952A95E1F70F
:10194000FC01EE0FFF1FE80FF91FE60FF71F50E035
:1019500040E080E0219130E00A2E02C036952795C4
:101960000A94E2F721703327042E01C0220F0A9453
:10197000EAF7822B4F5F5F4F4330510559F70895C7
:10198000292F963068F48F3090F490E061E273E094
:101990003FE0239F800D911D11240E94990C089512
:1019A0002C5F223020F46EE173E090E0F6CF80E00F
:1019B0000895262F277091E001C0990F2A95EAF724
:1019C00023E0769567952A95E1F7FB01EE0FFF1F5F
:1019D000E60FF71FE40FF51F50E040E0682F70E0BE
:1019E0008191DF0111979B01042E02C03695279546
:1019F0000A94E2F7217021952827292328272C9380
:101A00004F5F5F4F4330510559F70895282F862FB8
:101A1000963070F42F3058F4622F70E02FE0929FD0
:101A2000600D711D112441E253E00E94D90C08950C
:101A30009C5F9230E0F7622F70E04EE153E0F5CF0B
:101A40008093F00508958091F005982F9670963058
:101A500021F488600E94200D0895877FFBCF21E04C
:101A600030E001C0220F8A95EAF720958091F005B9
:101A700082230E94200D089590917D0380958923F3
:101A800080937D03282F277091F4282F082E000CB7
:101A9000330B9217130659F09091B30592FF07C0CC
:101AA0008595859585950E942F0D10927D0308954B
:101AB00021E030E001C0220F8A95EAF78091F0051D
:101AC000822B0E94200D08958093A10308950F9307
:101AD0001F93CF93DF938B01EA019091D905943046
:101AE00061F58093E9008FEF9091E800815095FDBA
:101AF00006C095ED9A95F1F700008111F5CF809120
:101B0000E80085FF1AC00E944904811111C080912C
:101B1000E80085FD06C08091E8008E778093E8009C
:101B2000F2CFF80181918F018093F100219779F72D
:101B30008091E8008E778093E800DF91CF911F912C
:101B40000F91089543E050E0BC0184E00E94670DCE
:101B50000895CF93DF93EC0180911101811111C0A1
:101B600048E050E0BE0181E00E94670D80E2FE0186
:101B7000A7EBB5E001900D928A95E1F7DF91CF9147
:101B800008958091B20587FF05C040E284E050E0EF
:101B9000BE01EACF48E081E0FACF81E08093E00027
:101BA00080E28093D8001092C9008FE19EE40197F3
:101BB000F1F700C0000087E090EBDC018093F105B5
:101BC0009093F205A093F305B093F40588E19CE0AF
:101BD0000FB6F894A895809360000FBE90936000B4
:101BE000FFCFCF93DF93C6E0D3E060E0CE010E9449
:101BF000FD292196C11584E0D807B9F7DF91CF916F
:101C000008950F931F93CF93DF93142F022F8430E7
:101C1000F0F461111CC094E0899FE0011124CA50C6
:101C2000DD4F82E090E0442311F090E080E0632FEC
:101C30008C0F9D1F0E94FD2983E090E0112311F07D
:101C400081E090E0602F8C0F9D1F0E94FD29DF91A5
:101C5000CF911F910F9108951F93CF93DF93122F70
:101C60008430E0F46630D0F44F30C0F4C42FD0E0BC
:101C7000CC0FDD1F9EE1699FC00DD11D112494EB97
:101C8000899FC00DD11D1124632FCE0186960E941D
:101C9000FD29612FCE0187960E94FD29DF91CF910A
:101CA0001F910895B0E0A0E0E8E5FEE00C940A2959
:101CB00083E4C82E87E0D82E95E4A92E97E0B92EAC
:101CC00023E7E22E24E0F22EC0E08701D0E014C02A
:101CD000F40125913491472D6D2F8C2F0E942C0EED
:101CE00082E0880E911C73948FE07812F1CF025E2F
:101CF0001F4FDF5FD63019F04801712CE9CFF60194
:101D00002591349141E060E08C2F0E94010EF50195
:101D10002591349140E060E08C2F0E94010E84E018
:101D2000C80ED11CCF5F84E0A80EB11C84EBE80E76
:101D3000F11CC43009F0C9CFCDB7DEB7EDE00C948B
:101D40002629CF93C82F6FEF811163E282E290E0E2
:101D50000E94FD296FEFC11161E083E290E00E94D3
:101D6000FD296FEFC11163E184E290E00E94FD293B
:101D7000CF91089580E00E94A10E60E085E290E09E
:101D80000E94FD290E94520E0E94F10D81E00E94E6
:101D9000A10E0895FF920F931F93CF93DF93F42E1C
:101DA000843040F5611126C024E0829F8001112417
:101DB0000A501D4F82E090E0442311F090E080E053
:101DC000800F911F0E94DF29C82FD0E0DC2FCC2785
:101DD00083E090E0FF2011F081E090E0800F911F00
:101DE0000E94DF299E01282BC901CDB7DEB7E5E0AF
:101DF0000C942E2990E080E0F8CF0F931F93CF939F
:101E0000DF93843030F5663020F54F3010F5C42F65
:101E1000D0E0CC0FDD1F2EE1629FC00DD11D11243B
:101E200034EB839FC00DD11D1124CE0186960E94F4
:101E3000DF29082F10E0102F0027CE0187960E947F
:101E4000DF299801282BC901DF91CF911F910F91B4
:101E5000089590E080E0F8CF462F672F763038F471
:101E60004F3060F4843050F40E94FD0E08957D3FA1
:101E700041F4411103C041E0843048F090E080E03B
:101E800008957C3FD9F74111F9CF8430B8F760E06D
:101E90000E94CA0E0895CF92DF92FF920F931F9374
:101EA000CF93DF936C010091F0058091A103082B83
:101EB000C7E0D0E010E0FC2EC8010C2E02C09595C2
:101EC00087950A94E2F780FD0CC02197A0F7F12CCA
:101ED0008F2DDF91CF911F910F91FF90DF90CF90C9
:101EE0000895B6018C2F0E942C0F0E94F30A0197CF
:101EF00061F3EECFCF93DF93EC010E944B0FBE0155
:101F00000E942C0F0E94F30ADF91CF910895FC01EB
:101F100083819481892B29F08081918189238F3F4E
:101F200051F480E00895843FE1F717C0883EA8F09F
:101F3000813FB9F712C0808191810E947A0F9295FA
:101F40009F70963099F358F4925F9F70923048F7E3
:101F5000803F19F040F7883E20F781E008959A5FAE
:101F6000F4CF82E290E00E94DF29833289F483E299
:101F700090E00E94DF29813059F484E290E00E94D1
:101F8000DF2991E0833109F090E0892F8170089575
:101F900080E0FCCF6093DF034093E00324E630E071
:101FA00042E050E06FED73E0880F0E94D02821E0FE
:101FB000892B09F020E0822F0895CF93DF93C82F5B
:101FC00045EC6EEF0E94CA0F40E06DEF8C2F0E942F
:101FD000CA0FD0E040E06D2F8C2F0E94CA0FDF5F48
:101FE000D831C1F745EC6EEF8C2F0E94CA0F41E04B
:101FF0006DEF8C2F0E94CA0FD0E040E06D2F8C2F28
:102000000E94CA0FDF5FD03CC1F745EC6EEF8C2F0A
:102010000E94CA0F43E06DEF8C2F0E94CA0F40E070
:102020006FE08C2F0E94CA0F40E060E18C2F0E946D
:10203000CA0F4FEF61E08C2F0E94CA0F41E060E0B1
:102040008C2F0E94CA0F8FE39CE90197F1F700C023
:102050000000DF91CF910895EF92FF920F931F93AD
:10206000CF93DF93E82EC62F062F10E00B551A4FA3
:10207000F80180818823D1F045EC6EEF8E2D0E940F
:10208000CA0F40E06DEF8E2D0E94CA0FF8E1CF9F7E
:10209000E0011124CB58DA4FF12C49916F2D8E2D90
:1020A0000E94CA0FF39488E1F812F7CFF80110826A
:1020B000CDB7DEB7E6E00C942D29AF92BF92CF9258
:1020C000DF92FF920F931F93CF93DF93F82EC62FCB
:1020D000C62ED12CC6018D589A4F5C01FC0180811F
:1020E000882381F145EC6EEF8F2D0E94CA0F41E0ED
:1020F0006DEF8F2D0E94CA0FF0ECCF9FE0011124ED
:10210000CD50DC4FFF0C10E000E00093DF03DE0158
:10211000A00FB11FE0EEF3E08D91819383E0E03FEB
:10212000F807D1F724E630E041E150E06FED73E0CD
:102130008F2D0E94D028892B89F4005F1F4F003C0F
:10214000110519F7F5011082DF91CF911F910F91C1
:10215000FF90DF90CF90BF90AF900895F601EB55C0
:10216000FA4F81E08083EECF60E080E50E945D1051
:1021700061E08FE50E945D100895A4E0B0E0E3EC1B
:10218000F0E10C941229F62E042F122F82359105BE
:1021900050F5880F991F880F991FBC01655D7C4F12
:1021A00044E050E0CE0101960E94B92989818370F4
:1021B000AA81E82FF0E020EC829FC00111248D500D
:1021C0009C4FA80FB92FB11DFC92AB81A80FB92F5E
:1021D000B11D0C932C81820F911DDC011C93ED58D5
:1021E000FA4F81E080832496E5E00C942E29FF923B
:1021F0000F931F93CF93DF93182F062FF42ED0E069
:10220000C0E02F2D402F612FCE010E94BD102196DE
:10221000C235D105B1F7CDB7DEB7E5E00C942E2974
:10222000A4E0B0E0E6E1F1E10C940F290E9430282F
:1022300080E50E94DD0F8FE50E94DD0F0BE213E0C9
:1022400088E1C82EEE24E394F12CDD24D39444E0FD
:1022500050E0B801CE0101960E94B9296A815B81E4
:102260004C818981837090E0E62FE695E695E695AE
:10227000C89E9001C99E300D11242B583A4FE20F91
:10228000F32FF11D6770D70101C0AA0F6A95EAF715
:1022900060816A2B6083E52FE695E695E695E20F6F
:1022A000F32FF11D5770B70101C0660F5A95EAF779
:1022B0005081562B5083E42FE695E695E695E20F84
:1022C000F32FF11D4770970102C0220F331F4A956B
:1022D000E2F7A9012081242B20838B559A4FFC0122
:1022E000D0820C5F1F4FF4E003371F0709F0AFCF18
:1022F00060E080E50E942C1061E08FE50E942C10C8
:102300002496E8E00C942B291F93CF93DF93EC01E4
:10231000FC01E955FD4F80816823B1F00E94A92995
:10232000182F0E94A9298F77782F20E8720F08F4C0
:102330007FEF612F8091EA050E94A008462F282F89
:10234000672FCE010E949307DF91CF911F910895CF
:10235000B0E0A0E0EEEAF1E10C940F29182F809193
:102360000F01811323C09091E705937020910E0116
:1023700030E081E09217130609F480E081708093C9
:1023800014018091EC0590911301981739F0809316
:10239000130140E060E080E00E949007103160F49B
:1023A000E12FF0E0EA57F54D0C94502981E0E6CF9B
:1023B00080911401811102C0C0E085C040E060E05E
:1023C00080E00E949007F8CFC091120181E1C89F80
:1023D000C02D112401E10C0FF02E033510F092E511
:1023E000F92E6091E8057091E9058091EA050E9457
:1023F000A008E62ED72EC82ED0E0CF1528F0C1E0D9
:10240000023508F460C0D8CFFE01E955FD4F808148
:1024100090911301892331F02C2D4E2D6D2DCE017D
:102420000E9493072196E9CFC091120181E1C89FD4
:10243000C02D112401E10C0FF02E033510F082E5C0
:10244000F82EE090E805D091E905D090EA0560917A
:10245000EB056695669566958091E3059091E40598
:102460000E9496080E940A08805887FD8195880F6F
:10247000382F2D2D329F312D1124832F6E2D7D2F3E
:102480000E94A008E62ED72EC82ED0E0CF1508F067
:10249000B6CFFE01E955FD4F80819091130189234C
:1024A00031F02C2D4E2D6D2DCE010E9493072196DB
:1024B000EDCF8EEE97E00E948A0904C08EE897E087
:1024C0000E944D0AC82F809112018F5F80931201E4
:1024D000C1110CC082E08093100180911401811120
:1024E00005C0111103C083E080931001CDB7DEB7A2
:1024F000E8E00C942B2985E897E0E2CF8CE797E0A1
:10250000DFCF83E697E0DCCF85E597E0D4CF8EE69A
:1025100098E00E94F709D6CF8DED97E0FACF89ECCD
:1025200097E0C9CF88E297E00E943409CBCF8AEFC9
:1025300096E0FACFC0911401C1111EC06091EB0565
:1025400020E1620F08F46FEF8091E3059091E405BC
:102550000E94960865E070E00E94F128892B09F03E
:102560002BCF0E94A92962E570E00E943C2960916E
:1025700013010E948411A7CFC091120181E1C89F6D
:10258000C02D112401E10C0F802F033508F082E5E6
:10259000D0E0E82EF12CCE15DF050CF030CF6091A5
:1025A0001301CE010E9484112196F5CF8091120172
:1025B00001E1809F000D11244091E3055091E40555
:1025C0006091E5057091E6058091D5039091D60361
:1025D000A091D703B091D80384179507A607B70732
:1025E00008F00DCF0E942908F82E0E94290892E5D4
:1025F000891BF0F7890FC82FD0E0FE01E955FD4F88
:10260000809113019081892309F4F9CE20E040E004
:1026100060E0F1FC13C00E942908F82E0E942908EE
:10262000782F76952FE7720F08F47FEF6F2D80914A
:10263000EA050E94A008462F282F672FCE010E948E
:1026400093072091EB0530E1230F08F42FEF60E1B1
:10265000822F90E00E949608BC0184EF91E00E94D6
:10266000F1288091E3059091E405A091E505B091F2
:10267000E605860F971FA11DB11D8093D50390938A
:10268000D603A093D703B093D803B9CE46E050E069
:102690006CE170E087EE95E00E94ED291092DE0378
:1026A00008950E9488056093D9037093DA0380939C
:1026B000DB039093DC032091DD0330E0211108C09F
:1026C0002091E705322F337019F0322F3695369569
:1026D000209110012130A9F0222329F02230A9F005
:1026E0002330F1F00895109212016093E305709386
:1026F000E4058093E5059093E60581E08093100161
:102700000895832F0E94A811089530930F0180919E
:10271000E705837080930E010E94B41083E0EECF32
:102720008091DE0381110E9446134091E305509190
:10273000E4056091E5057091E6052FB7F894809166
:10274000AE059091AF05A091B005B091B1052FBF36
:10275000841B950BA60BB70B4097A105B10510F094
:10276000109210010895E7EEF5E085E180838091F5
:10277000150190911601A091170181839283A38383
:102780008FE784838FEF85830E944613089590918D
:10279000B30592FB222720F9281779F080FB92F9E4
:1027A0009093B3056091B2057091B30584E090E019
:1027B0000E941B2A82E00E943C0D089590E080E078
:1027C0000E94E729873E9E4F19F40E94B10F089599
:1027D00080E0089580919F0390919E03892B8093C0
:1027E000FC029091A0039923A1F0892B8093FC0215
:1027F000809111018823E1F18091B20587FF38C0F3
:102800008EE1EEEFF2E090E08150A0F591110E9490
:10281000820C40E250E06EE773E08CEF92E00E94A1
:10282000C229892B21F180E2ECEFF2E0AEE7B3E0C0
:1028300001900D928A95E1F7E091A905F091AA0522
:102840003097A9F080911101882359F08091B20549
:1028500087FF07C08091FC028093FD0286E0809391
:10286000FC020280F381E02D8CEF92E0099508953F
:1028700086E0C7CF2191222339F29F5FC5CF109206
:102880009F0380911101EEEFF2E08823B1F0809177
:10289000B20587FF12C08EE1DF011D928A95E9F72C
:1028A00090E080E00E94180690E080E00E94F3052E
:1028B00010929E030E94EA13089586E0EDCFAAE2EB
:1028C000B0E0E5E6F4E10C9414298BED95E020915D
:1028D000F100DC012D93CD01B5E0833E9B07B9F7F4
:1028E0008091DC05833009F472C0B8F4813009F4BA
:1028F00049C0823009F4B3C08091E80083FF8BC2E5
:102900008091DB059091DC059A3008F084C2E92FB4
:10291000F0E0EA56F54D0C9450298A3009F48EC047
:102920008B3009F471C0893039F78091DB05813231
:1029300019F78091DF059091E005009711F002975B
:10294000D9F68091E800877F8093E8008091E800C5
:1029500082FF38C09091F3008091F200029731F429
:102960008091F100813011F0863021F48091F100E6
:102970008093B6058091E8008B778093E8000E94F1
:102980007A04BACF8091DB05813A09F0B5CF809106
:10299000E800877F8093E8008091DF059091E00553
:1029A000892B61F460E287EB95E070E00E942605D8
:1029B0008091E8008B778093E8009ECF60E090E004
:1029C00080E0F3CF8091D9058111C0CF95CF809160
:1029D000DB05813A09F090CF8091DF059091E00509
:1029E000892B09F089CF8091E800877F8093E800E8
:1029F0008091E80080FFFCCF809111018093F1006D
:102A00008091E8008E77B9CF8091DB05813209F0A3
:102A100073CF8091DF059091E005892B09F06CCF91
:102A20008091E800877F8093E8000E947A0480917B
:102A3000DD05809311010E943F145ECF8091DB057C
:102A4000813209F059CF8091E800877F8093E800B8
:102A50000E947A048091DE058093B5054DCF809168
:102A6000DB05813A09F048CF8091E800877F8093A9
:102A7000E8008091E80080FFFCCF8091B505BECFD3
:102A8000803899F0823809F0C6C18091DF058F70D7
:102A9000873008F0C0C18093E9008091EB0085FB8E
:102AA000882780F91092E90006C08091D70590919F
:102AB000D805911182609091E800977F9093E8008B
:102AC0008093F1001092F1008091E8008E779FC111
:102AD000882309F48DC1823009F09DC18091DD0504
:102AE000811190C18091DF058F702FEF280F263064
:102AF00008F091C18093E9002091EB0020FF82C192
:102B0000933031F48091EB0080628093EB007AC1C6
:102B10009091EB0090619093EB0021E030E001C0D8
:102B2000220F8A95EAF72093EA001092EA0080913A
:102B3000EB008860EACF81116EC11091DD051F772F
:102B40008091E3008078812B8093E3008091E800FE
:102B5000877F8093E8000E947A048091E80080FFDC
:102B6000FCCF8091E30080688093E30082E0111144
:102B700083E08093D9054FC18058823008F04BC163
:102B80002091DD053091DE052C3DE3E03E07A1F507
:102B900083E08A838AE289834FB7F894DE01139633
:102BA00020E03EE051E2E32FF0E050935700E49143
:102BB00020FF03C0E295EF703F5FEF708E2F90E033
:102BC000EA30C0F0C7968D939D932F5F243159F75B
:102BD0004FBF8091E800877F8093E8006AE270E051
:102BE000CE0101960E9426058091E8008B778093A4
:102BF000E80011C1C096E7CF8091DF059091E00514
:102C0000432F55274330510509F44AC078F5413028
:102C1000510509F47AC08BE590E0E3E5F7E0423036
:102C2000510509F0F8C02091E800277F2093E800C3
:102C30002091E1053091E2058217930708F49C0189
:102C400040E02115310509F065C0411163C0809154
:102C5000E80082FDC9CF8091D905882329F285300B
:102C600019F28091E80083FFF2CFBECF41325105C7
:102C700009F43CC04232510509F0CDC083309105C2
:102C800008F0C9C0FC01EE0FFF1FE356FE4F019094
:102C9000F081E02D86569E4FDC018C9190E01AC0A9
:102CA000332721303105D1F02115310561F0223073
:102CB000310509F0B0C0E0ECF7E0E4918E2F90E030
:102CC000E0ECF7E007C0ECEDF7E0E4918E2F90E048
:102CD000ECEDF7E0009709F49EC0A5CFE8ECF7E033
:102CE000E4918E2F90E0E8ECF7E0F4CF833091058B
:102CF00008F091C0880F991FFC01ED55FE4F01901F
:102D0000F081E02D89E090E08ECF82E190E0EEEA64
:102D1000F7E089CF8091D905882309F465CF853004
:102D200009F462CF8091E80083FD5ECF8091E800D6
:102D300082FD8DCF8091E80080FF83CF9091F300DA
:102D40008091F2002115310519F08830910550F07D
:102D500041E0089709F040E08091E8008E77809389
:102D6000E8006FCF44914093F10031962150310932
:102D70000196E8CF803809F04EC08091E800877F47
:102D80008093E8008091DA058093F1009DCE811157
:102D900042C01091DD051230F0F58091E800877F88
:102DA0008093E8001093DA050E947A04112311F051
:102DB00084E005C08091E30087FDFACF81E0809335
:102DC000D90542E061EC81E00E94990442E261ECA5
:102DD00084E00E94990442E261EC82E00E9499043E
:102DE00042E260EC83E00E9499048091D90513C00F
:102DF0008091DD05813079F481E0933009F080E045
:102E00008093D8051092E9008091E800877F809335
:102E1000E8000E947A048091E80083FF0AC0809154
:102E2000E800877F8093E8008091EB0080628093C8
:102E3000EB00AA96E3E00C9430290E943F142FEF98
:102E400084E39CE0215080409040E1F700C0000006
:102E500088E19CE00FB6F894A895809360000FBEBF
:102E600090936000FFCF882321F00E94880C0E947D
:102E7000EA130895882339F090919F03982B90933B
:102E80009F030E94EA130895882351F19CEF980F45
:102E9000913A40F4682F8CEF92E00E9494050E94D2
:102EA000EA13089590E2980F983050F4877091E0FB
:102EB00001C0990F8A95EAF7892F0E94880CEFCFFD
:102EC0009BE5980F933028F490E080E00E9418066C
:102ED0000895885A893120F490E080E00E94F3053B
:102EE0000895CF93C82F8823D9F18CEF8C0F813AA6
:102EF000C8F580911101882311F18091B20587FFF7
:102F00001EC0EC2FE695E695E695F0E0E450FD4F07
:102F1000828190E04C2F477021E030E002C0220F08
:102F2000331F4A95E2F782239323892B91F06C2F6C
:102F30008CEF92E00E9494050E94EA130AC0EEEF23
:102F4000F2E084E093E02191C21789F38E179F0786
:102F5000D1F76C2F8CEF92E00E94BE050E94EA131D
:102F6000CF91089580E28C0F883068F4C77021E01B
:102F700030E001C0220FCA95EAF780919F03822BAF
:102F800080939F03EBCFEBE5EC0FE33040F4F0E0F0
:102F9000E45DFE4F808190E00E941806E1CFC85AA0
:102FA000C931F0F6EC2FF0E0EE0FFF1FE15DFE4FB0
:102FB000808191810E94F305D3CF1F93CF93DF933C
:102FC000182FD0E0C0E0893311F4C0E5D0E0812FA4
:102FD0000E947117209739F4812F0E944417DF91C6
:102FE000CF911F9108958FE99FE00197F1F700C0FD
:102FF00000002197EFCF67EE7EEF90E080E00E9427
:103000001B2A60E082E090E00E94FD2960E083E0FE
:1030100090E00E94FD291092A10360E074E184E039
:1030200090E00E941B2A60E086E090E00E94FD296B
:103030006FEF87E090E00E94FD2940E050E0BA0188
:1030400088E090E00E940F2A60E08DE090E00E940E
:10305000FD2940E050E0BA0188E190E00E940F2A8B
:1030600060E087E190E00E94FD2940E050E0BA0175
:103070008CE190E00E940F2A70E060E080E290E036
:103080000E941B2A40E050E0BA0188E190E00E94D3
:103090000F2A80E00E94A10E0E94BA0E40E050E08C
:1030A000BA018FE090E00E940F2A40E050E0BA01A0
:1030B00083E190E00E940F2A08951F920F920FB6AD
:1030C0000F9211242F933F934F935F936F937F93AE
:1030D0008F939F93AF93BF93CF93DF93EF93FF9320
:1030E000D091E900DF708091EC00C82FC17080FDA5
:1030F000C0E81092E9008091F000877F8093F00093
:1031000078940E945F141092E9008091F00088602A
:103110008093F000CD2BCF70C093E900FF91EF9129
:10312000DF91CF91BF91AF919F918F917F916F91DF
:103130005F914F913F912F910F900FBE0F901F9075
:1031400018951F920F920FB60F9211242F933F9351
:103150004F935F936F937F938F939F93AF93BF939F
:10316000EF93FF938091E10082FF09C08091E2001C
:1031700082FF05C08091E1008B7F8093E100809108
:10318000DA0080FF24C08091D80080FF20C08091A9
:10319000DA008E7F8093DA008091D90080FF9DC095
:1031A00080E189BD82E189BD09B400FEFDCF81E0E7
:1031B0008093D9058091B405811109C00E942A0429
:1031C0000E94CB048091E20084608093E2008091B1
:1031D000E10080FF17C08091E20080FF13C0809162
:1031E000E2008E7F8093E2008091E2008061809314
:1031F000E2008091D80080628093D80019BC85E0FD
:103200008093D9058091E10084FF2BC08091E2007A
:1032100084FF27C080E189BD82E189BD89B5982FEF
:10322000917080FFFBCF8091D8008F7D8093D80074
:103230008091E1008F7E8093E1008091E2008F7E9B
:103240008093E2008091E20081608093E2008091AF
:10325000DA05882309F447C084E08093D90580917A
:10326000D9058091E10083FF27C08091E20083FFB0
:1032700023C08091E100877F8093E10082E080930A
:10328000D9051092DA058091E1008E7F8093E100EC
:103290008091E2008E7F8093E2008091E200806165
:1032A0008093E20042E060E080E00E949904809117
:1032B000F00088608093F000FF91EF91BF91AF9193
:1032C0009F918F917F916F915F914F913F912F913E
:1032D0000F900FBE0F901F90189519BC1092D90532
:1032E0001092B40574CF8091E30087FD93E0909332
:1032F000D905B5CF78941F921FB61F9211248F93D2
:103300009F93AF93BF938091AE059091AF05A0912D
:10331000B005B091B1050196A11DB11D8093AE0518
:103320009093AF05A093B005B093B105BF91AF9155
:103330009F918F911F901FBE1F9018959C014FB7B2
:10334000F8948091AE059091AF05A091B005B09131
:10335000B1054FBF821B930B08952FB7F89480914E
:10336000AE059091AF05A091B005B091B1052FBF0A
:1033700008950F931F93CF93DF93C62FD42F022F5F
:10338000FC0182818823A9F06093EF050E94AD19AA
:103390009093EE058093ED05C77081E001C0880F22
:1033A000CA95EAF70E943A17DF91CF911F910F91CA
:1033B00008958091EF05681332C08091ED059091DA
:1033C000EE050E949E19883C910548F510E21D0FFC
:1033D000CD17B9F080E28C0F883040F4C77081E0DF
:1033E00001C0880FCA95EAF70E943317183048F4D5
:1033F00081E09D2F977001C0880F9A95EAF70E948F
:103400003A17802F0E94DD17183070F6D77081E0D0
:1034100001C0880FDA95EAF70E943317C5CFC7704D
:1034200081E001C0880FCA95EAF7F6CFA8E0B0E0C6
:10343000ECE1FAE10C9407298C01DC0113968D91E3
:103440009C911497892B39F08C9111969C9189232A
:103450008F3F09F092C52896E0E10C9423290E9441
:103460004B0FF82E682F89819A810E94060D698181
:103470007A818F2D0E942C0F7C01F8019281992373
:1034800009F45AC59701225037472031310508F019
:1034900068C58FEF93E00E94DF29811185C0EA940F
:1034A000EA9476E0A72E73E0B72EE11047C0FE0144
:1034B000339686E0DF011D928A95E9F76AE0462E91
:1034C0007501BFEFEB1AFB0AC5010E94DF29898352
:1034D0001A82882309F468C0813009F078C0650138
:1034E000E2E0CE0ED11CC7010E94DF298A83882327
:1034F00009F45AC09FEF980F933070F5F3E0AF0EC8
:10350000B11CC6010E94DF298B83882309F44CC0BB
:103510001C82DE0111967D01F7012081222381F2B8
:10352000213009F094C091818281913009F051C01D
:10353000F2E0EF0EF11C0E94DD1752C0A114F4E07E
:10354000BF0691F1C5010E94DF29811101C0EA94F3
:103550002FEFA21AB20AA9CF56018430D1F652E059
:10356000E52EF12C56012FEFA21AB20AC6010E94D5
:10357000DF29E1E0F0E0EC0FFD1FEE0DFF1D808381
:10358000882391F08C3741F4E2E0F0E0EC0FFD1F6E
:10359000EE0DFF1D1082BDCF3FEFE31AF30A650168
:1035A00087E0E816F104F1F680917D03877009F455
:1035B00052CFD80112968C91882309F44CCF809178
:1035C000B30582FF48CF82E00E943C0D44CF5701F3
:1035D000A0CF923049F422E0E20EF11C0E94711754
:1035E000EFEFEE1AFE0A98CF933031F432E0E30E9B
:1035F000F11C0E944417F4CF943021F08FEFE81AA9
:10360000F80AEECF92E0E90EF11C30E020E0B701BD
:103610006F5F7F4FD70111964C918053990B8A3081
:10362000910550F021503109D8F2EFE9FFE03197D0
:10363000F1F700C00000F6CF429EF001439EF00D6E
:1036400011249C012E0F3F1F842F7B01E0CFE22F1E
:10365000F0E0E555FE4F5490822F8695869586952D
:1036600090E0FC01E556FE4F64902770712C022E0D
:1036700002C0759467940A94E2F731E063227724DC
:10368000FC01E557FE4F8490912C022E02C09594C8
:1036900087940A94E2F7A1E08A229924FC01E55874
:1036A000FE4FC490D12C02C0D594C7942A95E2F75E
:1036B000B1E0CB22DD246114710419F081EE0E9487
:1036C00071178114910419F086EE0E947117852DEF
:1036D0000E94DD178114910419F086EE0E944417B0
:1036E0006114710419F081EE0E944417C114D104D1
:1036F00009F476CF8CE21FCF81E00E94580D03C001
:1037000081E00E942F0D0E94230D4ECF82E0F9CF61
:10371000F701E851FC47E730F10508F07CC0E056BE
:10372000F54D0C945029992329F08FE992E00E94DD
:10373000F3053ACF90E080E0FACF9923D9F380EAFD
:1037400092E0F5CFF701EA5DFD478081992319F0FA
:103750000E94711729CF0E94441726CF992309F49C
:1037600023CF80911C03811109C081E080931C0349
:1037700083EE0E9471178CE20E9471170E948805E7
:1037800013CF970127503F477901D12CEE0CFF1C36
:10379000EE0CFF1C91111BC0C701885E9E4F7C017F
:1037A000DC01CC90DC1408F0FFCEF701ED0DF11D2B
:1037B00081810E944417D394F5CFF701ED0DF11DDF
:1037C00081810E947117D394DC14B8F3EDCEF70118
:1037D000E85EFE4F7F01C080F7CF26E241EE61EE4A
:1037E000C8010E94B919E0CE27E245EE65EEF8CF98
:1037F00026E241EE60EEF4CF27E245EE64EEF0CF34
:1038000026E241EE62EEECCF27E245EE66EEE8CF2F
:1038100028E241E0EBCF992309F4D9C31092EF05D8
:10382000C7019057839708F0BBC384E090E00E94E3
:10383000E7299093B3058093B205F701E150F04773
:10384000E232F10520F4E955F54D0C9450298091B0
:10385000B20581608093B20595C08091B305886000
:103860008093B3058FC08091B2058260F3CF8091C1
:10387000B2058460EFCF8091B2058860EBCF809174
:10388000B3058160EDCF8091B3058260E9CF80916F
:10389000B2058061DFCF8091B2058062DBCF80917D
:1038A000B2058064D7CF0E943F148091B205806832
:1038B000D1CF8091B2058C60CDCF8091B30583606C
:1038C000CFCF8091B2058E7FC5CF8091B305877F22
:1038D000C7CF8091B2058D7FBDCF8091B2058B7F20
:1038E000B9CF8091B205877FB5CF8091B3058E7F28
:1038F000B7CF8091B3058D7FB3CF8091B2058F7E16
:10390000A9CF8091B2058F7DA5CF8091B2058F7B25
:10391000A1CF0E943F148091B2058F779BCF8091F9
:10392000B205837F97CF8091B3058C7F99CF80912B
:10393000B20582FB992790F921E0922790FB82F94A
:1039400090FB83F987CF8091B305982F9095917064
:103950008E7F892B90FB81F983CF9091B205892FBF
:103960008F7B96FF806476CF0E943F149091B205C2
:10397000892F97FB87F980586DCF61E08EE090E04A
:103980000E94FD296091B2057091B30584E090E03A
:103990000E941B2A0E943F1407CE60E0EFCF909157
:1039A000B205892F8F7E94FF806154CF9091B2052C
:1039B000892F8E7F90FF81604DCF9091B305892F25
:1039C000877F93FF88604CCF80911D0369E281114E
:1039D00065E38CEF92E00E949405F6C28091E705C2
:1039E00091E089278093E705109210018091DE0312
:1039F00081608093DE03D8CD43EE56E06EEE76E034
:103A00000E944A06D1CD4EEE56E063EE76E0F8CF46
:103A100044EB56E06FEB76E0F3CF4FEB56E064EB10
:103A200076E0EECF48E956E066EA76E0E9CF46EA8E
:103A300056E068E976E0E4CF4CE756E06AE876E0E5
:103A4000DFCF4AE856E06CE776E0DACF40E556E0B3
:103A50006EE576E0D5CF4EE556E060E576E0D0CF76
:103A600061E081E00E94CA069FCD61E082E0FACF6A
:103A700061E085E0F7CF61E08AE0F4CF0E943F1477
:103A8000FFEF24E33CE0F15020403040E1F700C07C
:103A900000000E94CD0D6FEF7FEF90E080E00E946C
:103AA0001B2A0E941D178091B30582FB882780F98D
:103AB00091E089270E94C713F8018281E080F1809C
:103AC000882309F447C0C7010E944B0FD82E682FE6
:103AD000C7010E94060DB7018D2D0E942C0F0E9478
:103AE000F30A982EF92E882ED8011296EC90129790
:103AF0001596CC90C2943FE0C32280917D038770DD
:103B0000C1F0BE2CEE20B1F0892F807F803421F0EF
:103B100080E2890D883068F08091B30582FF09C08A
:103B200082E00E943C0D80917D038770BB24B3949A
:103B30008111B12CAF2CA2942FE0A222BBE0BA15C8
:103B400008F477C0EA2DF0E0E753F54D0C945029C6
:103B500080E0B0CFC7010E94C00CD82EBCCFEF2DA3
:103B6000EF70DE2E8F2D807F19F0D29490EFD92246
:103B7000EE20B9F0DD2069F080E2890D883010F088
:103B8000811009C080919F03D82AD0929F030E9480
:103B9000EA13892D4CC080919E03D82AD0929E03AF
:103BA000F6CF892D0E944417DD2009F442C080E23F
:103BB000890D883010F0811004C08D2D0E94880C72
:103BC00006C0D09480919E03D822D0929E030E947A
:103BD000EA132FC0FF2DFF70DF2E8F2D807F8032E4
:103BE00019F0D29480EFD822882089F021E0821643
:103BF00009F46CC0EE2009F476C0CC2009F46CC046
:103C0000F801858180FFC5CF8F70858365C02091C5
:103C1000B30522FD34C0EE2061F1DD2039F0809142
:103C20009F03D82AD0929F030E94EA1380E00E944B
:103C30007117AA2DA850BB0B149710F40E943D06D3
:103C4000BB2009F408CC80917D0380FD04CCF801F1
:103C500012828595859585950E94580DC8010E9410
:103C6000161A80917D038595859585950E942F0D67
:103C7000F2CB80E00E944417DD20D9F29ECFEE20E7
:103C800099F09091A0038D2D892BC11003C00E9443
:103C90003A17CFCF31E0C312FACF22FFCACF98171D
:103CA00041F28093A003C5CFC11006C00E94820CD0
:103CB0008D2D0E943317BDCF81E0C81609F4B9CF0E
:103CC0008D2D0E9433170E94820CB3CFEE2031F06D
:103CD00095E09C1508F4ADCF8D2DD9CFA4E0AC159F
:103CE00008F4A7CFE5CFCC2019F3F9E38F1209C070
:103CF0002FEF37EE83E0215030408040E1F700C0E5
:103D00000000892D0E94441794CF8F2D86958695AB
:103D1000837069F0813009F08CCF892D9F2D9370CD
:103D2000E11002C080E090E00E94F30582CF892D6F
:103D30009F2D9370E11002C080E090E00E94180671
:103D400078CF8F2D837091F5E11073CF492D429577
:103D500046954770440F440F892D8F70042E01C083
:103D6000880F0A94EAF7292D207194FE07C02FE0EE
:103D700030E001C0220F4A95EAF720953F2D369595
:103D800036953370323069F050F44091A1033130F0
:103D900029F0822B84230E94640D4BCF842B822B2D
:103DA000FACF282B8091A1038227F5CF8695EE20AC
:103DB00011F08F2D8170882309F43BCF492D429556
:103DC00046954770440F440F892D8F70042E01C013
:103DD000880F0A94EAF7292D207194FE07C02FE07E
:103DE00030E001C0220F4A95EAF720953F2D369525
:103DF00036953370323069F050F44091F00531302F
:103E000029F0822B84230E94200D13CF842B822B38
:103E1000FACF282B8091F0058227F5CF9F2D9F7038
:103E2000F92EEE2029F0892F0E94580D892D2FCFD1
:103E3000892D0E9433178F2D0E942F0DFACE892DC8
:103E4000A2EF8A16B1F1A81570F0B0EF8B16D1F081
:103E5000E1EF8E1691F0EE2009F45EC0C11099CE0C
:103E60008F2D8F712AC0F3EF8F1651F124EF82123C
:103E7000F2CF8091B30582FD2FC08F2D8F71EE2080
:103E8000D9F21BC0EE2081F034E03C1508F4D1CE0D
:103E90002F2D2F7181E090E001C0880F2A95EAF75D
:103EA0009091F0058927AFCF85E08C1508F4C1CE3D
:103EB000EFCF8F2D8F71E110BFCF0E94580DB9CE7B
:103EC00080E0EE2009F49FCF9F2D9F7181E001C01B
:103ED000880F9A95EAF797CFEE2099F09F2D9F7162
:103EE000F92E892F0E94580D8091B30582FF07C0DB
:103EF000A8E0FA9EC0011124836080937D038F2D7A
:103F0000DCCF81E00E943C0DB1E0BC1508F091CE01
:103F100082E00E943C0D8DCECC2059F0893309F00F
:103F2000F0CEEFEFF7EE23E0E150F0402040E1F774
:103F3000E6CE8F2D8F7180CFE114F7E7FF0609F4ED
:103F4000DFCB21E0E21627E7F20609F4DFCBF70129
:103F5000FF57EB30F10508F0DBCBEB52F54D0C943D
:103F60005029E11437E7F30609F4C6CB81E0E816DF
:103F700087E7F80661F782E0C0CB85E0F801DE0153
:103F8000119601900D928A95E1F7D80112962C9125
:103F900089819A81211163CA0E94C00CF82E67CAD8
:103FA000B6E1EB16BCE7FB0631F580919F038A7AF8
:103FB00091E009F490E090931D0369E2811165E3BB
:103FC0008CEF92E00E94BE050E94EA13EDCAE6E182
:103FD000EE16ECE7FE0609F4F7CC80919F0382729F
:103FE000F701E052F847E531F10508F065CDE05200
:103FF000F54D0C945029F3E0EF16FCE7FF0609F4A9
:104000004ACD60F4E1143CE7F30609F437CD81E0D2
:10401000E8168CE7F80609F444CD4ECD9BE5E91689
:104020009CE7F90609F494CDACE5EA16ACE7FA068C
:1040300009F439CDBAE5EB16BCE7FB0609F03CCD37
:1040400081E038CD1F93CF93DF9380914A03807F27
:1040500009F049C080914703882309F444C0809146
:104060007C03D0914B036091450370914603A0916E
:104070004803B0914903C62FC72316E0D81799F11A
:1040800090E0109711F0CF3F19F401968770F6CFAA
:10409000189F9001199F300D1124F901E45BFC4F2A
:1040A00041814713F2CF40814613EFCF4281411146
:1040B000ECCF438154814A1B5B0B483C510528F7E8
:1040C00080914A038F70806180934A03F901EF5A0F
:1040D000FC4F80818F708061808385E493E00E9433
:1040E000161A0E948F0CDF91CF911F910895A1E1C4
:1040F000B0E0EDE7F0E20C940D298C0185E0F801C9
:10410000DE011D9601900D928A95E1F7F801E2809B
:1041100085E4A82E83E0B82E60914803709149038E
:104120006115710509F426C190914503409146033C
:10413000892F84238F3F09F41DC120813181C380E1
:10414000D480F0904703F601E61BF70BFF2009F43B
:10415000DCC080914A03582F507FE83CF10508F0FD
:104160009FC051116BC0FE2C431314C0921312C098
:10417000E11010C08F70806180934A03C5010E94D6
:10418000161A80914A03F80185838F2D6196EAE023
:104190000C942929C114D10429F0822F83238F3F45
:1041A00009F003C180E0F82FF170DF2E80FF3CC0E2
:1041B00080917C0340914B0356E0841315C02D87FA
:1041C0003E878D859E850E947A0F292F22952F701C
:1041D0002230F0F0243018F59F70F1F0F80195814D
:1041E000907FD1F4D12C1EC090E0589FF001599FD0
:1041F000F00D1124E45BFC4F6181361306C0608131
:10420000261303C06281E6120FC001968770D5CFD6
:104210009F7011F0882331F3805E883018F3C80155
:104220000E94161AFD2CB1CFEE2009F4AECF80917A
:104230004A03816080934A03F12CA7CF431306C041
:10424000921304C0F801EE2009F479C0C8010E945D
:10425000870F882309F1EE20F9F080914A0380321C
:1042600070F0209145033091460338872F831986DB
:10427000DB86CA868C87CE0107960E94161A86E0D6
:10428000F801A5E4B3E001900D928A95E1F70E9450
:104290002220FF24F39479CFC8010E94161AF9CF87
:1042A00051110AC085E493E00E94161A86E0F501D8
:1042B00011928A95E9F7C0CF43130FC092130DC036
:1042C000E1100BC0F8018583C8010E94161A86E030
:1042D000F50111928A95E9F758CFC8010E94870F1E
:1042E0008823D1F2EE20C1F280914A03803238F265
:1042F00020914503309146033A8329831B82DD8256
:10430000CC828E83CE010196B8CFE83CF105F8F659
:10431000FE2CEE2009F243131FC092131DC08091A2
:104320004A0380FD10C0982F907F69F0F8018583C3
:10433000903F31F0982F907F905F8F70892B85830D
:10434000C8010E94161A86E0F801A5E4B3E00190C6
:104350000D928A95E1F719CFC8010E94870F81114C
:104360008ECF80914A03816080934A03C8010E94E6
:10437000161A0BCFEE2009F48FCFC8010E94870FC9
:10438000F82E882309F488CF86E0F801A5E4B3E08D
:1043900001900D928A95E1F7809145039091460333
:1043A0000E947A0F0E942220F0CE81E08E25FBCE63
:1043B000A7E1B0E0EEEDF1E20C9414294B8B5C8B9D
:1043C0006D8B7E8B8F8B611110929E031A8A198AD6
:1043D00085E0FE017396DE011D9601900D928A958F
:1043E000E1F786E0FE013D96DE01179601900D9201
:1043F0008A95E1F7CE0107960E947720882359F02D
:1044000016E080917C0390914B03891343C067961B
:10441000E3E00C94302986E0FE013796DE01119628
:1044200001900D928A95E1F78A859B85892B41F34E
:104430008F81988589238F3F19F320914B0330E0BA
:10444000C90101968770992740917C034817190686
:1044500071F40E943F1410924B0310927C0386E08B
:10446000E5E4F3E0DF011D928A95E9F7C9CF96E014
:10447000929FD001939FB00D1124A45BBC4FFE010D
:10448000319601900D929A95E1F780934B030E942B
:104490008F0CB6CF819FC0011124845B9C4F0E947A
:1044A0007720882309F4B3CF80917C0390E00196B4
:1044B0008770992780937C03A4CFACE0B0E0E3E65B
:1044C000F2E20C9409298E010F5F1F4F8CE0D80196
:1044D0001D928A95E9F721E6E22E21E0F22ECC2406
:1044E000C394D12C88248394912C56E7A52E51E0B7
:1044F000B52EF70181917F018F3F09F449C0F894EF
:10450000E82FE295EF70F0E021A18F70A40102C0C6
:10451000440F551F8A95E2F7CA01922F982B91A359
:1045200092A18095892382A3789400C090E7692E98
:1045300091E0792EF801A60140955095D3016D9137
:104540003D01808191816F3F09F463C0262F229540
:104550002F7030E0D90190962C9130E06F7002C03E
:10456000359527956A95E2F720FD53C08C299D2942
:10457000918380833296A614B70401F7F70131972F
:1045800080818F3F11F00E94990AB0EABA95F1F745
:10459000CC0CDD1CE0E7EE16E1E0FE0609F0A9CF49
:1045A0004CE050E0B80184EB93E00E94C229892BD3
:1045B00099F18CE0F801A4EBB3E001900D928A959B
:1045C000E1F781E08093A4030E94AD199093A303C7
:1045D0008093A2038091A2039091A3030E949E194D
:1045E0000597F0F04CE050E064EB73E089EC93E069
:1045F0000E94C229892BC9F08CE0E4EBF3E0A9EC1E
:10460000B3E001900D928A95E1F781E01092A40346
:1046100008C084239523ACCF8091A4038111DACF05
:1046200080E02C96EEE00C94252980E0EFCF1F92DD
:104630001FB61F9211248F939F93AF93BF938091C6
:10464000AD05811113C08091AE059091AF05A09189
:10465000B005B091B1054196A11DB11D8093AE0585
:104660009093AF05A093B005B093B105BF91AF9102
:104670009F918F911F901FBE1F901895CDB7DEB7E9
:10468000C054D1090FB6F894DEBF0FBECDBF85B7B9
:10469000806885BF85B7806885BF84B7877F84BF02
:1046A0000FB6F894A89580916000886180936000AF
:1046B000109260000FBE80E890E00FB6F8948093EF
:1046C0006100909361000FBE87E99AE09093FB022E
:1046D0008093FA020E942A040E94CB048091E20097
:1046E00084608093E20078948091D9058823A1F0BA
:1046F0001091E9001F709091EC00892F817090FD5E
:1047000080E8182B1092E9008091E80083FD0E9458
:104710005F141F701093E90082E084BD93E095BDA3
:104720009AEF97BD80936E000E94B10F811102C075
:104730000E94BA0E81E08093C6036E98769A2798FD
:104740002F9A8FE891E00197F1F700C000004091A7
:10475000C60367EC73E0FB018E2F861B841708F4F9
:1047600052C001E611E0D8018D918D018F3F11F00B
:104770000E94990AB1E000371B07A9F700E711E092
:10478000F80181918F018F3F11F00E94990AF1E0A9
:1047900006371F07A9F78CE0E9ECF3E0DF01282FCB
:1047A0001D922A95E9F7E4EBF3E0DF011D928A956B
:1047B000E9F70E94DE13811102C00E94FB1782E01C
:1047C00090E00E94DF298093A70384E090E00E949C
:1047D000E7299093B3058093B2050E945D22EFE331
:1047E000FCE93197F1F700C000000E945D22809142
:1047F000C90380FF19C06FEF7FEF90E080E00E9457
:104800001B2A0E94CD0D8CB186FB882780F923B12D
:1048100030E0220F232F221F330B90E0232B09F0CF
:1048200092E0892B819398CF83E090E00E94DF296A
:104830000E94640D0E9410110E94DE13811104C0B9
:104840000E94FB170E94B31381E08093DE0346E0D1
:1048500050E06CE170E087EE95E00E94CF29109265
:10486000DE038091E7058C7F11F40E94B3138091E1
:10487000B20580688093B2056091B2057091B3056E
:1048800084E090E00E941B2A1092C3031092C2039E
:1048900084E091E09093AA058093A9058091D905C1
:1048A00013E0F12E00E112E1853009F4CAC00E9444
:1048B0005D22A8EACA2EA3E0DA2EB9EC6B2EB3E093
:1048C0007B2E86E891E021969FAF8EAF219764EB17
:1048D00073E07C01A301F60121913191DA018D9100
:1048E0009D91AD01D7010D911D917D0180239123F3
:1048F0006E177F0709F4B1C02817390769F3E6E896
:10490000AE2EE1E0BE2EF9EC8F2EF3E09F2E312C7F
:10491000F401019111914F01D5018D919D915D019E
:1049200008231923F601419051906F01401651065A
:1049300059F140265126212CEE24E394F12CC2019A
:104940008E219F21892BB1F02AAE3BAE21E0C80118
:104950008E219F21892B09F420E02CAF0E94AD19F4
:104960008160782F9EAF8DAF4AAD5BAD6CAD8EADE3
:104970000E94D8212394EE0CFF1CFFE02F12DFCF02
:10498000F601329711830083339426E03212C0CFB0
:104990000E94880584C08091D905843009F43AC00A
:1049A0000E9451138091DD0381110DC00E94A81156
:1049B00010920F018091E705837080930E010E9491
:1049C000B410F0921001F1E0F093DD031092AD0508
:1049D00088E190E0A0E40FB6F894A8958093600079
:1049E0000FBEA093600083B7817F846083BF83B7CD
:1049F000816083BF7894889583B78E7F83BF0FB61D
:104A0000F894A8958091600088618093600010926E
:104A100060000FBE8091D805882399F00E945D2226
:104A2000E9ECF3E0A6E8B1E0819191912D913D91FF
:104A300082239323892B09F0F4C223E0E53DF2079A
:104A400099F78091D905853009F4A5CF0E943F14CC
:104A50000E943D061092DD032ACF2817390709F07E
:104A60004ECF0E94AD198C018091A5039091A603B1
:104A700008171907A1F08FEF8DAB8EAB1FAA0E940C
:104A8000AD198160782F99AF88AF4DA95EA96FA944
:104A900089AD0E94D8211093A6030093A5038091AD
:104AA000C2039091C303843FA1E09A0708F464C055
:104AB0002091C9033091CA0390E081E0A9014270BE
:104AC000552721FF80E08093C1032091C003281364
:104AD00002C0992351F081E0452B09F084E00E9447
:104AE000640D8091C1038093C0030E945113B12CC7
:104AF000A12C34E0C32ED12C4DEF942E5CEF852EEB
:104B00008091C603B81608F445C0A1100E9488051C
:104B10000E943D069091C803891721F08093C80335
:104B20000E9488058091D905843009F0B7CE83E0D2
:104B30008093E9008091E80082FFB0CE8091E80088
:104B400090E085FF06C00E944904882309F4AFC0A5
:104B500091E08091E8008B778093E800992309F435
:104B60009DCE8981EFEFE80FE53108F0C9C0F0E094
:104B7000EB50F54D0C94502901969093C30380930C
:104B8000C2030A9709F0B1CF2091B4033091B50365
:104B900091E093CF0B2D10E0ECB1E6FBEE27E0F9AE
:104BA00083B190E0880F892F881F990B892B09F01A
:104BB0007CC080E08E2BD801A953BC4FEC919E2F76
:104BC0009370891709F46FC0EE0FEE0FE82BEC938A
:104BD000EF70F0E0EA58FE4FC8018B539C4F7C0108
:104BE0008081D7019C91890F8C9320E0843034F12F
:104BF000F801EC53FC4F80818F5F80830E94AD19D8
:104C0000BBA68CA6B1E0BDA78160782F9FA78EA719
:104C10004B2D5CEF61E08FA50E94D8210E94AD1959
:104C2000B8AA89AA1AAA8160782F9CAB8BAB4B2DAE
:104C30005CEF60E08CA90E94D82121E0F70180811F
:104C40008D3F34F5F801EC53FC4F80818150808317
:104C50000E94AD19B9A29AA2F1E0FBA38160782F5E
:104C60009DA38CA34B2D5DEF61E08DA10E94D82107
:104C70000E94AD19BEA29FA218A68160782F9AA7A4
:104C800089A74B2D5DEF60E08AA50E94D82121E025
:104C9000D7018C91082E000C990BB6010E943C297B
:104CA000F7018083A22AB3942BCF82E083CF80E2E6
:104CB000E82EF12C8E010F5F1F4F8091E80085FDDB
:104CC0000AC08091E8008B778093E8000E94490435
:104CD000882399F33DCF8091F100D8018D938D0108
:104CE000B1E0EB1AF10849F733CF1A828BE08B83DE
:104CF0001BC08A81823009F4AAC128F4813061F096
:104D00008FEF898311C08330C1F08430C9F71B82D3
:104D10001C821D821E8208C00E9488050E9456299E
:104D20006B837C838D839E8340E250E0BE016F5F86
:104D30007F4F82E00E94670DB1CDFE013196D30115
:104D40008D919D913D012196AEADBFAD21972D91E5
:104D50003D912196BFAFAEAF2197822393239283DB
:104D600083833296B5ED6B16B3E07B0641F7DCCF5B
:104D70008A81823059F0853019F68091E705E1E0AB
:104D80008E278093E70510921001CECF6B817C8136
:104D90008D819E810E94562985E290E00E94FD2926
:104DA000C3CF4C816B818A810E94FD0E9827892791
:104DB00098279E838D83B8CF2D813E81322723276C
:104DC00032274C816B818A810E942C0EADCF0E94CC
:104DD000520EAACF9A81933009F092CF883009F40D
:104DE00041C0893009F46BC08B818230E9F088F4CE
:104DF000813009F099CF4C812FEF429F412D112432
:104E00008091E80520E06091E90590E00E946C0641
:104E10008BCF833019F1843009F086CF8C8120E06C
:104E20004091EA056D81F1CF8C819091E705292FA2
:104E30002370811107C011F0109210019C7F909394
:104E4000E70572CF211102C0109210019C7F916082
:104E50009093E70560E00E94CA0666CF8C8180933C
:104E6000EB0562CF8B818230E1F078F4813009F07C
:104E70005BCF8091EA05FFEF8F9FC00111246FEF98
:104E800070E00E94F1286C834FCF8330A9F084300A
:104E900009F04ACF8091E8058C838091E9058D83E4
:104EA00043CF8091E705982F937086958695911151
:104EB00001C080E08C8338CF8091EB05FBCF0E944E
:104EC000461332CF80E18A832FCF1A828AEF0FCF29
:104ED000EA80FB80FE24EF24FE248E010F5F1F4F2B
:104EE000CC80C00ED12ED11CC7018A5F9C4F0C15FF
:104EF0001D0509F419CF2AEFE216F10458F40E94B7
:104F0000DF29D80114968C93FFEFEF1AFF0A0F5F89
:104F10001F4FEACFF8011482F7CF0A811B811027B7
:104F200001271027CE0101966C01EC80E00EF12ED6
:104F3000F11CC8018A5F9C4F0E151F0509F4F4CEC1
:104F40000A3F110528F4D60114966C910E94FD29A0
:104F5000BFEFCB1ADB0A0F5F1F4FEBCF0E94F10DA3
:104F6000E3CE84E0B0CFEA80FB80FE24EF24FE2471
:104F70008E010F5F1F4FCC80C00ED12ED11CC701F8
:104F80008696C016D10609F4CFCEE0EDEE16E2E02B
:104F9000FE0658F40E94DF29D80114968C93FFEF87
:104FA000EF1AFF0A0F5F1F4FEACFF8011482F7CF05
:104FB0000A811B81102701271027CE0101966C0161
:104FC000EC80E00EF12EF11CC8018696E016F10689
:104FD00009F4AACE003DA2E01A0720F4F60164818C
:104FE0000E94FD29FFEFCF1ADF0A0F5F1F4FECCFA2
:104FF00041E08C81811101C040E06B818A810E9477
:10500000CA0ED4CE2D813E8132272327322741E09C
:105010008C81811101C040E06B818A810E94010E68
:1050200083CE09BD19BD09B400FEFDCF8091D80023
:105030008F7D8093D8008091E00082608093E000B3
:105040008091E00081FDFCCF0E943F14FACC85E204
:1050500090E00E94DF291B821C821D828E8364CE19
:105060001092B9008CE08093B8000895B0E0A0E001
:10507000ECE3F8E20C940C29B82EEB010E94AD1978
:105080006C01EE24E394F12CC431D10560F025E0ED
:10509000E22EF12CCF3FDC0731F0CE0164E170E06D
:1050A0000E94F1287B0184EAA82E94E8992E1092A0
:1050B000BC00A092BC000E94AD198C018091BC0084
:1050C00087FF0DC08091B900887F8830F9F080910A
:1050D000B900887F8031D1F00FEF1FEF08C0C80101
:1050E0000E949E19E816F90648F70EEF1FEFCF3F12
:1050F000DC07E9F2C6010E949E19C817D907B8F665
:10510000C801CDB7DEB7EBE00C942829B092BB0004
:105110009092BC000E94AD198C018091BC0087FF69
:105120000AC08091B900887F883111F08034A1F6DF
:1051300010E000E0E5CFC8010E949E19E816F906CC
:1051400060F7D3CF0F931F93CF93DF93EB0180933F
:10515000BB0084E88093BC000E94AD198C01809153
:10516000BC0087FF11C02091B900287F81E090E04A
:10517000283211F490E080E0919581959109DF91BA
:10518000CF911F910F910895CF3FDC0741F3C801E4
:105190000E949E19C817D90710F78EEF9FEFEFCF27
:1051A000B0E0A0E0E6EDF8E20C940F296B018A0173
:1051B0007901B9010E943628E6010C0D1D1DC017AA
:1051C000D10711F097FF08C024E92093BC00CDB7A8
:1051D000DEB7E8E00C942B29B70189910E94A22840
:1051E000EECFAA1BBB1B51E107C0AA1FBB1FA6170E
:1051F000B70710F0A61BB70B881F991F5A95A9F780
:1052000080959095BC01CD0108952F923F924F92C9
:105210005F926F927F928F929F92AF92BF92CF9246
:10522000DF92EF92FF920F931F93CF93DF93CDB74F
:10523000DEB7CA1BDB0B0FB6F894DEBF0FBECDBFC7
:1052400009942A88398848885F846E847D848C8498
:105250009B84AA84B984C884DF80EE80FD800C81A1
:105260001B81AA81B981CE0FD11D0FB6F894DEBF84
:105270000FBECDBFED01089597FB072E16F40094E5
:1052800007D077FD09D00E94F12807FC05D03EF435
:10529000909581959F4F0895709561957F4F0895E2
:1052A000EE0FFF1F0590F491E02D099469279627D2
:1052B000692778278727782708958F929F92AF9242
:1052C000BF92CF92DF92EF92FF92CF93DF93EC01E8
:1052D000688179818A819B816115710581059105BC
:1052E00021F464E279ED8BE597E02DE133EF41E0C5
:1052F00050E00E94212A49015A019B01AC01A7EA12
:10530000B1E40E94402A6B017C01ACEEB4EFA50130
:1053100094010E944E2ADC01CB018C0D9D1DAE1D17
:10532000BF1DB7FF03C00197A109B04888839983C7
:10533000AA83BB839F77DF91CF91FF90EF90DF909F
:10534000CF90BF90AF909F908F9008950E945D295D
:10535000089580E091E00E945D290895B0E0A0E00A
:105360008093000190930101A0930201B093030187
:105370000895FB01DC0102C005900D9241505040A0
:10538000D8F70895FB01DC0104C08D9101908019CC
:1053900021F441505040C8F7881B990B0895DC0157
:1053A000CB01FC01F999FECF06C0F2BDE1BDF89A30
:1053B000319600B40D9241505040B8F70895F999D4
:1053C000FECF92BD81BDF89A992780B50895A8E1D6
:1053D000B0E042E050E00C94D129DC01A40FB51FED
:1053E0004150504048F0CB01840F951F2E910E94F0
:1053F000FE2941505040D0F70895262FF999FECF4D
:1054000092BD81BDF89A019700B4021639F01FBA17
:1054100020BD0FB6F894FA9AF99A0FBE0895039634
:10542000272F0E94FE290E94FD29252F0E94FE2978
:10543000242F0C94FE290196272F0E94FE290C94FC
:10544000FD29052E97FB1EF400940E94382A57FD73
:1054500007D00E94532A07FC03D04EF40C94382A3C
:1054600050954095309521953F4F4F4F5F4F089590
:1054700090958095709561957F4F8F4F9F4F0895C0
:105480000E94752AA59F900DB49F900DA49F800D3A
:10549000911D11240895B7FF0C94402A0E94402AC0
:1054A000821B930B0895A1E21A2EAA1BBB1BFD01C0
:1054B0000DC0AA1FBB1FEE1FFF1FA217B307E407F3
:1054C000F50720F0A21BB30BE40BF50B661F771F4B
:1054D000881F991F1A9469F760957095809590952B
:1054E0009B01AC01BD01CF010895A29FB001B39F04
:1054F000C001A39F700D811D1124911DB29F700DDD
:10550000811D1124911D0895F894FFCFD811E41145
:10551000141259125E127B127E12811284128712AB
:105520008C128F12921297129A12D6124015681589
:105530000B1768150B179B15BC150B17BA16C7165A
:10554000F81BFC1BED1BF41B001C041C081C611C3D
:10555000D61C691C331C371C6D1C3B1C711C7D1C2C
:10556000471CCF1C4B1C811C4F1C851CAD1C531CA5
:10557000891CB41C591C8F1C971C3F1C751C431C98
:10558000791C5D1C931CA31CBD1CCD1C2D1C651C13
:10559000DD1CAF1DAF1DEA1DEA1D851E191E191E5B
:1055A000191EA11E0E1F1F1F1F1F931B9D1BA21B39
:1055B000A21BA21BA21BAE1BC11BC11BC11BC11B7B
:1055C000EE1CFC1C031D081D0D1D121D171D1C1DAE
:1055D000211D261D2B1D301D351D381D3B1DD41AC8
:1055E000D41AD41AD41AD41AD41A75267926B826FD
:1055F000D126DC26E726EA26EA26EA268026802629
:105600006227652768278D27AE27B127B327D827BC
:04561000F82702284D
:10561400010000008505A90D8405A20D3905FFFFD1
:10562400030100FF0000FFFF02E32B0002E3080078
:1056340003E1E32102E30600E2E6E3E7818283E299
:1056440000E900EA00B500B600B700CD008301CC44
:10565400008A0192019401210223022402250226D8
:105664000227022A02B300B4006F0070009F01CB2E
:1056740001959496973435366667F7F6F5F4F1F0AC
:1056840093923332313000FF0100010000FFFF002C
:1056940000010001FF00FD7FFF7FFF7FFF7FFF7F91
:1056A400FF7F003131295A1B750A40226D3B0119D5
:1056B40001AC0065077E079E0700FF010203040595
:1056C400060708090A0B0C0E0F10111213141516F5
:1056D4001718191A1B1C1D1E1F20212223242526DE
:1056E4002728292A2B2C2D2E2F30313233343536CE
:1056F400373847393A3BFF3C3D3E3F404142434403
:105704004550460D48494AFFFFFF4BFFFFFF4C4DF4
:105714004E4F5100001200210030003E0051005F46
:10572400006E007D008F009E00AD00BB00CE00E047
:1057340000000F0F0F1D0F2C0F3B0F490F580F6761
:105744000F760F840F930FA20FB00FC60FE00F0454
:105754001A161A251A331A421A511A5F1A6E1A7D2A
:105764001A8C1A9A1AA91AB81ACA1AE01A06261A08
:105774002628263726462654266326722681268F17
:10578400269E26AD26C426E0260931213130313E3D
:10579400314D315C316A31793188319731A531B974
:1057A40031D134023D143D273D5E3D933DA23DB0D1
:1057B4003DC340D140E0400101010101010101016B
:1057C40001010101010101040404040404040404AA
:1057D400040404010101040404040404040404048E
:1057E400040404010104040404040404040404047B
:1057F4000101010404040404040404040401010177
:0A580400010104010101010101008E
:00000001FF
